:020000040800F2
:100000008051002069020008134C0008E7370008FF
:10001000A3490008330600088F63000800000000B1
:10002000000000000000000000000000B1540008C3
:10003000350C000800000000554C0008F955000878
:10004000830200088302000883020008830200087C
:10005000830200088302000883020008BD0F000825
:10006000C30F00088302000883020008830200080F
:10007000830200088302000883020008830200084C
:10008000690B00088302000883020008830200084D
:10009000830200088302000883020008830200082C
:1000A000830200088302000883020008830200081C
:1000B00083020008A9560008830200088302000892
:1000C00083020008830200088302000883020008FC
:1000D0008302000815610008830200087D610008A2
:1000E00083020008830200088302000883020008DC
:1000F00083020008830200088302000883020008CC
:1001000083020008830200088302000883020008BB
:1001100083020008830200088302000883020008AB
:100120008302000883020008850B00088302000890
:10013000830200088302000883020008830200088B
:10014000830200088302000883020008830200087B
:10015000830200088302000883020008830200086B
:10016000830200088302000883020008830200085B
:1001700083020008830200088302000800000000D8
:10018000830200088302000800F002F800F05CF827
:100190000AA090E8000C82448344AAF10107DA45E2
:1001A00001D100F051F8AFF2090EBAE80F0013F0D8
:1001B000010F18BFFB1A43F0010318473C6300000E
:1001C0005C6300000A444FF0000C10F8013B13F090
:1001D000070408BF10F8014B1D1108BF10F8015BA0
:1001E000641E05D010F8016B641E01F8016BF9D193
:1001F00013F0080F1EBF10F8014BAD1C0C1B09D1EA
:100200006D1E58BF01F801CBFAD505E014F8016B5B
:1002100001F8016B6D1EF9D59142D6D370470000ED
:100220000023002400250026103A28BF78C1FBD8FF
:10023000520728BF30C148BF0B6070471FB506F09A
:1002400016F91FBD10B510BD00F068F91146FFF793
:10025000F5FF06F0DDF800F086F903B4FFF7F2FFD2
:1002600003BC00F08DF900000948804709480047A9
:10027000FEE7FEE7FEE7FEE7FEE7FEE7FEE7FEE756
:10028000FEE7FEE704480549054A064B70470000B3
:100290009956000889010008803100208051002013
:1002A000804100208041002053EA020C00F0698068
:1002B0002DE9F04B4FF00006002B1FBFB3FA83F57A
:1002C00003FA05F424FA05F65E4012BF1643B2FAAB
:1002D00082F502FA05F4C5F120051EBF22FA05FCDD
:1002E00044EA0C04203556EA044C4FEA144418BF83
:1002F000641C4FF000084FF00009904271EB030CB2
:1003000039D3002919BFB1FA81F701FA07F6B0FA1B
:1003100080F700FA07F6C7F120071EBF20FA07FC96
:1003200046EA0C062037B6FBF4FCA7EB0507103FA6
:1003300007F01F0BCBF120060CFA0BFB2CFA06F68C
:1003400044BFB3460026202FA4BF5E464FF0000BEB
:100350005BEA060C08BF4FF0010B19EB0B09ABFB76
:10036000027C48EB0608C01B06FB02CC0BFB03CC4F
:1003700071EB0C01C1E70B46024641464846BDE819
:10038000F08B13B54FF000004FF00001AFF3008089
:10039000BDE81C407047032A40F2308010F0030C87
:1003A00000F0158011F8013BBCF1020F624498BFC8
:1003B00011F801CB00F8013B38BF11F8013BA2F165
:1003C000040298BF00F801CB38BF00F8013B11F0E0
:1003D000030300F02580083AC0F0088051F8043B80
:1003E000083A51F804CBA0E80810F5E7121D5CBFED
:1003F00051F8043B40F8043BAFF30080D20724BF20
:1004000011F8013B11F801CB48BF11F8012B24BFB3
:1004100000F8013B00F801CB48BF00F8012B704702
:1004200010B5203AC0F00B80B1E81850203AA0E88F
:100430001850B1E81850A0E81850BFF4F5AF5FEAC3
:10044000027C24BFB1E81850A0E8185044BF18C976
:1004500018C0BDE810405FEA827C24BF51F8043B1D
:1004600040F8043B08BF7047D20728BF31F8023B71
:1004700048BF11F8012B28BF20F8023B48BF00F805
:10048000012B70474FF000020429C0F0128010F0D9
:10049000030C00F01B80CCF1040CBCF1020F18BF60
:1004A00000F8012BA8BF20F8022BA1EB0C0100F0F3
:1004B0000DB85FEAC17C24BF00F8012B00F8012BC6
:1004C00048BF00F8012B70474FF0000200B51346FB
:1004D00094469646203922BFA0E80C50A0E80C5064
:1004E000B1F12001BFF4F7AF090728BFA0E80C5015
:1004F00048BF0CC05DF804EB890028BF40F8042B0E
:1005000008BF704748BF20F8022B11F0804F18BF7A
:1005100000F8012B7047704770477047754600F030
:100520002BF8AE4605006946534620F00700854685
:1005300018B020B5FFF7A6FEBDE820404FF000063A
:100540004FF000074FF000084FF0000B21F00701BB
:10055000AC46ACE8C009ACE8C009ACE8C009ACE8FE
:10056000C0098D46704710B50446AFF300802046A1
:10057000BDE81040FFF771BE0048704720310020F1
:1005800001491820ABBEFEE726000200704730B4D8
:100590000C46029DC0E90012898901810021418138
:1005A000C36005824182818201218175204630BC71
:1005B000114602F007BD10B50022012304E050F8F7
:1005C0002240521CD2B2A3758A42F8D310BD70B536
:1005D000847D0025012C00D14582468A8E4217D3A6
:1005E000012C15D101895943FF23B1FBF3F189B2E5
:1005F000418144680A2364B1042C11D001FB02F14B
:10060000B1FBF3F10268082C126810D011648575F3
:1006100070BD5143B1FBF3F1026812685163F6E714
:100620005143B1FBF3F1026812689163EFE7D163C4
:10063000EDE7FEE72DE9F04F00243F4EDFF8FCB078
:10064000DFF8FCA089B0A1464FF448774FF00F08BF
:100650003C49CDE9031B0521CDF80080CDE90171AE
:100660003948CDE9056930F814301838C4EB041561
:1006700050F824200AEB8500A1B2054603F0B6F934
:10068000324840F82450641C062CE1DB0F20CDE9F1
:1006900000074D46DFF8AC900124B246CDE902498F
:1006A000CDF810B02948CDE905A55E46F038BB4627
:1006B000E302274A0621804603F098F9234F0F21D1
:1006C000A7F1B400C7F81880CDE9001BCDE90249B5
:1006D0000496CDE905A5A3031D4A0721804603F032
:1006E00085F9C7F81C804FF4FA68CDE90048A7F1F6
:1006F0007800CDE90650DFF85CB0CDE90249CDE9DC
:10070000046A01235A46082103F070F907983862F9
:10071000CDE90048CDE902490496CDE905A5A7F148
:100720003C0001235A460921044603F05FF97C622C
:1007300009B0BDE8F08F00000D3B0008453A000805
:10074000B8220020713C0008AC00002010250020D9
:10075000000C02400008024030B503464FF6FF701F
:1007600091B14AF20104491E89B20ED313F8012B4C
:1007700050400022C5074FEA500000D06040521C94
:10078000D2B2082AF6D3EEE7002030BD102101488E
:1007900000F041BC4C01002010B50446008808441C
:1007A0000004000C208004D00120207401F030FAF5
:1007B000E06010BD30B51F498DB06422A1F1180072
:1007C00003F045FC1C496422A1F2BC4003F03FFC4D
:1007D0001B481A4DCDE905501A4807904FF4806028
:1007E000ADF82000184809904020ADF82800AA2054
:1007F0008DF82A0055208DF82B0014480B901448D2
:100800000C90142208A96846FFF70AFE0DF1140C9B
:100810000D489CE80E00543000F01CF800220A48F5
:1008200062F30F04294613464030009400F0B2F8FA
:100830000DB030BDCC0600207C0B0020340500201C
:10084000C40500202C1C00202C2000202161000861
:10085000C15E00082DE9F05F0F46DDE90BA590466B
:100860001E4604464C21DDF834B0DDF82890FFF731
:100870002BFEC4E90C781FFA89F23146204604F0B9
:10088000A7FCC4F838A0A587280C84F83E00280EE1
:1008900084F83F00C4F840B00E9860640448A06437
:1008A000A2882168206BBDE8F05F02F03BBF00002A
:1008B000B50800082DE9F84304460068884600287A
:1008C0005BD0A06B002858D0ACB1206B98B1606BA6
:1008D00088B1A2887AB1006840682189101A80B274
:1008E000814202D86289411A02E0511A0A186189CC
:1008F0001144618120810127214D0026E1682046B5
:100900008847002839D1A26969462046904728784F
:1009100010B3A18F688881422DD9A26B9DF8001079
:100920001154401C688094F83F009DF800108842E4
:10093000E4D12E70D4F840C0BCF1000F0AD094F876
:100940003C1043460022A06BE04718B1616C09B12E
:10095000404688476E80D1E794F83E109DF800002D
:100960008142CBD12F706E80A18F002903D9A16B5A
:1009700008706F80C2E72E70ECE7BDE8F8830000D6
:100980004E0000200249A1F14C00FFF793BF000088
:10099000CC20002010B5029C80E80E008481034A20
:1009A0000261202081F8410010BD0000B10900085B
:1009B0000068002806D0002904D0002A02D0642351
:1009C00002F0C0BE704700003EB5234A03214FF439
:1009D00096708DE8070040F6B833012264211F4865
:1009E00000F042F81D4C3034207C012805D0002551
:1009F000032808D004280CD011E06169201D884725
:100A0000022020740BE0A169201D884725742580F1
:100A100005E0A169201D88472574FFF7B7FE216A0C
:100A2000201D884741F28831884203D9207C08B1D3
:100A30000420207409480A4A40F6C411743000F0BA
:100A400069F80648074A4FF44871543000F062F8DC
:100A5000BDE83E4000F0B8BA11390008D8200020A7
:100A600091630008534C00082DE9F0470446DDE986
:100A70000998C07E1E4617468A46012805D00025E3
:100A8000032808D004280CD01FE0E369201D9847F4
:100A90000220E07622E0216A201D8847E576258045
:100AA0001CE0E16A201D8847B0F5967F0DD9A0783B
:100AB000484504D20121E176401CA0700EE0E576A5
:100AC000216A201D884740468047E07E052805D1E1
:100AD000616A201D8847A16A201D8847E16A201DA0
:100AE0008847B04214D9E07E002811D00420E07677
:100AF000616A201D8847012000F09AFE37B100226C
:100B00005146201DE369BDE8F04718470122F7E789
:100B1000BDE8F0872DE9F0410446007B16460F46FC
:100B2000012805D00025032808D004280BD00FE0A9
:100B30002169204688470220207309E06169204628
:100B40008847257304E02573616920468847B047CC
:100B5000E16920468847B84204D9207B002801D0AB
:100B600004202073BDE8F08110B5044800F0EEFCCD
:100B7000BDE810400149024804F0A0B8D4040020A8
:100B8000E82F0020014800F0E1BC0000C40500206F
:100B900001681823CAB2103AB2FBF3F2054B6FF3A7
:100BA0000901032A9B5CC36500D9091D81650846BC
:100BB000704700007864000810B5014600208B697A
:100BC0008A6A4FF0C07453B1B3F5005F15D072B1AB
:100BD000012A0CD0022A0AD0032A09D104E01AB152
:100BE000012A06D0022A03D1C96AC90100D5012011
:100BF00010BDC96AA142FAD010BD002AF7D0012A5F
:100C0000F2D0022AF3D0032AF3D010BD30B5046825
:100C1000256825F480252560046863608368402B7F
:100C2000036803D099600068C26030BD9A600068B4
:100C3000C16030BD704700007CB504201E4B1F4CC6
:100C4000009000221946201D00F04CF8012304F109
:100C500030059A021A49281D00F0DEF8194E0123CA
:100C6000DA03314604F1540000F0D6F801239A0368
:100C7000314604F1740000F0CFF85A217820CDE914
:100C800000013C230022104904F1940000F096F882
:100C900000210E4801F032FF04210C4801F02EFF24
:100CA0000B4801F0FBFD00202080A070288004F19B
:100CB0007401012008737CBD94020020D82000201C
:100CC0000010024000080240DC0200206C030020FB
:100CD000FC03002010B5044600F09AFF2169401A79
:100CE00010BD000070B50D46044604992846C4E9BD
:100CF0000221C4E900530021E1750123A375A182FB
:100D000021610B49A1610B49E1610B4921620B494A
:100D100061620B49A162114602F054F9E168606812
:100D200002F050F92046BDE8704000F00BB800001A
:100D30005D0D00087B0D0008450D0008510D0008F1
:100D4000D50C0008D0E90121C368006803F0DABEC1
:100D500010B5044600F05CFF206110BD1CB5827523
:100D6000CDE900120446D4E90002D4E9021303F0ED
:100D7000E8FE00F04DFF20611CBDD0E90121C368F1
:100D8000006803F024BF30B4438902895C18A24292
:100D900002D9511A018100E00381018930BC00F0C1
:100DA0002FB800897047028911448289914201D28B
:100DB000018100E00281018900F022B870B504468B
:100DC000DDE90456C4E9001208466381A58108499B
:100DD0006161084921610849A1610849E161114641
:100DE00002F0F0F8314620466269BDE870401047D5
:100DF000010E0008A30D0008A70D0008870D0008CC
:100E000001810A4603C804F065BB10B5044600F032
:100E1000FFFEA168401A10BD30B401600C4682800C
:100E200011464373002202738260084A0261084A35
:100E30004261084A8261084AC26123B10022204609
:100E400030BC00F0E0BE0122F9E700006F0E0008A0
:100E50005D0E0008850E00080B0E0008417B21B1D5
:100E600000228188006804F0B2BB0122F9E710B5C6
:100E70000446427B8188006804F0A9FB00F0C8FEAC
:100E8000A06010BD10B5044600F0C2FEA06010BD09
:100E900030B58DB03848059038480A900E208DF84E
:100EA0002C004FF48040ADF824008010ADF81C00F9
:100EB000334C34480C9008940694142208A96846D0
:100EC000FFF7AEFA22463048079B059900F05EF81E
:100ED0002D4C02233322256A00212046A8470123F6
:100EE000256A1A4602212046A84701230222256AC4
:100EF00003212046A84701230322256A0421204616
:100F0000A84701230422256A05212046A84701237A
:100F10000522256A06212046A84701230622256AC4
:100F200007212046A84701230722256A08212046D9
:100F3000A84701230822256A09212046A847012342
:100F40000922256A0A212046A84701230922256A89
:100F50000B212046A84701230922256A0C2120469F
:100F6000A84701230922256A0D212046A847616A66
:100F7000204688470DB030BDE40100203801002034
:100F80000004024098640008F8300020F0B50DF12C
:100F9000140E9EE8F010466101600776C0F81CC090
:100FA00042600381C46005820249016202494162D4
:100FB000F0BD00000955000871500008022000F043
:100FC00011BD042000F00EBD70B509480068406AEC
:100FD000084D84B2084869888C4201D9826901E0D1
:100FE00004D2C2694FF00101034890476C8070BD84
:100FF0006C030020680000206C21002072B6FEE720
:101000000068814301D000207047012070470268CA
:101010008A430260704702680A430260704700001A
:10102000002229B101291AD002291BD04FF44072A5
:101030000E490B6823F440730B600B6813430B607D
:101040000A6822F078020A600A68022303EBC000F3
:1010500002430A60086840F48030086070474FF42B
:101060008072E5E74FF40072E2E70000103C0240B6
:101070001348016889050FD5016821F400710160EA
:10108000016841F400610160016821F400610160C0
:10109000016841F400710160016849050FD50168DC
:1010A00021F480610160016841F4805101600168B0
:1010B00021F480510160016841F480610160704752
:1010C000003C024008490A6822F440720A600A683B
:1010D00042F004020A600A684FF4803343EA0020B9
:1010E00002430A6070470000103C0240064A136841
:1010F00023F44073136013681360136843F0010313
:101100001360017070470000103C0240094910B59F
:101110000C6824F440740C600C6844F440740C6057
:101120000C6844F001040C600260BFF36F8F4360F1
:1011300010BD0000103C0240074A136823F44073BE
:101140001360136843F480731360136843F0010362
:101150001360018070470000103C0240074A13688A
:1011600023F440731360136843F40073136013682F
:1011700043F001031360016070470000103C02401F
:1011800017490868C206174805D5C26942F010021F
:10119000C26110220A600A68920605D5C26942F04F
:1011A0000802C26120220A600A68520605D5C26997
:1011B00042F00402C26140220A600A68120605D5A4
:1011C000C26942F00202C26180220A600A68920784
:1011D00005D5C26942F02002C26102200860704752
:1011E0000C3C02400000002070B51149044600206C
:1011F000C86100F00DFD06460E4D09E0601C07D0E9
:1012000024B100F005FD801BA04201D9032070BD70
:101210002868C003F2D42868C00701D001202860E4
:10122000286810F0F200F2D0FFF7AAFF012070BD8D
:10123000000000200C3C024010B501210748FFF7D8
:10124000DFFE002808D00648C1688847BDE8104086
:1012500001210248FFF7DBBE10BD0000480100205D
:101260008C210020114B10B514221149A3F1180054
:1012700000F04AF80D4C183C204621698847D4E913
:101280000112002005E000BF52F820305B1C04D0A2
:10129000401CB0EB910FF7D310BD03F07BFF034868
:1012A000E168BDE81040183808470000A42100207C
:1012B0000080000830B1816821B1416811B1006837
:1012C00000F003B84FF0FF307047AFF3008000B577
:1012D00087B000210591009100F074F80290012080
:1012E00003900220049000F049FB10B1012007B0E8
:1012F00000BD05A9684600F0ADFA08B10220F6E786
:1013000000F0F4FA0020F2E780E80E000349C16023
:101310000349016103494161704700005913000806
:1013200029130008B512000830B1816821B1426864
:1013300012B1006800F003B84FF0FF30704710B5ED
:101340000B0006D02AB101461846FFF769F80020C5
:1013500010BD4FF0FF3010BD816830B10A0004D0DD
:10136000426812B1006800F003B84FF0FF307047D8
:101370002DE9F04116460C00054606D02EB1FFF7C8
:10138000A6FF28B10120BDE8F0814FF0FF30FAE759
:10139000F61CB70800F0F2FA00260DE000232946FB
:1013A0000220226800F0ACFA18B100F09FFA022087
:1013B000E9E7241D2D1D761CBE42EFD300F096FAFE
:1013C0000020E0E70021A0F1006343F6FF729342A2
:1013D00046D324490144914201D2012140E02249EF
:1013E0000144914201D202213AE020490144914254
:1013F00001D2032134E01E494FF6FF7201449142AD
:1014000001D204212CE01B4942181B498A4201D217
:10141000052125E0194A02448A4201D206211FE033
:10142000174A02448A4201D2072119E0154A0244B0
:101430008A4201D2082113E0134A02448A4201D2AF
:1014400009210DE0114A02448A4201D20A2107E033
:101450000F4A1044884201D20B2101E04FF0FF31C6
:101460000846704700C0FFF70080FFF70040FFF715
:101470000000FFF70000FEF7FFFF01000000FCF78F
:101480000000FAF70000F8F70000F6F70000F4F7A4
:101490000000F2F72DE9F0410446876D00F0B8FB3B
:1014A000064694F835000025022806D080206065A5
:1014B00084F834500120BDE8F0812068016821F0F3
:1014C000160101602068416921F080014161206CB2
:1014D00008B9A06C20B12068016821F00801016002
:1014E0002068016821F0010101600CE000F090FB30
:1014F000801B052807D920206065032084F835006B
:1015000084F83450D7E720680068C007EED194F81B
:101510005C103F208840B860012084F8350084F8D2
:1015200034500020C7E790F83510022903D08021FD
:10153000416501207047052180F835100068016879
:1015400021F0010101600020704700002DE9F843FF
:1015500004464FF00009CDF8009063484FF416514F
:10156000A56D0068B0FBF1F72E6894F85C100820B8
:1015700000FA01F131420FD021680A6852070BD5F9
:101580000A6822F004020A6094F85C108840A8609F
:10159000606D40F00100606594F85C104FF0010848
:1015A00008FA01F0304208D021684969090604D5DB
:1015B000A860606D40F00200606594F85C10042043
:1015C0008840304208D021680968890704D5A8609E
:1015D000606D40F00400606594F85C101020884055
:1015E000304218D021680968090714D5A86020681E
:1015F0000168490304D50068000308D5A16C07E021
:101600000168C90503D4016821F008010160216C5B
:1016100009B12046884794F85C1020208840304269
:1016200031D021680968C9062DD5A86094F8350025
:1016300005282068016806D0490347D500680003E3
:101640001DD4616C1CE021F0160101602068416925
:1016500021F080014161206C08B9A06C20B12068A4
:10166000016821F00801016094F85C103F20884077
:10167000A86084F8358084F83490216D1FE0E16B18
:1016800009B120468847606D00282BD0606DC007E7
:1016900014D0052084F835002068016821F001018C
:1016A00001600098401C0090B84203D82068006890
:1016B000C007F6D184F8358084F83490E16C0029B5
:1016C00010D001B02046BDE8F04308470168C905C5
:1016D000D5D4016821F01001016084F8358084F8C8
:1016E0003490CCE7BDE8F8832C0000202DE9F041D0
:1016F000044600F08DFA06465CB1022084F83500FD
:10170000002584F834502068016821F0010101604F
:101710000DE00120BDE8F08100F07AFA801B052879
:1017200005D920206065032084F83500F2E72068A1
:101730000068C007F0D12268116820480140D4E950
:1017400001031843D4E9033633431843636918434C
:10175000A3691843E3691843236A18430843616A7D
:10176000042903D1D4E90B131943084310602068FE
:101770004069666A20F0070130460E4301270428BD
:101780000CD1A06A0643E06A40B12046FFF714FA84
:1017900020B14020606584F83570BAE72068466162
:1017A0002046FFF7F5F994F85C203F2191408160D5
:1017B000656584F835700020ACE700003F8010F0CC
:1017C0002DE9F0410446866D90F83400002501288B
:1017D0000DD0012084F8340094F835700020012FDA
:1017E00007D084F8340002252846BDE8F0810220A5
:1017F000FBE7022784F8357060652046FFF706FA9C
:1018000094F85C103F208840B0602068016841F087
:1018100016010160206C20B12068016841F00801C8
:1018200001602068016841F001010160DCE700000F
:1018300070B5044600F0ECF90546601C02D004487F
:101840000078044400F0E4F9401BA042FAD370BDD4
:10185000200000202DE9F047044622480F46017E73
:1018600001290AD00121804601764CF250394846C0
:10187000FFF7BAFC020003D02FE00220BDE8F0879A
:101880004FF0FF3038602068174D012801D0A6685E
:101890001CE0207C6168FFF715FC4846FFF7A4FCBC
:1018A0000246286820F00400286014E0217C3046BD
:1018B000FFF7B6FB4846FFF797FC0200286820F0C8
:1018C0007A00286001D03E6005E0761CD4E9021061
:1018D0000844B042EAD8FFF7CBFB002188F8181083
:1018E0001046CBE700000020103C0240034801688E
:1018F00041F000410160002070470000103C0240B0
:101900002DE9F0471B4E05461446307E1F4689469A
:10191000012808D0012030764CF250384046FFF7BD
:1019200063FC18B114E00220BDE8F0879DB1012DE1
:1019300016D0022D19D022463B464846FFF7E6FB5B
:101940004046FFF751FC0C490A6822F001020A6088
:1019500000213176E8E7E1B24846FFF7C7FBEFE741
:10196000A1B24846FFF7E8FBEAE721464846FFF701
:10197000F5FBE5E700000020103C0240074900208D
:101980000A68002A09DA054A054B0C3A1360054B30
:1019900013600968002900DA01207047103C0240FA
:1019A00023016745AB89EFCD10B5022813D0042879
:1019B00010D10B4C201DE16988472088002809D0F0
:1019C000401E0004000C208004D1207C002801D09F
:1019D0000320207410BDBDE8104001F09FBF00003F
:1019E00008210020044910B50A68024202D00860AC
:1019F000FFF7DAFF10BD0000143C01402DE9F84F5D
:101A0000DFF8BCA10022012503264FF00F090AF1DF
:101A1000040BAAF1040E00BF0B6805FA02F4234080
:101A2000A34270D10F7907F00307012F01D0022FD5
:101A300016D187684FEA420806FA08FC27EA0C0725
:101A4000D1F80CC00CFA08FC4CEA070CC0F808C02E
:101A50004768A7430C79C4F3001494403C434460A6
:101A60000C79E443A4070AD0C4684FEA420C06FA92
:101A70000CF7BC438F6807FA0CF72743C7600C7953
:101A800004F00304022C12D1D40800EB840CDCF81F
:101A900020405707FF0E09FA07F824EA0804D1F896
:101AA000108008FA07F848EA0408CCF82080046897
:101AB0004FEA420C06FA0CF7BC430F7907F0030714
:101AC00007FA0CF7274307604C6814F4403F70D0C6
:101AD0003C4C276847F480472760246822F00307BE
:101AE00004F480440094384C07EB040CDCF80848FC
:101AF00097074FEA177809FA08F7BC43334FB84203
:101B000002D1002724E054E0314FB84201D101272F
:101B10001EE0304FB84201D1022719E02E4FB842E3
:101B200001D1032714E02D4FB84201D104270FE063
:101B30002B4FB84201D105270AE02A4FB84201D104
:101B4000062705E0284FB84201D1072700E0082703
:101B500007FA08F72743CCF80878DAF80040574628
:101B6000D1F804C09C435FEACC2C00D51C433C60F8
:101B7000DBF800405F46D1F804C09C435FEA8C2C40
:101B800000D51C433C60DEF800407746D1F804C025
:101B90009C435FEA8C3C00D51C433C60084F083FE7
:101BA0003C68D1F804C09C435FEACC3C00D51C43A0
:101BB0003C60521C102AFFF42FAFBDE8F88F0000E4
:101BC000083C01404438024000300140000002401F
:101BD0000004024000080240000C024000100240D5
:101BE0000014024000180240001C02400069084036
:101BF00000D001207047426921EA02030A4043EA0B
:101C00000241816170470AB1816170470904FBE7B5
:101C100001488068704700002000002070B5040073
:101C200013D021684CF6CC400860216845F255502D
:101C30000860D4E9000141602168A0688860FFF76E
:101C4000E7FF054641F601060DE0012070BD00BF2B
:101C5000FFF7DEFF401BB04205D92068C06880074F
:101C600001D0032070BD2068C0688007F0D12168D2
:101C70004AF6AA200860002070BD00684AF6AA2132
:101C8000016000207047000002488168027811441A
:101C900081607047200000200B4810B5016841F4B6
:101CA00000710160016841F480610160016841F4E4
:101CB00080710160032000F06FF80F2000F006F83B
:101CC00000F024F8002010BD003C024070B50D4D1E
:101CD00004464FF47A712878B1FBF0F00A4909689C
:101CE000B1FBF0F000F099FC48B9102C07D20022AB
:101CF0002146501E00F030F800206C6070BD0120BD
:101D000070BD0000200000202C0000200A4808B50B
:101D1000016841F480410160006800F48040009057
:101D20000548001F016841F080510160006800F023
:101D30008050009008BD000044380240002809DBB4
:101D400000F01F02012191404009800000F1E020D5
:101D5000C0F8001170470000F0B40E4B1B680C4631
:101D6000C3F30223C3F10705042D00D90425191D6F
:101D7000072901D2002300E0DB1E012606FA05F147
:101D8000491E214099409E40761E16403143F0BCCA
:101D900004F02EBB0CED00E0064900F007020868D5
:101DA0004FF6FF03184040EA0220034A1043086040
:101DB000704700000CED00E00000FA052DE9F04747
:101DC0000E46050065D0DFF81481D8F80000F7B2A0
:101DD00000F00700B04207D288F80070D8F8000081
:101DE00000F00700B04254D128683D4C810712D55D
:101DF000400703D5206840F4E050206028780007B1
:101E000003D5206840F4604020602068A96820F075
:101E1000F000084320602878C0072DD0304968685A
:101E20000839012812D0022813D0032811D00968DC
:101E3000890700292DDA216821F00301014321607F
:101E4000FFF7E6FE814641F2883A0EE00968890311
:101E5000EFE709688901ECE7FFF7DAFEA0EB09017B
:101E6000514502D90320BDE8F0872068696800F079
:101E70000C00B0EB810FEFD1D8F80010404601F014
:101E80000701B14207D90770006800F00700B042AF
:101E900001D00120E7E72878400705D52068E968E8
:101EA00020F4E050084320602878000706D5206819
:101EB000296920F4604040EAC100206000F038F851
:101EC0002168084AC1F30311515CC8400649086003
:101ED00006480068FFF7FAFE0020C4E7003C024015
:101EE00008380240806400082C00002024000020F4
:101EF0000448054900680968044AC1F38221515C1D
:101F0000C84070472C000020083802409064000848
:101F10000448054900680968044AC1F34231515C2C
:101F2000C84070472C000020083802409064000828
:101F3000154810B5006810F00C02144813D014496D
:101F4000042A0FD0082A0ED10F4C241F22682368C0
:101F500002F03F025B0207D52068C0F38810A0FBA7
:101F6000010106E0084610BD2168C1F38811A1FBFC
:101F700000010023FEF798F92168C1F30141491CD3
:101F80004900B0FBF1F010BD083802400024F40015
:101F900040787D012DE9F84F040070D02078DFF8FB
:101FA0005093C007A9F104054CD009F10400016861
:101FB000C1F38101012908D00068C0F38100022823
:101FC0000AD1D9F80000400206D52868800339D527
:101FD00060680028E1D035E06068B0F5803F12D03D
:101FE000B0F5A02F286812D020F48030286028682F
:101FF00020F48020286060684FF4FA67A8B1FFF7EA
:1020000007FE06460DE0286840F48030F2E740F411
:1020100080202860F7E700BFFFF7FAFD801BB84279
:1020200073D828688003F7D50CE0FFF7F1FD06466A
:1020300005E000BFFFF7ECFD801BB842F0D8286830
:102040008003F7D42078DFF8AC8280074FF0000AD5
:102050003ED5A748001D016811F00C0F08D000689C
:10206000C0F3810002280BD1D9F80000400207D448
:102070002868800716D5E068012800D112E033E116
:10208000E068B8B10120C8F80000FFF7C1FD0646BE
:1020900005E000BFFFF7BCFD801B0228C0D8286800
:1020A0008007F7D52868216920F0F80040EAC100D0
:1020B00028600DE0C8F800A0FFF7AAFD064604E07E
:1020C000FFF7A6FD801B02281FD828688007F7D4D9
:1020D0002078000722D5864E87486169703671B135
:1020E00001210160FFF794FD074604E0FFF790FD32
:1020F000C01B022809D830688007F7D50EE0C0F869
:1021000000A0FFF785FD074605E082E0FFF780FDB0
:10211000C01B02287DD830688007F7D4207840079C
:1021200068D5DFF8CCB100270BF13C0BDBF80000E1
:10213000C0000BD4DBF8001041F08051CBF8001048
:10214000DBF80000012700F0805000906B4E3068F3
:10215000C00510D4306840F480703060FFF758FD3F
:10216000009005E0FFF754FD0099401A022850D86E
:102170003068C005F6D55E4EA0686C3601280FD0D9
:102180000528306810D020F001003060306820F061
:1021900004003060A068B8B1FFF73AFD00900FE08E
:1021A000306840F00100F4E740F004003060F7E7E9
:1021B000FFF72EFD0099411A41F28830814266D81E
:1021C00030688007F4D50EE0FFF722FD009007E0AD
:1021D000FFF71EFD0099411A41F28830814256D81E
:1021E00030688007F4D42FB1DBF8001021F0805163
:1021F000CBF80010A069C8B33D49091D0968C1F3B7
:10220000810102294AD00228504607D0C8F8600050
:1022100000E03CE0FFF7FCFC04463BE04746C8F822
:102220006000FFF7F5FC064605E000BFFFF7F0FC95
:10223000801B02282BD828688001F7D4D4E9070135
:102240000843A16A2E4A490802EB0141626A41EA49
:102250008211084394F82C1040EA0161C9F800107B
:1022600001203866FFF7D4FC044606E03EE000BFDC
:10227000FFF7CEFC001B022809D828688001F7D59B
:1022800034E000BFFFF7C4FC001B022802D9032082
:10229000BDE8F88F28688001F4D427E00128F7D042
:1022A000D9F80000E26900F4800191421CD1226A51
:1022B00000F03F01914217D147F6C071626A0140B8
:1022C000B1EB821F10D1A26A4FF0FF3300F440310E
:1022D00003EB5202B1EB024F06D194F82C1000F040
:1022E0007060B0EB016F01D00120D1E70020CFE793
:1022F0000438024000004742800E47420070004010
:102300000000FFFF70B5040009D0606A002540B1ED
:1023100025616561A56294F8510040B10CE001208F
:1023200070BD6068B0F5827FF4D0E561F2E784F8B3
:102330005050204600F044F8022084F851002068F4
:10234000016821F040010160A088218900F48270B9
:1023500001F404410843A18901F400610843217C90
:1023600001F002010843217D01F001010843218BA6
:1023700001F400710843217F01F03801084394F80B
:10238000201001F080010843218D01F40051084321
:1023900021680860A069042101EA104094F8241023
:1023A00001F010010843216848602068C16921F4E8
:1023B0000061C1616565012084F85100002070BD95
:1023C000F0B587B0044614216846FEF77DF8324A1E
:1023D00025680021314802230324052695421AD19D
:1023E0002E4A1432156845F480551560126802F4BF
:1023F00080520592026842F001020260006802AA5F
:1024000000F00100059082E85200E020CDE90003D1
:10241000694623481DE0214A224F1032BD421CD19B
:10242000156845F480451560126802F480420592F3
:10243000026842F002020260006802AD00F0020091
:10244000059085E852004FF42040CDE9000369462D
:102450001548FFF7D3FA07B0F0BD144EB542FAD1D4
:10246000156845F400451560126802F400420592B3
:10247000026842F0040202600068CDE9021400F034
:10248000040005904FF4A050CDE90003062004900D
:1024900069460748DDE7000000300140303802405F
:1024A000000002400038004000040240003C0040B0
:1024B000000802402DE9F84F984616468A46044621
:1024C000FFF7A6FB814694F8510001281ED1BAF10E
:1024D000000F73D0002E71D094F85000012815D051
:1024E000012784F85070032084F8510000256565A9
:1024F000C4F830A0A686E686A563A587E58765644F
:102500002564A068B0F5004F03D00CE00220BDE8C0
:10251000F88F2068016821F040010160206801689F
:1025200041F48041016020680168490603D40168D4
:1025300041F040010160E068B0F5006F606803D0D1
:1025400048B3012E27D047E008B1012E1FD1206BE0
:1025500021680088C86006E020688168890709D57D
:10256000216B0988C160206B801C2063E08E401EB7
:10257000E0860CE0FFF74CFBA0EB0901414503D3DB
:10258000B8F1FF3F03D035E0B8F1000F32D0E08E54
:102590000028E1D123E0206B21680078087306E071
:1025A0002068816889070AD5216B09780173206B3F
:1025B000401C2063E08E401EE0860DE02BE0FFF71C
:1025C00027FBA0EB0901414503D3B8F1FF3F03D03E
:1025D00010E0B8F1000F0DD0E08E0028E0D14A469F
:1025E0004146204602F0D0FE08B120206065A06878
:1025F00030B109E084F8517084F85050032086E728
:102600002068C1688068009084F8517004F8505FB9
:1026100060680028F3D0012079E710B5401EB0F1C2
:10262000807F01D3012010BD4FF0E02460610F21B5
:10263000601703F0DDFE0020A0610720206100206C
:1026400010BD7047704710B590F83C20012A22D089
:10265000012280F83C20CA688C6822F44072224330
:102660004C6822F4806222430C6822F40062224308
:102670000C6922F4805222434C6922F40052224316
:10268000C969002322F480420A4301684A6480F841
:102690003C30002010BD022010BD000070B590F845
:1026A0003C20012A32D0012480F83C40022280F8EC
:1026B0003D2003685A689D6822F070060A6832431C
:1026C0005A60134B02689A4214D0B2F1804F11D075
:1026D000104B9A420ED0104B9A420BD00F4B9A429D
:1026E00008D00F4B9A4205D00E4B9A4202D00E4BA7
:1026F0009A4204D1496825F080031943916080F81B
:102700003D40002180F83C10084670BD022070BD9D
:10271000000001400004004000080040000C0040A0
:1027200000040140004001400018004010B50400C2
:1027300003D094F83D0010B107E0012010BD002047
:1027400084F83C00204600F01FF8022084F83D0089
:10275000211D206802F0AEFF012084F8460084F8B5
:102760003E0084F83F0084F8400084F8410084F87B
:10277000420084F8430084F8440084F8450084F85B
:102780003D00002010BD000038B505463A490368F9
:1027900000203A4A8B4205D1106840F001001060D9
:1027A000106838E03549091FB3F1804F2ED0344C02
:1027B000A34234D10A6842F002020A600968324C2E
:1027C00001F0020100912F4921604FF0206161600A
:1027D0004021C4E9021009012161490061618900B9
:1027E000C4E90610206260622046FEF77FFF08B150
:1027F000FEF704FCAC62002211461D20A563FFF722
:10280000ABFABDE838401D20FFF798BA086840F0E1
:1028100001000860086800F00100009038BD1B4806
:10282000834207D1086840F008000860086800F09B
:102830000800F2E71648834207D1086840F02000FC
:102840000860086800F02000E7E71248834207D1DB
:10285000106840F480301060106800F48030DCE7CD
:102860000D488342DAD1106840F4003010601068DF
:1028700000F40030D1E7000000000140443802407D
:102880000004004088600240D4040020000C004096
:1028900000140040004001400044014090F83D1009
:1028A000012901D001207047022180F83D10006805
:1028B0001149884214D0B0F1804F11D00F4988429D
:1028C0000ED00F4988420BD00E49884208D00E49DD
:1028D000884205D00D49884202D00D49884204D172
:1028E000816801F00701062903D0016841F0010168
:1028F000016000207047000000000140000400401B
:1029000000080040000C004000040140004001406D
:102910000018004070B5044690F83C0000250128DE
:1029200017D0012684F83C60022084F83D0020681E
:10293000826822F0770222F47F4282600868502881
:1029400038D00DDC20284FD005DC90B3102811D1F1
:102950004AE0022070BD302846D040280AD13BE032
:1029600060282FD070280DD0B0F5805F03D0B0F56F
:10297000005F12D0012584F83D60002084F83C00FF
:10298000284670BDCB68D1E90121206802F07CFFA8
:102990002068816841F0770109E0CB68D1E9012125
:1029A000206802F071FF2068816841F480418160F5
:1029B000E1E719E0CA684968206803F039F8502156
:1029C000206806E0CA684968206803F042F8602180
:1029D000206802F063FFCEE7CA684968206803F008
:1029E00027F840212068F4E7226801461046F0E706
:1029F0002DE9F0410D46040003D094F83D0018B1D4
:102A000008E00120BDE8F081002084F83C00204669
:102A100000F040F8022084F83D002068816844F20C
:102A2000070291438160211D206802F043FE226865
:102A300090689169166A2B68AF69034340F20330CE
:102A4000814341EA0721A868EF6908434FF6FC413A
:102A50008843E96840EA0720014328692F6A00019A
:102A600040EA0730084369686D6926F0AA0646EA1D
:102A70000515294393602268906154F8460B016262
:102A8000012004F81F09E0752076E0762077A07514
:102A90000020B7E710B586B0044614216846FDF75C
:102AA00013FD1349206888421FD112480021026893
:102AB00042F004020260006800F0040005900D4836
:102AC0001038026842F008020260006800F0080056
:102AD00005904FF4405000900220CDE90101CDE96E
:102AE000031069460448FEF789FF06B010BD0000D8
:102AF0000008004040380240000C024070B590F8D9
:102B00003E60044690F83F5090F8423090F84320E1
:102B1000022021B104290ED0012E1BD114E0012E78
:102B200018D1012B16D184F83E0084F8420001220E
:102B30000021206820E0012D0CD1012A0AD184F85F
:102B40003F0084F8430014E0012D03D1012B01D193
:102B5000012A01D0012070BD84F83E0084F83F00B6
:102B600084F8420084F8430001220021206802F02A
:102B700009FE01220421206802F004FE2068016899
:102B800041F001010160002070BD704770472DE9E0
:102B9000F04104460068C66805694FF00007A907C0
:102BA00013D5B10711D5F91E0161012020772068E6
:102BB00080698007204602D0FFF7E8FF04E000F0BC
:102BC0003CF9204600F0FCF92777680716D5700716
:102BD00014D521686FF00400086102202077206876
:102BE000806910F4407F204602D0FFF7CFFF04E059
:102BF00000F023F9204600F0E3F92777280715D5E0
:102C0000300713D521686FF0080008610420207791
:102C10002068C0698007204602D0FFF7B7FF04E0B4
:102C200000F00BF9204600F0CBF92777E80616D51F
:102C3000F00614D521686FF0100008610820207795
:102C40002068C06910F4407F204602D0FFF79EFF45
:102C500004E000F0F2F8204600F0B2F92777E80728
:102C600008D0F00706D021686FF001000861204607
:102C700000F052FB280608D5300606D521686FF013
:102C8000800008612046FFF7DCFC680608D5700666
:102C900006D521686FF040000861204600F03DFB3A
:102CA000A8060AD5B00608D521686FF02000086193
:102CB0002046BDE8F041FFF7C5BCBDE8F08100004B
:102CC000F0B587B0044614216846FDF7FDFB246883
:102CD0003B4800233B49022201253B4E844210D150
:102CE000086840F0100008600868694600F01000AD
:102CF00005904FF420608DE80D00CDE90335304696
:102D000024E03248B4F1804F12D0314F0325BC4249
:102D100020D1086840F0040008600868694600F0A7
:102D20000400059080208DE82D002A4804920DE0D3
:102D30000C6844F001040C6009680095CDE901239A
:102D400001F00101CDE90451039313E0FEF756FEB3
:102D500007B0F0BD204FBC420ED10C6844F0010416
:102D60000C60096801F0010105910E218DE80E004B
:102D7000039204926946E9E7184884420DD1086835
:102D800040F0100008600868694600F010000590E7
:102D900060208DE80D0030460FE011488442D7D105
:102DA000086840F0020008600868694600F0020008
:102DB0000590A0158DE80D000A48CDE90325C5E76B
:102DC0000000014030380240001002400000024084
:102DD0000004004000080240000C00400040014098
:102DE000004401400004024070B5044690F83C00E5
:102DF000002501280FD0012084F83C006AB1042A84
:102E00000FD0082A11D00C2A13D00125002084F8F5
:102E10003C00284670BD022070BD206802F046FDCF
:102E2000F4E7206802F072FDF0E7206802F0A4FDEC
:102E3000ECE7206802F0D4FDE8E7704710B5040025
:102E400003D094F83D0010B107E0012010BD002030
:102E500084F83C00204600F01EF8022084F83D0073
:102E6000211D206802F026FC012084F8460084F829
:102E70003E0084F83F0084F8400084F8410084F864
:102E8000420084F8430084F8440084F8450084F844
:102E90003D00002010BD704770B5044690F83C001E
:102EA00000260D4601280FD0012084F83C006AB1AD
:102EB000042A1DD0082A2FD00C2A3FD0012600203A
:102EC00084F83C00304670BD022070BD206802F0DE
:102ED000EDFC2068816941F0080181612068816909
:102EE00021F004018161206881692A69114311E0A0
:102EF000206802F00BFD2068816941F40061816166
:102F00002068816921F480618161206881692A6972
:102F100041EA02218161D2E7206802F02DFD20689C
:102F2000C16941F00801C1612068C16921F0040153
:102F3000C1612068C1692A69114311E0206802F06B
:102F40004FFD2068C16941F40061C1612068C16919
:102F500021F48061C1612068C1692A6941EA0221C6
:102F6000C161ACE710B5040003D094F83D0010B186
:102F700007E0012010BD002084F83C00204600F04E
:102F80001EF8022084F83D00211D206802F092FB0B
:102F9000012084F8460084F83E0084F83F0084F85D
:102FA000400084F8410084F8420084F8430084F82B
:102FB000440084F8450084F83D00002010BD7047AF
:102FC0007047704710B50446022249B104290ED05B
:102FD000082913D094F84100012816D0012010BD13
:102FE00094F83E000128F9D184F83E200FE094F8CF
:102FF0003F000128F2D184F83F2008E094F8400017
:103000000128EBD184F8402001E084F8412001221E
:10301000206802F0B7FB16492068164A884201D0A2
:10302000904203D1436C43F40043436420688842D8
:1030300013D0B0F1804F10D00F4988420DD00F4906
:1030400088420AD00E49884207D0904205D00D49E7
:10305000884202D00C49884204D1816801F00701FE
:10306000062903D0016841F001010160002010BD74
:10307000000001400004014000040040000800403E
:10308000000C004000400140001800402DE9F041D4
:1030900017460D0004464FF000060CD0042D11D049
:1030A000082D16D094F84100022819D094F8410058
:1030B000012818D07CE094F83E00022810D094F843
:1030C0003E00F5E794F83F00022809D094F83F004D
:1030D000EEE794F84000022802D094F84000E7E7B9
:1030E0000220BDE8F081002F62D0002B60D04D4956
:1030F0004D4ADFF838C102204DB1042D18D0082DFB
:1031000027D084F841000C2D44D0012687E084F8B4
:103110003E00606AC163606A39460264606AC0F852
:103120004CC02268606A3432FEF74AFB88BB21E05B
:1031300084F83F00A06AC163A06A39460264A06AAD
:10314000C0F84CC02268A06A3832FEF739FB00BBD9
:1031500015E084F84000E06AC163E06A3946026421
:10316000E06AC0F84CC02268E06A3C32FEF728FBF7
:1031700078B909E02068C16841F400711EE0206858
:10318000C16841F4806119E02068C16841F40061C0
:1031900014E00DE0206BC163206B39460264206BA4
:1031A000C0F84CC02268206B4032FEF709FB08B122
:1031B000012096E72068C16841F48051C160012276
:1031C0002946206802F0DEFA19492068194A884227
:1031D00001D0904203D1436C43F400434364206820
:1031E000884213D0B0F1804F10D0134988420DD0DF
:1031F000124988420AD01249884207D0904205D02D
:103200001049884202D01049884204D1816801F0F7
:103210000701062903D0016841F001010160304631
:103220005FE700009F570008FD5700083558000869
:10323000000001400004014000040040000800407C
:10324000000C0040004001400018004070B50D0027
:1032500004464FF0000607D0042D0CD0082D11D0E5
:103260000C2D16D0012648E02068C16821F40071B9
:10327000C160606A13E02068C16821F48061C160A8
:10328000A06A0CE02068C16821F40061C160E06AB6
:1032900005E02068C16821F48051C160206BFEF711
:1032A00042F900222946206802F06CFA184B41F2DC
:1032B000111120688A10984202D0164B984209D109
:1032C000036A0B4206D1036A134203D1436C23F411
:1032D000004343642068036A0B4206D1016A11422D
:1032E00003D1016821F00101016001203DB1042DED
:1032F00008D0082D09D084F84100304670BD84F80C
:103300003E00FAE784F83F00F7E784F84000F4E76E
:103310000000014000040140704770477047000002
:10332000016882B00A684968009103498A8809687F
:1033300002B000F0F7B9000080200020F8B5016865
:1033400004460868CA684B6910F00F0F4FF000057B
:1033500059D003F0010602F49077374365D0C107D6
:1033600005D0D10503D5616C41F0010161644107CD
:1033700005D5D90703D0616C41F002016164810772
:1033800005D5D90703D0616C41F0040161640107E0
:1033900007D502F02001314303D0616C41F00801F0
:1033A0006164616C00293AD0800604D5900602D58C
:1033B000204602F013FC20684069616CC0F3801065
:1033C000090700D460B3204602F0D3FB20684069AF
:1033D000400621D52068143050E8001F21F040013C
:1033E00040E80012002AF5D1E06BA8B172490165EE
:1033F000E06BFEF798F8002811D0E06B016D01B08A
:10340000BDE8F040084783060FD593060DD520464A
:10341000BDE8F84002F0E2BB2046FFF781FFF8BDAF
:103420002046FFF77DFF6564F8BD266B2023012E43
:103430007ED1C6067CD5D6067AD508684868009045
:1034400048694FF0020640064DD5E26B10684068AF
:103450004FF480770004000C3AD0A18D814237D917
:10346000E085D069B8422DD020680C3050E8001FAC
:1034700021F4807140E80012002AF5D12068143050
:1034800050E8001F21F0010140E80012002AF5D1A8
:103490002068143050E8001F21F0400140E800127D
:1034A000002AF5D184F84230256320680C3050E8BA
:1034B000001F21F0100140E80012002AF5D1E06B56
:1034C000FDF7E8FF6663A08DE18D401A81B206E04A
:1034D000A18D8142A8D1D069B842A5D166632046AA
:1034E000FFF71CFFF8BDA08DE18D401A81B2E08D81
:1034F0000028F7D00029F5D020680C3050E8002FC4
:1035000022F4907240E80027002FF5D12068143093
:1035100050E8002F22F0010240E80027002FF5D1EB
:1035200084F84230256320680C3050E8002F00E01A
:1035300006E022F0100240E80023002BF3D1CDE793
:1035400005062BD5150629D594F841002128C9D1A7
:10355000A068B0F5805F01D12069B0B1206A411C3C
:103560002162216800784860E08C401E0004000C55
:10357000E084B7D12068C16821F08001C160206873
:10358000C16841F04001C160F8BD206A0088C0F305
:1035900008004860206A801C2062E5E74006F3D5F9
:1035A0005006F1D5CA68204622F04002CA6084F86D
:1035B000413000F017F9F8BD775A000870B50400E3
:1035C00004D094F84100002510B106E0012070BD40
:1035D00084F84050204600F023F8242084F841006D
:1035E0002068C16821F40051C160204602F058FBF8
:1035F0002068016921F4904101612068416921F04E
:103600002A0141612068C16841F40051C1606564CC
:10361000202084F8410084F842006563002070BDDA
:10362000F0B587B0064614216846FCF74DFF364FCB
:10363000306800253549022203230724B84239D1D6
:1036400032481430076847F010070760006800F040
:1036500010000590086840F001000860086869469D
:1036600000F00100059058028DE82500CDE90334F3
:103670002748FEF7C3F9284C264820604FF0006029
:10368000C4E901054014C4E9035080106561C4E930
:103690000650256220466562FEF728F808B1FDF75E
:1036A000ADFCF463002211462520A663FEF754FB0F
:1036B000252024E0194EB04223D11448103006686A
:1036C00046F480260660006800F4802005900868B3
:1036D00040F0020008600868694600F002000590AA
:1036E0004FF440608DE82500CDE903340C48FEF727
:1036F00085F9002211462720FEF72EFB2720FEF732
:103700001DFB07B0F0BD0000001001403038024042
:103710000000024040640240C40500200048004010
:103720000004024090F84230202B01D00220704764
:1037300021B11AB10023036302F038BB01207047A6
:10374000704770472DE9F843044690F841009846C9
:1037500016460D46202802D00220BDE8F88385B128
:103760007EB100206064212084F84100FEF750FA09
:10377000A6848146E684A0682027B0F5805F02D049
:1037800003E00120E9E7206910B12E4600250EE094
:1037900000260CE08021204602F058FBA8B9C6B1F3
:1037A00016F8010B21684860E08C401EE084E08C34
:1037B0004B464FF00002CDF800800028EAD14FF0D0
:1037C0004001204602F042FB40B184F841700320E2
:1037D000C3E735F8020BC0F30800E3E784F8417053
:1037E0000020BAE77047FEE72DE9F04F0024DFF82C
:1037F0005880DFF85890DFF858A0164F87B00126A0
:103800004FF0320BCDF81090CDE905860F2112480C
:10381000CDE9001BCDE9026A30F814300830A1B2BE
:1038200050F82420C4EB041007EB8000054600F09C
:10383000DDF80848F03040F82450641C042CE1DB2B
:1038400007B0BDE8F08F0000D53800085D380008EB
:103850000D390008B82100207C0000203EB5044648
:1038600004282AD21549012551F82400027B72B997
:1038700005731348B0F81520ADF80020C07D8DF811
:10388000020051F82400FF220099036998470D486F
:10389000015D002911D105550B48641C07C88DE84E
:1038A000070008488DF807400221001DFDF7AFFB17
:1038B000064A6946064802F05CFD3EBD1C01002038
:1038C0003000002074000020B0640008B40600201E
:1038D0006C20002082B0042812D20A49002251F83C
:1038E00020301A73084A138BADF80030927E8DF8A1
:1038F000022051F8200000990022036902B0184705
:1039000002B070471C01002030000020704700000A
:1039100008210148FDF77FBB4C01002010B50221B2
:103920001248FEF763F9124A00210028114C106872
:1039300015D0406A642811D9208800280ED0401E76
:103940002080A17004210C48FDF765FB2088002829
:1039500004D1E07E002801D00320E07610BD416252
:10396000201DA16ABDE81040084700000008024081
:10397000FC030020D82000204C01002010B5044694
:10398000008808440004000C208006D00120E07666
:10399000FEF73EF960610020A07010BD10B56AB15D
:1039A00061B1002308E000BF50F82340944201D1E8
:1039B000012010BD5B1CDBB28B42F5D3002010BD93
:1039C00010B5FFF711FFFCF735FE01F0C7FD01212F
:1039D0000448FDF71CFBBDE8104002210248FDF73A
:1039E00016BB00004C010020780000202DE9F047B4
:1039F0000400DDE90DA5DDE90B96DDE909C7DDF879
:103A000020801BD0218062602381CDB10020A07274
:103A1000E072C4E9038CFEF7FBF86061FEF7F8F88A
:103A2000A0610020E06184F82000FEF7F1F8243462
:103A3000A4E8810264E80C6A84F83850BDE8F08795
:103A40000120E4E7FEB504460A2854D22A4D052C8D
:103A50000BD805F1240007C88DE80700601C8DF81D
:103A600007006946254802F005FC062C07D0072C04
:103A700041D104212248FDF7C3FA90B121E0012190
:103A80001F48FDF7BDFA002835D14FF480511D487D
:103A9000FDF7C1FA03B00121BDE8F0401848FDF779
:103AA000BABA05F1300007C88DE807006946134827
:103AB00002F0E0FB14490020088004211048FDF7C3
:103AC000AAFA0F4E03243436A6F1180736F814105C
:103AD00057F82400FEF78AF801280CD0641CE4B2E1
:103AE000062CF3D33C3595E807008DE807006946BE
:103AF000024802F0BFFBFEBDA46400086C20002059
:103B0000780000204C010020082100200A2809D25A
:103B1000062805D0072805D104210348FDF777BA08
:103B20000121FAE770470000780000202DE9F041FC
:103B30000F46050078D00024A04694E055F82400F4
:103B4000002872D001894068FEF750F855F824101B
:103B5000C872FEF75DF8064655F82400C27A90F860
:103B600038108A4204D1837A8B4201D0466174E0D6
:103B70008A423CD0837A8B4239D1866155F8241031
:103B80004869864201D3301A02E0C043401C3044E9
:103B9000C86155F82400C268C169914224D390F8E5
:103BA000201011B102290ED057E0012180F8201019
:103BB00055F82400C16A09B10088884755F82410D7
:103BC00081F8208007E080F8208055F82400416BC0
:103BD00009B10088884755F824008169416155F88A
:103BE00024008169416238E08169416135E08A429F
:103BF00031D14169711AC16155F8240002699142BD
:103C00002BD390F8201011B102290FD025E002210A
:103C100080F8201055F82400016B09B1008888470E
:103C200055F82400466218E020E01AE0816A79B174
:103C30004FF47A72B2FBF1F1426AB21A91420CD897
:103C4000466255F82400016B39B10088884704E0CA
:103C50004FF0FF31F0E780F8208055F82400C17A5A
:103C60008172641CA4B2BC42FFF468AFBDE8F0816D
:103C70003EB504460A2822D2052C0AD8104A07CAA3
:103C80008DE80700601C8DF8070069460D4802F0BA
:103C9000F1FA072C0AD0082C0FD0092C0FD10221E1
:103CA00003B00948BDE83040FDF7B5B907485A21CF
:103CB000426903B0BDE8304010470121F0E73EBD46
:103CC000BC6400086C2000204C0100206C21002006
:103CD0000EB5FDF79DFF42F21071884203D9042111
:103CE0001748FFF723FF0A211648FFF71FFF0C2193
:103CF0001548FFF71BFF02211448FDF781F9002842
:103D00001DD11249091F0A5C1AB1401CC0B2042817
:103D1000F9D3042813D10E490E4A0520C87607CAE4
:103D20008DE807000C4A69460C4802F022FBFDF7BB
:103D30006FFF0B49086002210448FDF76CF90EBDC6
:103D4000A82200201025002008280020780000204C
:103D5000D8200020EC640008B40600206C2000206D
:103D60002C01002010B5029C01608280C3800021DC
:103D7000846001730149016110BD0000253F000806
:103D80002DE9FC41044616460F46DDE9081094F87B
:103D900020200A9D012A0ED1002284F82020CDE99E
:103DA000001032463946204601F02BF9324639469A
:103DB000204600F0B5FF002D02D0012084F820003D
:103DC000BDE8FC811FB54D4903234B4AA1F16000BA
:103DD0008DE80F0020230422494900F5F66000F029
:103DE0007DFF0220474C0090234604224649474865
:103DF000FCF7CDFB042000904448234608224249AA
:103E00001830FCF7C4FB08200090404823460C22E1
:103E10003D493030FCF7BBFB202000903C4C3B4838
:103E2000234600223B494830FCF7B1FB402000907C
:103E300036482346042237496030FCF7A8FBA0151A
:103E400000903248344B002234497830FCF79FFB15
:103E50002E4802222146903000F0DCFE2B49002043
:103E6000243901F023F92949012001F01FF92749DC
:103E70000120183101F01AF924490120303101F0F4
:103E800015F922490120483101F010F91F4901209C
:103E9000603101F00BF91D490120783101F006F97C
:103EA0001A490220903101F001F918491C4C2439BB
:103EB0000723002201F1C0000094FFF753FF1349CC
:103EC0000F232439082201F1D4000094FFF74AFFA0
:103ED0000E4917232439102201F1E8000094FFF75E
:103EE00041FF0A491F232439182201F1FC000094E4
:103EF000FFF738FF1FBD00000001002098280020B8
:103F00002403002000000240B40300200C300020F5
:103F10000010024044040020000402408C040020F1
:103F2000A42100207CB50446006815460E46C069F1
:103F300001F0C8FA002812D0A068E9B23346007830
:103F4000CDE90001E288A188206801F05AF8E288F2
:103F5000A188206802B0BDE8704000F0E1BE7CBDE1
:103F60007FB51648007828B1022825D1BDE87F40EA
:103F700000F072BE124DFF2200212878CDE9000228
:103F8000104802912022B0F81510ADF80C10C07D39
:103F90008DF80E0000210C48039BFFF7F1FE0B4E3D
:103FA00000242A7956F82400FF230021FCF70FFB98
:103FB000641CE4B2062CF4D37FBD0000460100204F
:103FC000A421002030000020E82F00200401002060
:103FD000F0B503460D46408919891446884201D33D
:103FE0000220F0BD2946184600F062F808B1012011
:103FF000F0BD0020024605211E8908E000EB400CC0
:104000001F6801EB8C0C17F80C7027B1401C86421E
:10401000F4DC0320F0BD00EB40001F6801EB8001E1
:1040200001267E54196811EB8000F2D005710460FE
:104030008260596811B9586004E011468A68002A04
:10404000FBD188605889401C58810020F0BD016078
:104050000021416002814181704710B54489426866
:1040600000230CBB022010BD14798C421AD1916838
:10407000B3B199600368D11A0C2291FBF2F10029C7
:1040800009DB02898A4206DD002201EB4101052499
:1040900004EB81015A544189491E4181002010BD21
:1040A0004160E7E713469268002ADDD1012010BD88
:1040B000406805E002798A4201D10120704780689A
:1040C0000028F7D170470000114808B5016841F495
:1040D00000110160016801F400110091016841F4D0
:1040E000800101600068002200F480000090114609
:1040F0001020FDF731FE1020FDF720FE00221146B2
:104100003A20FDF729FEBDE808403A20FDF716BE2B
:10411000303802402DE9F04F87B014216846FCF793
:10412000D3F962480024016841F010010160016880
:1041300001F010010591016841F00401016001687E
:1041400001F004010591016841F0800101600168FE
:1041500001F080010591016841F0010101600168F1
:1041600001F001010591016841F00201016001685F
:1041700001F002010591016841F008010160006849
:10418000DFF82C9100F00800012205905103484609
:10419000FDF739FD00224FF448414846FDF733FD55
:1041A00048F21006002231464248FDF72CFDDFF8A8
:1041B00008A140F20247002239465046FDF723FD90
:1041C000DFF8F8B04FF4A048002241465846FDF70A
:1041D0001AFD4FF4684000900125CDE9015469466D
:1041E00048460394FDF70AFC40F20930CDE900048B
:1041F000694648460294FDF701FC062000904FF402
:104200008810CDE9010469464846FDF7F7FB0096A2
:10421000CDE90154694627480394FDF7EFFB7E2062
:10422000CDE90004694658460294FDF7E7FB4FF4D8
:10423000C070CDE90004694650460294FDF7DEFBEC
:104240000097CDE90154694650460394FDF7D6FB2B
:10425000CDF80080CDE90154694658460394FDF736
:10426000CDFB44F6FF70CDE9000469461448029482
:10427000FDF7C4FB2802CDE9000469460D4802940D
:10428000FDF7BCFB002211460720FDF765FD072066
:10429000FDF754FD002211460820FDF75DFD0820C2
:1042A000FDF74CFD07B0BDE8F08F0000303802404C
:1042B00000080240000002400010024000040240DA
:1042C000000C0240094810B5074901600321416014
:1042D00040F6B8318160FDF7A1FC002803D0BDE8AD
:1042E0001040FCF78BBE10BD003000408001002064
:1042F0000F4810B50D4901604FF4827141600021F3
:104300008160C1604FF400720161C0E90512C161B2
:104310000162416281620A21C162FDF7F3FF002858
:1043200003D0BDE81040FCF769BE10BD003001406D
:104330008C010020114810B50F4901604FF48271C3
:1043400041604FF40041816000210222C0E9031264
:1043500001224261520282613822C0E90721416292
:1043600081620A21C162FDF7CDFF002803D0BDE8BC
:104370001040FCF743BE10BD00380040E4010020AF
:10438000104810B50E4901604FF4827141604FF43E
:10439000004181600021C1604FF400720161C0E9F9
:1043A0000512C1610162416281620A21C162FDF7A9
:1043B000A9FF002803D0BDE81040FCF71FBE10BDC8
:1043C000003C00403C02002010B588B01C2168462B
:1043D000FCF77AF8154814490024C0E900144FF698
:1043E000FF71C0E90241802104618161FEF79EF9FD
:1043F00008B1FCF703FE0D48FEF7B4FD08B1FCF769
:10440000FDFD6020CDE900040294002269460748C2
:104410000494FEF741FD08B1FCF7F0FD0348FEF7F8
:104420004FFC08B010BD0000004401408C04002087
:1044300010B596B000240F94109411941294139414
:104440001C2168461494FCF73FF8202107A8FCF7CC
:104450003BF82C482A49C0E900144FF6FF71C0E927
:10446000024180210461C0E90541FEF75FF908B10E
:10447000FCF7C4FD4FF480500F900FA92148FEF7C0
:1044800049FA08B1FCF7BAFD1E48FEF76BFD08B10A
:10449000FCF7B4FD139413A91A481494FEF7FEF820
:1044A00008B1FCF7ABFD6020CDE900040294039451
:1044B000049405940022694612480694FEF7ECFC29
:1044C00008B1FCF79BFD042269460E48FEF7E4FCA8
:1044D00008B1FCF793FD0794089409944FF4005039
:1044E0000A94CDE90B4007A906480E94FEF7ABF8F5
:1044F00008B1FCF783FD0348FEF7E2FB16B010BDE0
:10450000000001409402002010B58EB000240794F2
:10451000089409940A940B941C2168460C94FBF7A8
:10452000D3FF1F484FF08041016040F21F31C0E9C6
:10453000011440F63301C0E9031480218161FEF7C4
:10454000F5F808B1FCF75AFD4FF48050079007A921
:104550001348FEF7DFF908B1FCF750FD1048FEF7ED
:1045600001FD08B1FCF74AFD0B940BA90C480C9413
:10457000FEF794F808B1FCF741FD6020CDE9000496
:10458000022002900022694604940548FEF784FC4C
:1045900008B1FCF733FD0248FEF792FB0EB010BDE8
:1045A000DC02002010B58EB0002407940894099412
:1045B0000A940B941C2168460C94FBF785FF1E4857
:1045C0001C4901600621C0E901140E21C0E9031451
:1045D00080218161FEF7AAF808B1FCF70FFD4FF4C6
:1045E0008050079007A91448FEF794F908B1FCF72A
:1045F00005FD1148FEF7B6FC08B1FCF7FFFC0B9473
:104600000BA90D480C94FEF749F808B1FCF7F6FC2D
:104610006020CDE90004029404226946064804940F
:10462000FEF73AFC08B1FCF7E9FC0348FEF748FB4B
:104630000EB010BD000400402403002010B58CB063
:1046400024216846FBF740FF0024174809941549C8
:104650000A94C0E900144FF6FF71C0E902418021BD
:104660000461816101200221CDE90001CDE902044C
:104670000922CDE90421CDE90604694608920A48D9
:10468000FEF7B6F908B1FCF7B9FC099409A9064888
:104690000A94FEF703F8002801D0FCF7AFFC0CB039
:1046A00010BD0000000800406C03002010B58EB063
:1046B00000240794089409940A940B941C216846DA
:1046C0000C94FBF701FF29482749C0E90014611E3B
:1046D000C0E90241802104618161FEF727F808B139
:1046E000FCF78CFC4FF48050079007A91F48FEF799
:1046F00011F908B1FCF782FC1C48FEF733FC08B145
:10470000FCF77CFC1948FEF799FB08B1FCF776FC36
:104710000B940BA915480C94FDF7C0FF08B1FCF7EA
:104720006DFC6020CDE900040294042269460F4824
:104730000494FEF7B1FB08B1FCF760FC082269465F
:104740000A48FEF7A9FB08B1FCF758FC0C226946A1
:1047500006480094FEF748FB08B1FCF74FFC0348FD
:10476000FEF7AEFA0EB010BD000C0040B4030020FE
:104770001CB500240F4800940D4901940160532199
:10478000C0E901144FF6FF71C16080218161FDF71E
:10479000CDFF08B1FCF732FC00946946054801944E
:1047A000FDF77CFF002801D0FCF728FC1CBD0000B1
:1047B00000140040FC03002010B58CB000240794C6
:1047C000089409941C2168460A94FBF77DFE1E4854
:1047D0001C49C0E900144FF6FF71C0E90241802175
:1047E00004618161FDF7A2FF08B1FCF707FC4FF4FB
:1047F0008050079007A91448FEF78CF808B1FCF721
:10480000FDFB1148FEF7AEFB08B1FCF7F7FB60209B
:10481000CDE900040294002269460B480494FEF797
:104820003BFB08B1FCF7EAFB042269460648FEF7A9
:1048300033FB08B1FCF7E2FB0348FEF741FA0CB08A
:1048400010BD000000400140440400200C4810B599
:104850000A4901604FF4E1314160002181600C227E
:10486000C160C0E904128161C161FEF7A7FE0028A2
:1048700003D0BDE81040FCF7C1BB10BD00100140E3
:10488000340500200C4810B50A4901604FF4E131AD
:104890004160002181600C22C160C0E90412816185
:1048A000C161FEF78BFE002803D0BDE81040FCF785
:1048B000A5BB10BD004800407C05002010B5FCF7EA
:1048C00061F82A48FDF7D9F900F088F82748FDF784
:1048D000D4F9FFF7FDF92548FDF7CFF9FCF774F897
:1048E0002248FDF7CAF9FDF793F9214C6168401A97
:1048F000B0F5FA7F07D94FF400511E48FDF77BF958
:10490000FDF786F960601948FDF7B7F9FFF728FB56
:104910001648FDF7B2F9FDF77BF9A168401A0A289D
:1049200005D91548416A8847FDF772F9A0600F481C
:10493000FDF7A3F902211148FCF762FB60B1FDF716
:1049400067F92168401AB0F5FA5F05D90C490120D2
:104950000873FDF75DF920600448FDF78EF9FCF758
:104960006BFCBDE810400148FDF787B980010020CD
:104970002C01002000080240F830002078000020C0
:104980004C21002010B5FCF76DFCFFF719F8FCF77F
:1049900053F9FFF717FAFCF77BFABDE81040FBF775
:1049A00009BFFEE72DE9F0410B4F7D68FDF730F9B7
:1049B000064600240AE02868301AFA2803D9297923
:1049C0000548FFF74AFBAD68641CE4B27889A04251
:1049D000F1D8BDE8F0810000C00600203EB54FF4DC
:1049E000805421464148FCF70BFB40B13F49404809
:1049F0001C3101F03FFC21463C48FCF708FB4FF41A
:104A0000006421463948FCF7FBFA40B13749384881
:104A1000283101F02FFC21463448FCF7F8FA012137
:104A20003248FCF7EDFA48B13049324A091D3048A6
:104A300001F09FFC01212D48FCF7E9FA02212B48E7
:104A4000FCF7DEFA48B129492A4A1031284801F01A
:104A500090FC02212548FCF7DAFA08212348FCF7EC
:104A6000CFFA18B108212148FCF7D1FA10211F48CC
:104A7000FCF7C6FA002470B11E480094CDE901404D
:104A80001D48082200210388194801F05FFC10210D
:104A90001648FCF7BCFA04211448FCF7B1FA60B1DF
:104AA000164800940194038805220021104801F063
:104AB0002DFC04210D48FCF7AAFA4FF48045294645
:104AC0000A48FCF79DFA58B1002200940C4B11469D
:104AD0000748019401F01AFC29460448FCF797FAAC
:104AE00000F028FBBDE83E40FFF75CBF4C01002012
:104AF0006C200020B406002008210020D8200020CF
:104B0000D925350110B50468002061B104290CD005
:104B100008290CD0206463B1042B0DD01168082B38
:104B20000DD0086410BD6063F5E7A063F3E7E063B0
:104B3000F1E71168486310BD1168886310BDC86350
:104B400010BDF0B5C568DDE9057C64267D43B5FB85
:104B5000F6F500240068BCF1000FADB20DD041B3F2
:104B6000042928D0082928D0046443B3042B29D071
:104B70001068082B29D00564F0BD61B104290CD060
:104B800008290CD0056463B1042B0DD01068082BE4
:104B90000DD00464F0BD4563F5E78563F3E7C563B5
:104BA000F1E710684463F0BD10688463F0BDC4632E
:104BB000F0BD4463D9E78463D7E7C463D5E71068E1
:104BC0004563F0BD10688563F0BDC563F0BD10B5E9
:104BD000C468006869B104290DD008290DD00464A7
:104BE0006BB1042B0FD01168D068082B0FD008646C
:104BF00010BD4463F4E78463F2E7C463F0E711682F
:104C0000D068486310BD1168D068886310BDC86360
:104C100010BDFEE701608280012101720021417216
:104C2000704710B50446007A012803D10020207295
:104C30006072E080E08890420AD3607A002807D151
:104C4000A3880A4619462068FCF7DDFF0120607240
:104C500010BD7047704700007FB5144D144E0024FE
:104C60002A7956F82400FF230021FBF7B0FC641CCE
:104C7000E4B2062CF4D300202978CDE9001002908C
:104C80000C482022018BADF80C10807E8DF80E00B0
:104C900000210948039BFFF773F804B00648BDE8FC
:104CA000704000220121B430FFF7BBBFA4210020D7
:104CB0000401002030000020E82F002010B5044639
:104CC00008680068C00608D4D4E90001FEF7BEFAFF
:104CD000E069BDE8104000F0ECBB10BD2DE9F041EB
:104CE0000DF11C08044698E86100069FC4E9001213
:104CF0002381C4E903700020A082E08220836083C6
:104D00000121E56184F8201084F8210084F82260F4
:104D1000284600F0CEFB2046BDE8F04100F05BB92C
:104D20002DE9F04116460D46044600F054F994F87A
:104D300022000A220323012854D002287ED004280E
:104D40007DD003287CD037E1002105EB4500E768E2
:104D5000C1F1070C3F5C27FA0CF7FF07276901EB4D
:104D6000C00C02D027F81C2001E027F81C30491C99
:104D700089B20829EBD3082110F10107D4F80CC03F
:104D8000C1F10F0E1CF807C02CFA0EFC5FEACC7CB8
:104D9000D4F810C001EBC00E02D02CF81E2001E0A8
:104DA0002CF81E30491C89B21029E7D31021871C2A
:104DB000D4F80CC0C1F1170E1CF807C02CFA0EFC79
:104DC0005FEACC7CD4F810C001EBC00E02D02CF806
:104DD0001E2001E02CF81E30491C89B21829E7D3A7
:104DE0006D1CADB2B542AFD9E6E0002105EB450040
:104DF000E768C1F1070C3F5C27FA0CF7FF0727694A
:104E000001EBC00C02D027F81C2001E027F81C3071
:104E1000491C89B20829EBD30821871CD4F80CC09F
:104E2000C1F10F0E1CF807C02CFA0EFC5FEACC7C17
:104E3000D4F810C001EBC00E06D002E026E028E056
:104E400071E02CF81E2001E02CF81E30491C89B2BC
:104E50001029E3D31021471CD4F80CC0C1F1170E60
:104E60001CF807C02CFA0EFC5FEACC7CD4F810C00A
:104E700001EBC00E02D02CF81E2001E02CF81E30F1
:104E8000491C89B21829E7D36D1CADB2B542ACD923
:104E900092E0002543E0002105EB4500861CE76811
:104EA000C1F1070CBF5D27FA0CF7FF07276901EB7B
:104EB000C00C02D027F81C2001E027F81C30491C48
:104EC00089B20829EBD30821E668C1F10F07365CE7
:104ED000FE40F607266901EBC00702D026F817202E
:104EE00001E026F81730491C89B21029ECD31021B3
:104EF000461CE768C1F1170CBF5D27FA0CF7FF07E6
:104F0000276901EBC00C02D027F81C2001E027F82C
:104F10001C30491C89B21829EBD36D1CADB2208915
:104F2000A842B8D848E0002543E0002105EB450041
:104F3000461CE768C1F1070CBF5D27FA0CF7FF07B5
:104F4000276901EBC00C02D027F81C2001E027F8EC
:104F50001C30491C89B20829EBD30821E668C1F14D
:104F60000F07365CFE40F607266901EBC00702D04A
:104F700026F8172001E026F81730491C89B21029BD
:104F8000ECD31021861CE768C1F1170CBF5D27FA2E
:104F90000CF7FF07276901EBC00C02D027F81C2093
:104FA00001E027F81C30491C89B21829EBD36D1C8D
:104FB000ADB22089A842B8D820894FF6FF71C01D34
:104FC00000EB400001EAC003D4E900012269BDE81A
:104FD000F041FEF75BB801894FF6FF7201EB41012A
:104FE00002EAC101002304E0026922F81130491CE1
:104FF00089B20289D21D02EB4202B1EBC20FF3D398
:1050000070472DE9F8431F46DDE9088615468146BD
:105010000C4608E043463A4621464846009600F0D2
:1050200006F8641CA4B2AC42F4D9BDE8F883F0B52C
:105030000589059C8D421AD35C43D5B2654340F681
:10504000F613B5FBF3F5C66801EB41017554C2F3E5
:1050500007256543B5FBF3F5C2F307426243C76812
:105060004E1CB2FBF3F2BD55C068891C4254F0BD22
:1050700010B50446018940680122FCF7C4FD218A6D
:105080000122E068FCF7BFFD227E6423616920688D
:10509000FDF710FA218900226068FCF7B4FD218A2F
:1050A000E068BDE810400022FCF7ADBD70B50D0012
:1050B00007D01F4C38B1012815D0022823D0042076
:1050C00070BD012070BD21782A466068FEF766FC3D
:1050D000F8B920780C2821D2616841F82050207856
:1050E000401C207022E061782A46A068FEF756FC3A
:1050F00078B960780C2811D2A16841F82050607806
:10510000401C607012E0A1782A46E068FEF746FC79
:1051100008B1022070BDA0780C2801D3032070BD17
:10512000E16841F82050A078401CA070002070BDBC
:10513000540000202DE9F047144F7C68FCF768FD0F
:10514000064600254FF47A7807F6781919E02068AA
:10515000301A404512D9207900EB400109EB81015A
:105160000B4801F011F82660217901EB410219F892
:105170002200032802D30548FEF76FFFA4686D1CC8
:10518000EDB27889A842E2D8BDE8F087B4060020E5
:105190006C200020054805210160416001218160EB
:1051A0000221C1600F21016170470000A42100208D
:1051B000002803D00021C18001814181704700286F
:1051C00000D04089704781884089081A80B27047B2
:1051D000002817D0016082800021C18001810A4A25
:1051E000C2600A4A02610A4A42610A4A82610A4A64
:1051F000C2610A4A02620A4A42620A4A82620A4A50
:10520000C2624181704700002D5200083B520008E5
:1052100057530008B7520008ED5200084D520008DD
:10522000C7510008BF510008B151000818B14089AA
:1052300008B1002070470120704718B1418980886B
:10524000814201D101207047002070472DE9F041D3
:10525000154688460446FFF7B2FF854200D9054649
:10526000A188E088091A8EB22168AE4201440BD3AE
:105270002A464046FBF78FF8E088A1882844B0FB17
:10528000F1F201FB12000FE032464046FBF783F8D3
:10529000AA1B174608EB06002168FBF77CF8A088DC
:1052A00097FBF0F100FB1170E0806089401B60818A
:1052B0002846BDE8F08170B50D46040003D015B155
:1052C000FFF7B4FF08B1002070BDE1882068405CA2
:1052D0002870E088A188401CB0FBF1F201FB1200AD
:1052E000E0806089401E6081012070BD2DE9F041A1
:1052F000154688460446FFF766FF854200D90546F5
:10530000A1882089091A8EB22168AE4208440BD3C5
:105310002A464146FBF73FF82089A1882844B0FB84
:10532000F1F201FB12000FE032464146FBF733F881
:10533000AA1B174608EB06012068FBF72CF8A0888B
:1053400097FBF0F100FB1170208160892844608197
:105350002846BDE8F08170B50D46040002D0FFF785
:105360006CFF08B1002070BD218920684554208958
:10537000A188401CB0FBF1F201FB12002081608982
:10538000401C6081012070BDF8B515460E460B46E5
:10539000009204460122022100F02CF8A0B9134823
:1053A00013490068B0FBF1F04FF47A714843009064
:1053B0006068B0F5827F0DD13346002280212046FF
:1053C000009500F017F870B1606D40F02000606546
:1053D0000320F8BD009830B1401E0090206880681E
:1053E000C0430006F6D50020F8BD00002C000020C8
:1053F00000366E012DE9F8431E4691468846044664
:10540000089DFCF705FC401B351AFCF701FC07461C
:1054100026480068C0F3CB3068430AE0701C09D00E
:10542000FCF7F6FBC01BA8420FD275B10098B8B3C9
:10543000401E00902068816838EA010033D00021C6
:105440004945EBD10020BDE8F8832068416821F090
:10545000E00141606068B0F5827F0BD1A068B0F5D3
:10546000004F02D0B0F5806F04D12068016821F0B0
:1054700040010160A06AB0F5005F09D120680168B1
:1054800021F4005101602068016841F4005101607D
:10549000012084F85100002084F850000320D2E756
:1054A000FFE70025C6E70121CAE700002C00002025
:1054B00070470188012903D0012101800846704707
:1054C00000207047018819B1002101800120704738
:1054D0000020704710B5C36814245B1CB3FBF4F3C1
:1054E0002D3253435A22B3FBF2F2006892B229B133
:1054F000042905D0082905D0026410BD426310BDFF
:10550000826310BDC26310BD2DE9F047047E01EB3C
:105510000308C7694669A0451DD801204FF00A0A53
:1055200017E000BFB2FBFAF50AFB1521A8EB000556
:1055300005F0FF0C092908D8651EAC4505DCA4EB75
:105540000C053544795C05F8011CB2FBFAF2401CED
:10555000C0B29842E6D9BDE8F08700002DE9F04FCF
:105560000024DFF85480DFF85490154F87B02646AA
:105570004FF0010A4FF4487BCDE904680F220696EC
:105580001048CDE9002BCDE902A930F814303038AD
:10559000A1B250F82420C4EB041007EB80000546AC
:1055A000FEF724FA084840F82450641C0C2CE3DB76
:1055B00007B0BDE8F08F0000CD550008D5550008B4
:1055C00038250020E8000020082800207047FCF75C
:1055D0001ABB00000EB50C2809D2054B0ECB8DE886
:1055E0000E008DF807006946024800F043FE0EBD2C
:1055F000A46400086C200020FCF746BB30B593B0D3
:1056000030216846FAF760FF14210CA8FAF75CFF16
:105610001F480025016841F080510160006800F0DA
:10562000805011901B48016841F48041016000687E
:10563000022400F480401190092000904FF4803043
:1056400001900120CDE905048005079019200890FC
:105650004FF4A870CDE9090404200B906846FCF7CC
:1056600099FC08B172B6FEE70CA90F2081E8310061
:105670004FF4A0500F904FF48050109005210CA8CB
:10568000FCF79CFB002801D072B6FEE713B030BDDA
:1056900040380240007000400248016841F4700147
:1056A0000160704788ED00E00148FDF770BA000026
:1056B00024030020F0B50268274B284D284E294FBF
:1056C000294C4FF0804C984209D0604507D0A84241
:1056D00005D0B04203D0B84201D0A04204D122F09C
:1056E000700E4A6842EA0E0298421BD0604519D0FB
:1056F000A84217D0B04215D0B84213D0A04211D062
:105700001A4DA8420ED01A4DA8420BD0194DA842EE
:1057100008D0194DA84205D0184DA84202D0184D06
:10572000A84203D122F44075CA682A434D6922F089
:1057300080022A438D68C5620D688562984201D057
:10574000A04201D109690163016841F004010160CF
:10575000012141610260F0BD0000014000040040F1
:1057600000080040000C00400004014000400140DF
:10577000004401400048014000180040001C004067
:105780000020004010B501F01F030121046A994078
:105790008C430462016A9A401143016210BD10B546
:1057A000846B0121626A824205D12177C069F8B910
:1057B00084F83E101CE0A26A824206D102222277BF
:1057C000C069A8B984F83F1012E0E26A824206D1AB
:1057D00004222277C06958B984F8401008E0226B8F
:1057E000824205D108222277C06908B984F84110A5
:1057F0002046FDF7E5FB0020207710BD10B5846B37
:10580000616A814201D101200DE0A16A814201D18A
:10581000022008E0E16A814201D1042003E0216B0B
:10582000814201D1082020772046FDF7CAFB0020E5
:10583000207710BD10B5846B0121626A824203D1CA
:10584000217784F83E1019E0A26A824204D1022036
:10585000207784F83F1011E0E26A824204D10420EC
:10586000207784F8401009E0226B824204D108209E
:10587000207784F8411001E084F83D102046FDF7C0
:1058800084F90020207710BD10B5846842EA032215
:1058900024F47F440A432243826010BD826822F0D0
:1058A00070020A4342F0070181607047F0B5036A55
:1058B000026A22F00102026242688469124E24F0F8
:1058C00073050C682C4323F002058B682B430D4DA8
:1058D000A84201D0B04205D123F00807CB683B4372
:1058E00023F00403A84201D0B04205D14D6922F44F
:1058F000407215438A692A43426084614968416362
:105900000362F0BD0000014000040140F0B5026AEE
:10591000036A23F010030362436884690D6824F46A
:10592000E64444EA05248D6822F0200242EA05128A
:105930000F4D104EA84201D0B04206D1CF6822F0E0
:10594000800242EA071222F04002A84201D0B0428F
:1059500007D14D6923F4406343EA85038D6943EA27
:10596000850343608461496881630262F0BD000081
:105970000000014000040140F0B5026A036A23F40C
:10598000807303624368C46922F4007224F07305D3
:105990000C68124E2C438D6842EA05220E4DA84237
:1059A00001D0B04206D1CF6822F4006242EA072259
:1059B00022F48062A84201D0B04207D14D6923F49D
:1059C000405343EA05138D6943EA05134360C461FC
:1059D0004968C1630262F0BD00000140000401405B
:1059E00030B5046A026A22F4805202624268C369D6
:1059F0000D6823F4E64343EA05238D6824F400543C
:105A000044EA0534084DA84202D0084DA84204D10A
:105A10004D6922F4804242EA85124260C3614968BE
:105A20000164046230BD0000000001400004014038
:105A300010B5036A046A24F001040462846924F046
:105A4000F00444EA021423F00A020A438461026269
:105A500010BD10B5036A046A24F01004046284695E
:105A600023F0A00324F4704444EA023243EA011113
:105A70008261016210BD10B5806B0021C185FDF708
:105A80004FFC10BD70B5846B2068406994F84110DC
:105A9000C0F3C0100025212904D118B1E5842046A7
:105AA00000F08EF82068406994F84210C0F380102E
:105AB000222904D118B1E585204600F05AF8606C1F
:105AC00040F0100060642046FDF72AFC70BD10B560
:105AD0000146806B096809684FF00002C9052ED4A1
