:020000040800F2
:10C00000A05B002069C20008DB0901085BF600089C
:10C0100015070108EBC50008A51F01080000000076
:10C02000000000000000000000000000A512010850
:10C03000FDCB000800000000DF090108B91301086A
:10C0400083C2000883C2000883C2000883C20008BC
:10C0500083C2000883C2000883C2000895D000088C
:10C060009BD0000883C2000883C2000883C2000876
:10C0700083C2000883C2000883C2000883C200088C
:10C080003DCB000883C2000883C2000883C20008B9
:10C0900083C2000883C2000883C2000883C200086C
:10C0A00083C2000883C2000883C2000883C200085C
:10C0B00083C200086914010883C2000883C2000813
:10C0C00083C2000883C2000883C2000883C200083C
:10C0D00083C200081D1E010883C20008BD1E01089E
:10C0E00083C2000883C2000883C2000883C200081C
:10C0F00083C2000883C2000883C2000883C200080C
:10C1000083C2000883C2000883C2000883C20008FB
:10C1100083C2000883C2000883C2000883C20008EB
:10C1200083C2000883C2000883C2000883C20008DB
:10C1300083C2000883C2000883C2000883C20008CB
:10C1400083C2000883C2000883C2000883C20008BB
:10C1500083C2000883C2000883C2000883C20008AB
:10C1600083C2000883C2000883C2000883C200089B
:10C1700083C2000883C2000883C2000800000000D8
:10C1800083C2000883C2000800F002F800F05CF8E7
:10C190000AA090E8000C82448344AAF10107DA4522
:10C1A00001D100F051F8AFF2090EBAE80F0013F018
:10C1B000010F18BFFB1A43F001031847085F000086
:10C1C000285F00000A444FF0000C10F8013B13F008
:10C1D000070408BF10F8014B1D1108BF10F8015BE0
:10C1E000641E05D010F8016B641E01F8016BF9D1D3
:10C1F00013F0080F1EBF10F8014BAD1C0C1B09D12A
:10C200006D1E58BF01F801CBFAD505E014F8016B9B
:10C2100001F8016B6D1EF9D59142D6D3704700002D
:10C220000023002400250026103A28BF78C1FBD83F
:10C23000520728BF30C148BF0B6070471FB505F0DB
:10C2400026FF1FBD10B510BD00F046F91146FFF7DF
:10C25000F5FF05F0F3FE00F064F903B4FFF7F2FF19
:10C2600003BC00F069F9000009488047094800470D
:10C27000FEE7FEE7FEE7FEE7FEE7FEE7FEE7FEE796
:10C28000FEE7FEE704480549054A064B70470000F3
:10C290005914010889C10008A0310020A05B0020CA
:10C2A000A0460020A046002053EA020C00F069805E
:10C2B0002DE9F04B4FF00006002B1FBFB3FA83F5BA
:10C2C00003FA05F424FA05F65E4012BF1643B2FAEB
:10C2D00082F502FA05F4C5F120051EBF22FA05FC1D
:10C2E00044EA0C04203556EA044C4FEA144418BFC3
:10C2F000641C4FF000084FF00009904271EB030CF2
:10C3000039D3002919BFB1FA81F701FA07F6B0FA5B
:10C3100080F700FA07F6C7F120071EBF20FA07FCD6
:10C3200046EA0C062037B6FBF4FCA7EB0507103FE6
:10C3300007F01F0BCBF120060CFA0BFB2CFA06F6CC
:10C3400044BFB3460026202FA4BF5E464FF0000B2B
:10C350005BEA060C08BF4FF0010B19EB0B09ABFBB6
:10C36000027C48EB0608C01B06FB02CC0BFB03CC8F
:10C3700071EB0C01C1E70B46024641464846BDE859
:10C38000F08B13B54FF000004FF00001AFF30080C9
:10C39000BDE81C407047032A40F2308010F0030CC7
:10C3A00000F0158011F8013BBCF1020F624498BF08
:10C3B00011F801CB00F8013B38BF11F8013BA2F1A5
:10C3C000040298BF00F801CB38BF00F8013B11F020
:10C3D000030300F02580083AC0F0088051F8043BC0
:10C3E000083A51F804CBA0E80810F5E7121D5CBF2D
:10C3F00051F8043B40F8043BAFF30080D20724BF60
:10C4000011F8013B11F801CB48BF11F8012B24BFF3
:10C4100000F8013B00F801CB48BF00F8012B704742
:10C4200010B5203AC0F00B80B1E81850203AA0E8CF
:10C430001850B1E81850A0E81850BFF4F5AF5FEA03
:10C44000027C24BFB1E81850A0E8185044BF18C9B6
:10C4500018C0BDE810405FEA827C24BF51F8043B5D
:10C4600040F8043B08BF7047D20728BF31F8023BB1
:10C4700048BF11F8012B28BF20F8023B48BF00F845
:10C48000012B70474FF0000200B5134694469646C4
:10C49000203922BFA0E80C50A0E80C50B1F12001D7
:10C4A000BFF4F7AF090728BFA0E80C5048BF0CC085
:10C4B0005DF804EB890028BF40F8042B08BF7047E3
:10C4C00048BF20F8022B11F0804F18BF00F8012B55
:10C4D0007047704770477047754600F029F8AE46C0
:10C4E00005006946534620F00700854618B020B580
:10C4F000FFF7C8FEBDE820404FF000064FF00007F0
:10C500004FF000084FF0000B21F00701AC46ACE8FB
:10C51000C009ACE8C009ACE8C009ACE8C0098D4668
:10C5200070470446AFF300802046FFF796FE0000F8
:10C53000004870474031002001491820ABBEFEE79B
:10C5400026000200704730B40C46029DC0E900127C
:10C550008989018100214181C360058241828182F4
:10C5600001218175204630BC114602F065BC10B532
:10C570000022012304E050F82240521CD2B2A375DD
:10C580008A42F8D310BD70B5847D0025012C00D1FE
:10C590004582468A8E4217D3012C15D10189594311
:10C5A000FF23B1FBF3F189B2418144680A2364B1EE
:10C5B000042C11D001FB02F1B1FBF3F10268082C4D
:10C5C000126810D01164857570BD5143B1FBF3F151
:10C5D000026812685163F6E75143B1FBF3F1026858
:10C5E00012689163EFE7D163EDE7FEE72DE9F04FC5
:10C5F0000024DFF88480DFF88490DFF884A0DFF87F
:10C6000084B087B0274601260F2101AA4FF4487055
:10C61000CDF81090009182E841041B48CDE90587D0
:10C6200030F814302030C4EB041550F8242015489D
:10C63000A1B2F03800EB8500054603F0F1F84BF8A5
:10C640002450641C032CDFDB4FF4FA60CDE900605A
:10C65000CDE9026ACDF810900A48CDE905873C384B
:10C6600001230A4A0321044603F0DAF8CBF80C4010
:10C6700007B0BDE8F08F0000D1F8000879F8000895
:10C6800019FA00082C250020740000200008024040
:10C6900030B503464FF6FF7091B14AF20104491ECE
:10C6A00089B20ED313F8012B50400022C5074FEA80
:10C6B000500000D06040521CD2B2082AF6D3EEE7F8
:10C6C000002030BD1021014800F0F7BC38010020E7
:10C6D00010B50446008808440004000C208004D0F3
:10C6E0000120207401F0F2FAE06010BD70B508215D
:10C6F000184801F0D9FA054601F0E8FA164C2278FC
:10C7000042B100260221012A09D0022A11D0032AAF
:10C710000DD114E0002D09D1A06001200DE0012D04
:10C7200005D0A268801A0A2800D3217070BD267037
:10C7300070BD012DFCD1A0600320207070BD002DC4
:10C74000F3D0A168401A0A28F8D30221034800F068
:10C75000B4FCECE70008024064000020380100202F
:10C760007FB500240094AA268DF800608DF8014062
:10C770008DF8024001948DF803108DF80420190EF5
:10C780008DF80510190C8DF80610089D190A0294F1
:10C790008DF8071003948DF8083055218DF8094065
:10C7A0008DF80D108DF80A50694605F0CDFB04B0E8
:10C7B00070BD2DE9FF4104460020DDE90A560090D6
:10C7C000AA278DF800708DF801008DF80200019005
:10C7D000029003908DF80420180E8DF80500180CB7
:10C7E0008DF80600180A8DF807008DF80830012032
:10C7F0008DF8090055208DF803108DF80D008DF887
:10C800000A506946204605F09FFB044601F05EFA97
:10C8100002462146304603F0B1FA04B02046BDE896
:10C82000F08100002DE9FF4724496422A1F118009E
:10C8300003F0E3FA22496422A1F2BC4003F0DDFADE
:10C840004FF4007060F30F04AA2060F317445520E2
:10C8500060F31F641F481D4D1D4ECDE90260DFF8D7
:10C8600064A0194ACDE900755146234602F24440BE
:10C8700000F03AF81A48DFF86090CDE90260174AF4
:10C88000CDE900754946234602F52D7000F02CF8DD
:10C89000002464F30F08234651461A461148CDF888
:10C8A000008000F061F80F48234649461A461430CC
:10C8B000CDF8008000F058F8BDE8FF87E0050020C3
:10C8C000900A0020A8040020401D0020DD1001086F
:10C8D000291E0108091B0108F0040020401F002048
:10C8E000491E01085C2100202DE9F047044609A8F3
:10C8F000089F90E84003A16098B2114602461D4689
:10C9000004F10C0004F00CFB0020207120702020AA
:10C9100084F86000280C6070280EA070E7705EB18B
:10C92000C4F86460C4E91A8904F13C01A068BDE858
:10C93000F047012202F008BE01486066F2E70000FD
:10C94000DD100108074810B5436E0E22A0F1440126
:10C950009847044870300E22436EBDE81040A0F1A5
:10C96000A60118478421002010B5029C80E80E0023
:10C970008481034A0261202081F8410010BD00003B
:10C9800085C900080068002806D0002904D0002AC4
:10C9900002D0642302F010BE704700003EB5234A67
:10C9A00003214FF496708DE8070040F6B83301225A
:10C9B00064211F4800F042F81D4C3034207C0128CF
:10C9C00005D00025032808D004280CD011E06169A7
:10C9D000201D8847022020740BE0A169201D884794
:10C9E0002574258005E0A169201D88472574FFF77F
:10C9F00069FE216A201D884741F28831884203D9A7
:10CA0000207C08B10420207409480A4A40F6C41169
:10CA1000743000F069F803B00548BDE83040064ABC
:10CA20004FF44871543000F05FB8000045F700083B
:10CA300064220020A91F0108DD0901082DE9F04743
:10CA40000446DDE90998C07E1E4617468A4601283D
:10CA500005D00025032808D004280CD01FE0E36986
:10CA6000201D98470220E07622E0216A201D884799
:10CA7000E57625801CE0E16A201D8847B0F5967FA9
:10CA80000DD9A078484504D20121E176401CA07060
:10CA90000EE0E576216A201D884740468047E07E0B
:10CAA000052805D1616A201D8847A16A201D884795
:10CAB000E16A201D8847B04214D9E07E002811D0D9
:10CAC0000420E076616A201D8847012000F002FF03
:10CAD00037B100225146201DE369BDE8F0471847F1
:10CAE0000122F7E7BDE8F0872DE9F0410446007B1D
:10CAF00016460F46012805D00025032808D0042833
:10CB00000BD00FE02169204688470220207309E0FE
:10CB1000616920468847257304E0257361692046D2
:10CB20008847B047E16920468847B84204D9207B4E
:10CB3000002801D004202073BDE8F08110B504481E
:10CB400000F056FDBDE810400149024803F048BF1F
:10CB500048040020EC2F002001681823CAB2103AC4
:10CB6000B2FBF3F2054B6FF30901032A9B5CC3652B
:10CB700000D9091D8165084670470000B0200108F2
:10CB800010B5014600208B698A6A4FF0C07453B11A
:10CB9000B3F5005F15D072B1012A0CD0022A0AD079
:10CBA000032A09D104E01AB1012A06D0022A03D1CE
:10CBB000C96AC90100D5012010BDC96AA142FAD0D5
:10CBC00010BD002AF7D0012AF2D0022AF3D0032A9E
:10CBD000F3D010BD30B50468256825F480252560A4
:10CBE000046863608368402B036803D09960006821
:10CBF000C26030BD9A600068C16030BD70470000FF
:10CC00007CB504201A4B1B4C009000221946201DB5
:10CC100000F042F8012304F130059A021649281D5C
:10CC200000F0D4F8154E0123DA03314604F1540024
:10CC300000F0CCF801239A03314604F1740000F0AF
:10CC4000C5F85A218720CDE900012D2300220C4987
:10CC500004F1940000F08CF80A4801F07DFE0020F9
:10CC60002080A070288004F17401012008737CBD2D
:10CC70005002002064220020001002400008024000
:10CC8000980200207003002010B5044601F01EF841
:10CC90002169401A10BD000070B50D460446049984
:10CCA0002846C4E90221C4E900530021E1750123AB
:10CCB000A375A18221610B49A1610B49E1610B4977
:10CCC00021620B4961620B49A162114602F0B4F87E
:10CCD000E168606802F0B0F82046BDE8704000F0FE
:10CCE0000BB8000011CD00082FCD0008F9CC0008CA
:10CCF00005CD000889CC0008D0E90121C36800688F
:10CD000003F0E4BD10B5044600F0E0FF206110BD63
:10CD10001CB58275CDE900120446D4E90002D4E9BD
:10CD2000021303F0F2FD00F0D1FF20611CBDD0E939
:10CD30000121C368006803F02EBE30B44389028924
:10CD40005C18A24202D9511A018100E003810189D5
:10CD500030BC00F02FB800897047028911448289E5
:10CD6000914201D2018100E00281018900F022B8E4
:10CD700070B50446DDE90456C4E900120846638133
:10CD8000A58108496161084921610849A1610849F3
:10CD9000E161114602F050F8314620466269BDE873
:10CDA00070401047B5CD000857CD00085BCD000896
:10CDB0003BCD000801810A4603C804F085BA10B5CE
:10CDC000044600F083FFA168401A10BD30B4016032
:10CDD0000C46828011464373002202738260084A27
:10CDE0000261084A4261084A8261084AC26123B16D
:10CDF0000022204630BC00F064BF0122F9E70000A9
:10CE000023CE000811CE000839CE0008BFCD00089F
:10CE1000417B21B100228188006804F0B8BA012268
:10CE2000F9E710B50446427B8188006804F0AFFA48
:10CE300000F04CFFA06010BD10B5044600F046FFA6
:10CE4000A06010BD2DE9F04101225A4C95038EB02F
:10CE50002946204600F035FF0122574FD6033146C0
:10CE6000384600F02EFF5548059055480A900E2090
:10CE70008DF82C00A014ADF82450ADF81C00514DD5
:10CE800008A9089406941422884668460C95FFF772
:10CE9000C7FA22464C48079B059900F09BF84A4C7C
:10CEA00002230F22D4F820C000212046E0470123AE
:10CEB000D4F820C01A4602212046E047012302226E
:10CEC000D4F820C003212046E04701230322D4F8F0
:10CED00020C004212046E04701230422D4F820C0CA
:10CEE00005212046E04701230522D4F820C0062171
:10CEF0002046E04701230622D4F820C0072120461F
:10CF0000E04701230722D4F820C008212046E0474B
:10CF100001230822D4F820C009212046E04701233C
:10CF20000922D4F820C00A212046E0470123092223
:10CF3000D4F820C00B212046E04701230922D4F871
:10CF400020C00C212046E04701230922D4F820C04C
:10CF50000D212046E047616A204688471B4805901E
:10CF600017481B4C10380A9004208DF82C00400202
:10CF7000ADF81C000897ADF82460069414224146D1
:10CF800068460C95FFF74CFA0F4822462830079B5D
:10CF9000059900F01FF80C4C042328340022256A60
:10CFA00011462046A847616A204688470EB0BDE872
:10CFB000F08100000004024000000240A0010020B7
:10CFC00024010020B8200108F0300020F8010020E2
:10CFD00000080240F0B50DF1140E9EE8F010466115
:10CFE00001600776C0F81CC042600381C4600582FE
:10CFF0000249016202494162F0BD0000FD120108D0
:10D00000B50D01082DE9F84F1746DDE90AA9C61943
:10D0100050469B460D46864202D90020BDE8F88F57
:10D0200001244FF00A0812E0B5FBF8F108FB11519A
:10D0300085B1301BC0B253465A46CDF8009000BFB0
:10D0400000F018F84046B5FBF0F5641CE4B2BC42B1
:10D05000EAD9E3E7012CCDF8009005D0301BC0B22F
:10D0600053465A460A21EBE7701EC0B253465A4651
:10D070000021E5E730B50A29039C02D85D1EA842CD
:10D0800001DD002030BD181A1044615C00F8011C5D
:10D09000012030BD022000F003BD042000F000BDDF
:10D0A00072B6FEE70068814301D00020704701207E
:10D0B000704702688A430260704702680A43026050
:10D0C00070470000002229B101291AD002291BD083
:10D0D0004FF440720E490B6823F440730B600B68E9
:10D0E00013430B600A6822F078020A600A68022380
:10D0F00003EBC00002430A60086840F48030086017
:10D1000070474FF48072E5E74FF40072E2E70000E9
:10D11000103C02401348016889050FD5016821F4CD
:10D1200000710160016841F400610160016821F44F
:10D1300000610160016841F4007101600168490506
:10D140000FD5016821F480610160016841F48051CC
:10D150000160016821F480510160016841F480613F
:10D1600001607047003C024008490A6822F440729E
:10D170000A600A6842F004020A600A684FF48033C9
:10D1800043EA002002430A6070470000103C02405E
:10D19000064A136823F4407313601368136013681E
:10D1A00043F001031360017070470000103C02401F
:10D1B000094910B50C6824F440740C600C6844F400
:10D1C00040740C600C6844F001040C600260BFF312
:10D1D0006F8F436010BD0000103C0240074A136887
:10D1E00023F440731360136843F48073136013686F
:10D1F00043F001031360018070470000103C0240BF
:10D20000074A136823F440731360136843F40073F0
:10D210001360136843F0010313600160704700005E
:10D22000103C024017490868C206174805D5C26974
:10D2300042F01002C26110220A600A68920605D507
:10D24000C26942F00802C26120220A600A685206DE
:10D2500005D5C26942F00402C26140220A600A6830
:10D26000120605D5C26942F00202C26180220A603C
:10D270000A68920705D5C26942F02002C261022005
:10D28000086070470C3C02401000002070B5114946
:10D2900004460020C86100F019FD06460E4D09E065
:10D2A000601C07D024B100F011FD801BA04201D901
:10D2B000032070BD2868C003F2D42868C00701D0DD
:10D2C00001202860286810F0F200F2D0FFF7AAFFD2
:10D2D000012070BD100000200C3C024010B501215F
:10D2E0000748FFF7DFFE002808D00648C1688847D6
:10D2F000BDE8104001210248FFF7DBBE10BD000071
:10D300003401002018230020114B10B50C221149C4
:10D31000A3F1180000F04AF80D4C183C2046216992
:10D320008847D4E90112002005E000BF52F8203000
:10D330005B1C04D0401CB0EB910FF7D310BD03F081
:10D34000CDFD0348E168BDE81040183808470000EB
:10D35000302300200080000830B1816821B141688D
:10D3600011B1006800F003B84FF0FF307047AFF321
:10D37000008000B587B000210591009100F074F89D
:10D380000290012003900220049000F049FB10B1AC
:10D39000012007B000BD05A9684600F0ADFA08B14C
:10D3A0000220F6E700F0F4FA0020F2E780E80E0031
:10D3B0000349C160034901610349416170470000AD
:10D3C000FDD30008CDD3000859D3000830B18168DF
:10D3D00021B1426812B1006800F003B84FF0FF308D
:10D3E000704710B50B0006D02AB101461846FFF76A
:10D3F00017F8002010BD4FF0FF3010BD816830B12C
:10D400000A0004D0426812B1006800F003B84FF07F
:10D41000FF3070472DE9F04116460C00054606D056
:10D420002EB1FFF7A6FF28B10120BDE8F0814FF033
:10D43000FF30FAE7F61CB70800F0F2FA00260DE01C
:10D44000002329460220226800F0ACFA18B100F04F
:10D450009FFA0220E9E7241D2D1D761CBE42EFD362
:10D4600000F096FA0020E0E70021A0F1006343F607
:10D47000FF72934246D324490144914201D20121D3
:10D4800040E022490144914201D202213AE0204980
:10D490000144914201D2032134E01E494FF6FF724C
:10D4A0000144914201D204212CE01B4942181B493E
:10D4B0008A4201D2052125E0194A02448A4201D25A
:10D4C00006211FE0174A02448A4201D2072119E0CF
:10D4D000154A02448A4201D2082113E0134A024449
:10D4E0008A4201D209210DE0114A02448A4201D246
:10D4F0000A2107E00F4A1044884201D20B2101E0C3
:10D500004FF0FF310846704700C0FFF70080FFF77B
:10D510000040FFF70000FFF70000FEF7FFFF0100EB
:10D520000000FCF70000FAF70000F8F70000F6F73B
:10D530000000F4F70000F2F72DE9F0410446876D92
:10D5400000F0C4FB064694F835000025022806D0FA
:10D550008020606584F834500120BDE8F0812068A7
:10D56000016821F0160101602068416921F0800105
:10D570004161206C08B9A06C20B12068016821F0DD
:10D58000080101602068016821F0010101600CE0E0
:10D5900000F09CFB801B052807D920206065032034
:10D5A00084F8350084F83450D7E720680068C00755
:10D5B000EED194F85C103F208840B860012084F8D8
:10D5C000350084F834500020C7E790F83510022960
:10D5D00003D08021416501207047052180F8351076
:10D5E0000068016821F0010101600020704700001F
:10D5F0002DE9F84304464FF00009CDF80090634848
:10D600004FF41651A56D0068B0FBF1F72E6894F841
:10D610005C10082000FA01F131420FD021680A683D
:10D6200052070BD50A6822F004020A6094F85C10D5
:10D630008840A860606D40F00100606594F85C105F
:10D640004FF0010808FA01F0304208D0216849691A
:10D65000090604D5A860606D40F00200606594F88A
:10D660005C1004208840304208D02168096889078E
:10D6700004D5A860606D40F00400606594F85C100B
:10D6800010208840304218D021680968090714D555
:10D69000A86020680168490304D50068000308D524
:10D6A000A16C07E00168C90503D4016821F00801F5
:10D6B0000160216C09B12046884794F85C10202055
:10D6C0008840304231D021680968C9062DD5A8604C
:10D6D00094F8350005282068016806D0490347D52D
:10D6E000006800031DD4616C1CE021F0160101608C
:10D6F0002068416921F080014161206C08B9A06C6B
:10D7000020B12068016821F00801016094F85C10E4
:10D710003F208840A86084F8358084F83490216DDB
:10D720001FE0E16B09B120468847606D00282BD0CF
:10D73000606DC00714D0052084F8350020680168AA
:10D7400021F0010101600098401C0090B84203D80C
:10D7500020680068C007F6D184F8358084F83490DA
:10D76000E16C002910D001B02046BDE8F043084725
:10D770000168C905D5D4016821F01001016084F861
:10D78000358084F83490CCE7BDE8F88300000020B1
:10D790002DE9F041044600F099FA06465CB10220FA
:10D7A00084F83500002584F834502068016821F0A1
:10D7B000010101600DE00120BDE8F08100F086FA72
:10D7C000801B052805D920206065032084F83500DA
:10D7D000F2E720680068C007F0D12268116820488D
:10D7E0000140D4E901031843D4E903363343184315
:10D7F00063691843A3691843E3691843236A18430C
:10D800000843616A042903D1D4E90B13194308437F
:10D81000106020684069666A20F0070130460E43B8
:10D82000012704280CD1A06A0643E06A40B12046D3
:10D83000FFF7A6F920B14020606584F83570BAE79B
:10D84000206846612046FFF787F994F85C203F2165
:10D8500091408160656584F835700020ACE7000078
:10D860003F8010F02DE9F0410446866D90F83400B9
:10D87000002501280DD0012084F8340094F835707B
:10D880000020012F07D084F8340002252846BDE887
:10D89000F0810220FBE7022784F83570606520469E
:10D8A000FFF798F994F85C103F208840B06020683A
:10D8B000016841F016010160206C20B12068016808
:10D8C00041F0080101602068016841F00101016038
:10D8D000DCE7000070B5044600F0F8F90546601C6E
:10D8E00002D004480078044400F0F0F9401BA04244
:10D8F000FAD370BD040000202DE9F0470446224809
:10D900000F46017E01290AD00121804601764CF2A2
:10D9100050394846FFF7BAFC020003D02FE002203E
:10D92000BDE8F0874FF0FF3038602068174D0128C0
:10D9300001D0A6681CE0207C6168FFF715FC484612
:10D94000FFF7A4FC0246286820F00400286014E0D9
:10D95000217C3046FFF7B6FB4846FFF797FC0200F4
:10D96000286820F07A00286001D03E6005E0761C2F
:10D97000D4E902100844B042EAD8FFF7CBFB0021FB
:10D9800088F818101046CBE710000020103C024029
:10D990000348016841F00041016000207047000029
:10D9A000103C02402DE9F0471B4E05461446307EE0
:10D9B0001F468946012808D0012030764CF25038A5
:10D9C0004046FFF763FC18B114E00220BDE8F08781
:10D9D0009DB1012D16D0022D19D022463B46484656
:10D9E000FFF7E6FB4046FFF751FC0C490A6822F0BE
:10D9F00001020A6000213176E8E7E1B24846FFF70C
:10DA0000C7FBEFE7A1B24846FFF7E8FBEAE721468C
:10DA10004846FFF7F5FBE5E710000020103C024008
:10DA2000074900200A68002A09DA054A054B0C3A22
:10DA30001360054B13600968002900DA0120704764
:10DA4000103C024023016745AB89EFCD10B5022899
:10DA50001DD004281AD1104C201DE1698847208868
:10DA6000002813D0401E20804FF400510B48FFF7D0
:10DA700024FB2088002809D1207C002806D04FF400
:10DA800000410648FFF719FB0320207410BDBDE8D4
:10DA9000104001F05DBE00009422002038010020FB
:10DAA000044910B50A68024202D00860FFF7CEFFB1
:10DAB00010BD0000143C01402DE9F84FDFF8BCA177
:10DAC0000022012503264FF00F090AF1040BAAF1E9
:10DAD000040E00BF0B6805FA02F42340A34270D184
:10DAE0000F7907F00307012F01D0022F16D18768A5
:10DAF0004FEA420806FA08FC27EA0C07D1F80CC0E6
:10DB00000CFA08FC4CEA070CC0F808C04768A743A9
:10DB10000C79C4F3001494403C4344600C79E44312
:10DB2000A4070AD0C4684FEA420C06FA0CF7BC43BB
:10DB30008F6807FA0CF72743C7600C7904F00304D9
:10DB4000022C12D1D40800EB840CDCF820405707DB
:10DB5000FF0E09FA07F824EA0804D1F8108008FA41
:10DB600007F848EA0408CCF8208004684FEA420C21
:10DB700006FA0CF7BC430F7907F0030707FA0CF716
:10DB8000274307604C6814F4403F70D03C4C276832
:10DB900047F480472760246822F0030704F4804498
:10DBA0000094384C07EB040CDCF8084897074FEA60
:10DBB000177809FA08F7BC43334FB84202D100275F
:10DBC00024E054E0314FB84201D101271EE0304F2C
:10DBD000B84201D1022719E02E4FB84201D10327E4
:10DBE00014E02D4FB84201D104270FE02B4FB8426B
:10DBF00001D105270AE02A4FB84201D1062705E0E6
:10DC0000284FB84201D1072700E0082707FA08F794
:10DC10002743CCF80878DAF800405746D1F804C01A
:10DC20009C435FEACC2C00D51C433C60DBF80040F1
:10DC30005F46D1F804C09C435FEA8C2C00D51C439E
:10DC40003C60DEF800407746D1F804C09C435FEAB0
:10DC50008C3C00D51C433C60084F083F3C68D1F821
:10DC600004C09C435FEACC3C00D51C433C60521C82
:10DC7000102AFFF42FAFBDE8F88F0000083C0140E8
:10DC800044380240003001400000024000040240DD
:10DC900000080240000C0240001002400014024044
:10DCA00000180240001C02400069084000D001201A
:10DCB0007047426921EA02030A4043EA0241816156
:10DCC00070470AB1816170470904FBE70148806829
:10DCD000704700000400002070B5040013D02168D4
:10DCE0004CF6CC400860216845F255500860D4E9F4
:10DCF000000141602168A0688860FFF7E7FF0546E2
:10DD000041F601060DE0012070BD00BFFFF7DEFF08
:10DD1000401BB04205D92068C068800701D00320AD
:10DD200070BD2068C0688007F0D121684AF6AA203B
:10DD30000860002070BD00684AF6AA21016000203A
:10DD40007047000002488168027811448160704782
:10DD5000040000200B4810B5016841F40071016017
:10DD6000016841F480610160016841F480710160E3
:10DD7000032000F06FF80F2000F006F800F024F800
:10DD8000002010BD003C024070B50D4D04464FF41C
:10DD90007A712878B1FBF0F00A490968B1FBF0F01C
:10DDA00000F099FC48B9102C07D200222146501EE1
:10DDB00000F030F800206C6070BD012070BD0000E4
:10DDC00004000020000000200A4808B5016841F462
:10DDD00080410160006800F4804000900548001F09
:10DDE000016841F080510160006800F080500090AF
:10DDF00008BD000044380240002809DB00F01F0283
:10DE0000012191404009800000F1E020C0F800119C
:10DE100070470000F0B40E4B1B680C46C3F302239E
:10DE2000C3F10705042D00D90425191D072901D2C6
:10DE3000002300E0DB1E012606FA05F1491E214001
:10DE400099409E40761E16403143F0BC04F0E6B87F
:10DE50000CED00E0064900F0070208684FF6FF03EA
:10DE6000184040EA0220034A10430860704700004F
:10DE70000CED00E00000FA052DE9F0470E46050024
:10DE800065D0DFF81481D8F80000F7B200F0070081
:10DE9000B04207D288F80070D8F8000000F0070000
:10DEA000B04254D128683D4C810712D5400703D5B4
:10DEB000206840F4E05020602878000703D52068EF
:10DEC00040F4604020602068A96820F0F00008431A
:10DED00020602878C0072DD03049686808390128AB
:10DEE00012D0022813D0032811D00968890700290D
:10DEF0002DDA216821F0030101432160FFF7E6FEDE
:10DF0000814641F2883A0EE009688903EFE7096823
:10DF10008901ECE7FFF7DAFEA0EB0901514502D9D0
:10DF20000320BDE8F0872068696800F00C00B0EBC2
:10DF3000810FEFD1D8F80010404601F00701B1423F
:10DF400007D90770006800F00700B04201D0012037
:10DF5000E7E72878400705D52068E96820F4E05015
:10DF6000084320602878000706D52068296920F436
:10DF7000604040EAC100206000F038F82168084A9B
:10DF8000C1F30311515CC8400649086006480068A7
:10DF9000FFF7FAFE0020C4E7003C024008380240C8
:10DFA00098200108000000200800002004480549CE
:10DFB00000680968044AC1F38221515CC840704777
:10DFC0000000002008380240A82001080448054944
:10DFD00000680968044AC1F34231515CC840704787
:10DFE0000000002008380240A8200108154810B59C
:10DFF000006810F00C02144813D01449042A0FD002
:10E00000082A0ED10F4C241F2268236802F03F0219
:10E010005B0207D52068C0F38810A0FB010106E071
:10E02000084610BD2168C1F38811A1FB000100233F
:10E03000FEF73AF92168C1F30141491C4900B0FBE0
:10E04000F1F010BD083802400024F40040787D0152
:10E050002DE9F84F040070D02078DFF85093C00706
:10E06000A9F104054CD009F104000168C1F3810154
:10E07000012908D00068C0F3810002280AD1D9F82C
:10E080000000400206D52868800339D56068002862
:10E09000E1D035E06068B0F5803F12D0B0F5A02F38
:10E0A000286812D020F480302860286820F480206E
:10E0B000286060684FF4FA67A8B1FFF707FE0646CC
:10E0C0000DE0286840F48030F2E740F480202860BA
:10E0D000F7E700BFFFF7FAFD801BB84273D8286846
:10E0E0008003F7D50CE0FFF7F1FD064605E000BF21
:10E0F000FFF7ECFD801BB842F0D828688003F7D406
:10E100002078DFF8AC8280074FF0000A3ED5A748A0
:10E11000001D016811F00C0F08D00068C0F38100E9
:10E1200002280BD1D9F80000400207D428688007E4
:10E1300016D5E068012800D112E033E1E068B8B1FB
:10E140000120C8F80000FFF7C1FD064605E000BF4A
:10E15000FFF7BCFD801B0228C0D828688007F7D5D0
:10E160002868216920F0F80040EAC10028600DE02D
:10E17000C8F800A0FFF7AAFD064604E0FFF7A6FDD9
:10E18000801B02281FD828688007F7D42078000752
:10E1900022D5864E87486169703671B101210160D0
:10E1A000FFF794FD074604E0FFF790FDC01B02282F
:10E1B00009D830688007F7D50EE0C0F800A0FFF757
:10E1C00085FD074605E082E0FFF780FDC01B0228C1
:10E1D0007DD830688007F7D42078400768D5DFF80D
:10E1E000CCB100270BF13C0BDBF80000C0000BD4D6
:10E1F000DBF8001041F08051CBF80010DBF8000094
:10E20000012700F0805000906B4E3068C00510D49C
:10E21000306840F480703060FFF758FD009005E0F2
:10E22000FFF754FD0099401A022850D83068C00505
:10E23000F6D55E4EA0686C3601280FD005283068F0
:10E2400010D020F001003060306820F00400306011
:10E25000A068B8B1FFF73AFD00900FE0306840F0D9
:10E260000100F4E740F004003060F7E7FFF72EFD0F
:10E270000099411A41F28830814266D8306880079F
:10E28000F4D50EE0FFF722FD009007E0FFF71EFD3A
:10E290000099411A41F28830814256D8306880078F
:10E2A000F4D42FB1DBF8001021F08051CBF800102E
:10E2B000A069C8B33D49091D0968C1F3810102295C
:10E2C0004AD00228504607D0C8F8600000E03CE081
:10E2D000FFF7FCFC04463BE04746C8F86000FFF748
:10E2E000F5FC064605E000BFFFF7F0FC801B0228A6
:10E2F0002BD828688001F7D4D4E907010843A16A24
:10E300002E4A490802EB0141626A41EA8211084340
:10E3100094F82C1040EA0161C9F800100120386619
:10E32000FFF7D4FC044606E03EE000BFFFF7CEFC5A
:10E33000001B022809D828688001F7D534E000BF07
:10E34000FFF7C4FC001B022802D90320BDE8F88FA8
:10E3500028688001F4D427E00128F7D0D9F800001C
:10E36000E26900F4800191421CD1226A00F03F0171
:10E37000914217D147F6C071626A0140B1EB821F2A
:10E3800010D1A26A4FF0FF3300F4403103EB520288
:10E39000B1EB024F06D194F82C1000F07060B0EB96
:10E3A000016F01D00120D1E70020CFE704380240FF
:10E3B00000004742800E4742007000400000FFFF0F
:10E3C00070B5040009D0606A002540B1256165611F
:10E3D000A56294F8510040B10CE0012070BD606866
:10E3E000B0F5827FF4D0E561F2E784F85050204622
:10E3F00000F044F8022084F851002068016821F000
:10E4000040010160A088218900F4827001F4044178
:10E410000843A18901F400610843217C01F0020155
:10E420000843217D01F001010843218B01F40071B3
:10E430000843217F01F03801084394F8201001F0CF
:10E4400080010843218D01F40051084321680860D0
:10E45000A069042101EA104094F8241001F0100191
:10E460000843216848602068C16921F40061C161E6
:10E470006565012084F85100002070BDF0B587B0BB
:10E48000044614216846FDF7FDFF324A2568002145
:10E49000314802230324052695421AD12E4A14320C
:10E4A000156845F480551560126802F48052059293
:10E4B000026842F001020260006802AA00F0010056
:10E4C000059082E85200E020CDE900036946234828
:10E4D0001DE0214A224F1032BD421CD1156845F47F
:10E4E00080451560126802F480420592026842F08D
:10E4F00002020260006802AD00F00200059085E8AB
:10E5000052004FF42040CDE9000369461548FFF75B
:10E51000D3FA07B0F0BD144EB542FAD1156845F4F0
:10E5200000451560126802F400420592026842F04C
:10E53000040202600068CDE9021400F004000590B6
:10E540004FF4A050CDE90003062004906946074827
:10E55000DDE700000030014030380240000002409A
:10E560000038004000040240003C00400008024027
:10E570002DE9F84F984616468A460446FFF7A6FB53
:10E58000814694F8510001281ED1BAF1000F73D0D2
:10E59000002E71D094F85000012815D0012784F87E
:10E5A0005070032084F8510000256565C4F830A040
:10E5B000A686E686A563A587E58765642564A068C9
:10E5C000B0F5004F03D00CE00220BDE8F88F2068C2
:10E5D000016821F0400101602068016841F4804138
:10E5E000016020680168490603D4016841F04001D8
:10E5F0000160E068B0F5006F606803D048B3012E99
:10E6000027D047E008B1012E1FD1206B2168008878
:10E61000C86006E020688168890709D5216B0988F0
:10E62000C160206B801C2063E08E401EE0860CE001
:10E63000FFF74CFBA0EB0901414503D3B8F1FF3FC5
:10E6400003D035E0B8F1000F32D0E08E0028E1D1E0
:10E6500023E0206B21680078087306E02068816859
:10E6600089070AD5216B09780173206B401C206350
:10E67000E08E401EE0860DE02BE0FFF727FBA0EBCD
:10E680000901414503D3B8F1FF3F03D010E0B8F1D1
:10E69000000F0DD0E08E0028E0D14A4641462046CA
:10E6A00002F06CFD08B120206065A06830B109E07F
:10E6B00084F8517084F85050032086E72068C168C0
:10E6C0008068009084F8517004F8505F60680028FA
:10E6D000F3D0012079E710B5401EB0F1807F01D35F
:10E6E000012010BD4FF0E02460610F21601703F09E
:10E6F00095FC0020A06107202061002010BD70471C
:10E70000704710B590F83C20012A22D0012280F8F1
:10E710003C20CA688C6822F4407222434C6822F480
:10E72000806222430C6822F4006222430C6922F4C6
:10E73000805222434C6922F400522243C9690023CB
:10E7400022F480420A4301684A6480F83C30002089
:10E7500010BD022010BD000070B590F83C20012AC9
:10E7600032D0012480F83C40022280F83D2003682A
:10E770005A689D6822F070060A6832435A60134B4B
:10E7800002689A4214D0B2F1804F11D0104B9A42D5
:10E790000ED0104B9A420BD00F4B9A4208D00F4B21
:10E7A0009A4205D00E4B9A4202D00E4B9A4204D1A7
:10E7B000496825F080031943916080F83D400021AD
:10E7C00080F83C10084670BD022070BD000001407A
:10E7D0000004004000080040000C0040000401401C
:10E7E000004001400018004010B5040003D094F828
:10E7F0003D0010B107E0012010BD002084F83C006E
:10E80000204600F01FF8022084F83D00211D2068FA
:10E8100002F030FE012084F8460084F83E0084F8BF
:10E820003F0084F8400084F8410084F8420084F8F6
:10E83000430084F8440084F8450084F83D0000203B
:10E8400010BD000038B505463A49036800203A4A31
:10E850008B4205D1106840F001001060106838E06C
:10E860003549091FB3F1804F2ED0344CA34234D127
:10E870000A6842F002020A600968324C01F00201A3
:10E8800000912F4921604FF0206161604021C4E96F
:10E89000021009012161490061618900C4E9061083
:10E8A000206260622046FEF773FF08B1FEF7F8FBB6
:10E8B000AC62002211461D20A563FFF7ABFABDE84C
:10E8C00038401D20FFF798BA086840F00100086042
:10E8D000086800F00100009038BD1B48834207D152
:10E8E000086840F008000860086800F00800F2E7D7
:10E8F0001648834207D1086840F020000860086885
:10E9000000F02000E7E71248834207D1106840F486
:10E9100080301060106800F48030DCE70D488342DE
:10E92000DAD1106840F400301060106800F4003054
:10E93000D1E70000000001404438024000040040DC
:10E940008860024048040020000C00400014004091
:10E95000004001400044014090F83D10012901D0E1
:10E9600001207047022180F83D100068114988425B
:10E9700014D0B0F1804F11D00F4988420ED00F490A
:10E9800088420BD00E49884208D00E49884205D0F3
:10E990000D49884202D00D49884204D1816801F0B6
:10E9A0000701062903D0016841F001010160002040
:10E9B00070470000000001400004004000080040D3
:10E9C000000C0040000401400040014000180040DD
:10E9D00070B5044690F83C000025012817D00126A8
:10E9E00084F83C60022084F83D002068826822F0B0
:10E9F000770222F47F4282600868502838D00DDC0C
:10EA000020284FD005DC90B3102811D14AE0022015
:10EA100070BD302846D040280AD13BE060282FD076
:10EA200070280DD0B0F5805F03D0B0F5005F12D034
:10EA3000012584F83D60002084F83C00284670BD24
:10EA4000CB68D1E90121206802F0FEFD20688168D1
:10EA500041F0770109E0CB68D1E90121206802F09B
:10EA6000F3FD2068816841F480418160E1E719E0AD
:10EA7000CA684968206802F0BBFE5021206806E0A1
:10EA8000CA684968206802F0C4FE6021206802F06C
:10EA9000E5FDCEE7CA684968206802F0A9FE40217A
:10EAA0002068F4E7226801461046F0E77047704797
:10EAB0002DE9F04104460068C66805694FF000077B
:10EAC000A90713D5B10711D5F91E016101202077DF
:10EAD000206880698007204602D0FFF7E8FF04E045
:10EAE00000F012F9204600F0A4F92777680716D540
:10EAF000700714D521686FF00400086102202077A8
:10EB00002068806910F4407F204602D0FFF7CFFFD5
:10EB100004E000F0F9F8204600F08BF92777280789
:10EB200015D5300713D521686FF00800086104205F
:10EB300020772068C0698007204602D0FFF7B7FF22
:10EB400004E000F0E1F8204600F073F92777E806CA
:10EB500016D5F00614D521686FF010000861082062
:10EB600020772068C06910F4407F204602D0FFF76C
:10EB70009EFF04E000F0C8F8204600F05AF927771D
:10EB8000E80708D0F00706D021686FF0010008619F
:10EB9000204600F0FBFA280608D5300606D5216885
:10EBA0006FF0800008612046FFF7A9FD680608D5D0
:10EBB000700606D521686FF040000861204600F01D
:10EBC000E6FAA8060AD5B00608D521686FF020003D
:10EBD00008612046BDE8F041FFF792BDBDE8F08135
:10EBE000F0B587B0044614216846FDF74BFC246855
:10EBF0003B4800233B49022201253B4E844210D171
:10EC0000086840F0100008600868694600F01000CD
:10EC100005904FF420608DE80D00CDE903353046B6
:10EC200024E03248B4F1804F12D0314F0325BC426A
:10EC300020D1086840F0040008600868694600F0C8
:10EC40000400059080208DE82D002A4804920DE0F4
:10EC50000C6844F001040C6009680095CDE90123BB
:10EC600001F00101CDE90451039313E0FEF724FF05
:10EC700007B0F0BD204FBC420ED10C6844F0010437
:10EC80000C60096801F0010105910E218DE80E006C
:10EC9000039204926946E9E7184884420DD1086856
:10ECA00040F0100008600868694600F01000059008
:10ECB00060208DE80D0030460FE011488442D7D126
:10ECC000086840F0020008600868694600F0020029
:10ECD0000590A0158DE80D000A48CDE90325C5E78C
:10ECE00000000140303802400010024000000240A5
:10ECF0000004004000080240000C004000400140B9
:10ED00000044014000040240704770B5044690F88A
:10ED10003C0000260D4601280FD0012084F83C005D
:10ED20006AB1042A1DD0082A2FD00C2A3FD0012610
:10ED3000002084F83C00304670BD022070BD206881
:10ED400002F094FC2068816941F00801816120682B
:10ED5000816921F004018161206881692A69114378
:10ED600011E0206802F0B2FC2068816941F4006182
:10ED700081612068816921F48061816120688169F5
:10ED80002A6941EA02218161D2E7206802F0D4FCBD
:10ED90002068C16941F00801C1612068C16921F0A2
:10EDA0000401C1612068C1692A69114311E020682A
:10EDB00002F0F6FC2068C16941F40061C16120687D
:10EDC000C16921F48061C1612068C1692A6941EA91
:10EDD0000221C161ACE710B5040003D094F83D00F6
:10EDE00010B107E0012010BD002084F83C0020464F
:10EDF00000F01EF8022084F83D00211D206802F07A
:10EE000039FB012084F8460084F83E0084F83F0076
:10EE100084F8400084F8410084F8420084F84300FC
:10EE200084F8440084F8450084F83D00002010BDBB
:10EE3000704770477047000010B50446022249B180
:10EE400004290ED0082913D094F84100012816D0C7
:10EE5000012010BD94F83E000128F9D184F83E202D
:10EE60000FE094F83F000128F2D184F83F2008E039
:10EE700094F840000128EBD184F8402001E084F8A8
:10EE800041200122206802F05DFB16492068164AE5
:10EE9000884201D0904203D1436C43F40043436461
:10EEA0002068884213D0B0F1804F10D00F498842BB
:10EEB0000DD00F4988420AD00E49884207D09042AF
:10EEC00005D00D49884202D00C49884204D181689E
:10EED00001F00701062903D0016841F0010101603A
:10EEE000002010BD0000014000040140000400406B
:10EEF00000080040000C00400040014000180040A5
:10EF00002DE9F04117460D0004464FF000060CD0E5
:10EF1000042D11D0082D16D094F84100022819D0E4
:10EF200094F84100012818D07CE094F83E000228B3
:10EF300010D094F83E00F5E794F83F00022809D07D
:10EF400094F83F00EEE794F84000022802D094F8CD
:10EF50004000E7E70220BDE8F081002F62D0002BDF
:10EF600060D04D494D4ADFF838C102204DB1042D23
:10EF700018D0082D27D084F841000C2D44D001264C
:10EF800087E084F83E00606AC163606A39460264C3
:10EF9000606AC0F84CC02268606A3432FEF762FCD6
:10EFA00088BB21E084F83F00A06AC163A06A3946AB
:10EFB0000264A06AC0F84CC02268A06A3832FEF72A
:10EFC00051FC00BB15E084F84000E06AC163E06AD0
:10EFD00039460264E06AC0F84CC02268E06A3C32FC
:10EFE000FEF740FC78B909E02068C16841F400717F
:10EFF0001EE02068C16841F4806119E02068C168A2
:10F0000041F4006114E00DE0206BC163206B3946D0
:10F010000264206BC0F84CC02268206B4032FEF7BF
:10F0200021FC08B1012096E72068C16841F48051B5
:10F03000C16001222946206802F084FA194920683B
:10F04000194A884201D0904203D1436C43F40043F3
:10F0500043642068884213D0B0F1804F10D0134928
:10F0600088420DD0124988420AD01249884207D0FE
:10F07000904205D01049884202D01049884204D1FC
:10F08000816801F00701062903D0016841F0010100
:10F09000016030465FE700005F150108BD150108FB
:10F0A000F515010800000140000401400004004083
:10F0B00000080040000C00400040014000180040E3
:10F0C00070B50D0004464FF0000607D0042D0CD09B
:10F0D000082D11D00C2D16D0012648E02068C168FB
:10F0E00021F40071C160606A13E02068C16821F4F6
:10F0F0008061C160A06A0CE02068C16821F40061F1
:10F10000C160E06A05E02068C16821F48051C160F7
:10F11000206BFEF75AFA00222946206802F012FA04
:10F12000184B41F2111120688A10984202D0164BF8
:10F13000984209D1036A0B4206D1036A134203D1F4
:10F14000436C23F4004343642068036A0B4206D1F6
:10F15000016A114203D1016821F00101016001201F
:10F160003DB1042D08D0082D09D084F84100304667
:10F1700070BD84F83E00FAE784F83F00F7E784F8B2
:10F180004000F4E700000140000401407047704770
:10F1900070477047F8B5016804460868CA684B694B
:10F1A00010F00F0F4FF000055AD003F0010602F4E3
:10F1B0009077374365D0C10705D0D10503D5616C81
:10F1C00041F001016164410705D5D90703D0616CA5
:10F1D00041F002016164810705D5D90703D0616C54
:10F1E00041F004016164010707D502F020013143B9
:10F1F00003D0616C41F008016164616C00293BD06F
:10F20000800604D5900602D5204602F042FB206815
:10F210004069616CC0F3801001F008010143204691
:10F220002BD002F00FFB20684069400621D52068F2
:10F23000143050E8001F21F0400140E80012002A7D
:10F24000F5D1E06BA8B172490165E06BFEF7BDF93D
:10F25000002811D0E06B016D01B0BDE8F040084717
:10F2600083060ED593060CD52046BDE8F84002F083
:10F2700010BB2046FFF78DFFF8BDFFF78AFF6564DE
:10F28000F8BD266B2023012E7ED1C6067CD5D6067E
:10F290007AD508684868009048694FF00206400631
:10F2A0004DD5E26B106840684FF480770004000C85
:10F2B0003AD0A18D814237D9E085D069B8422DD0AE
:10F2C00020680C3050E8001F21F4807140E80012E3
:10F2D000002AF5D12068143050E8001F21F0010108
:10F2E00040E80012002AF5D12068143050E8001FD1
:10F2F00021F0400140E80012002AF5D184F84230A4
:10F30000256320680C3050E8001F21F0100140E810
:10F310000012002AF5D1E06BFEF70EF96663A08DAE
:10F32000E18D401A81B206E0A18D8142A8D1D06959
:10F33000B842A5D166632046FFF72AFFF8BDA08D2D
:10F34000E18D401A81B2E08D0028F7D00029F5D078
:10F3500020680C3050E8002F22F4907240E800271B
:10F36000002FF5D12068143050E8002F22F0010260
:10F3700040E80027002FF5D184F84230256320684B
:10F380000C3050E8002F00E006E022F0100240E8C8
:10F390000023002BF3D1CDE705062BD5150629D583
:10F3A00094F841002128C9D1A068B0F5805F01D14F
:10F3B0002069B0B1206A411C216221680078486050
:10F3C000E08C401E0004000CE084B7D12068C168C6
:10F3D00021F08001C1602068C16841F04001C16036
:10F3E000F8BD206A0088C0F308004860206A801CCD
:10F3F0002062E5E74006F3D55006F1D5CA682046FD
:10F4000022F04002CA6084F8413000F025F9F8BDCE
:10F410003718010870B5040004D094F841000025A5
:10F4200010B106E0012070BD84F84050204600F085
:10F4300023F8242084F841002068C16821F4005199
:10F44000C160204602F086FA2068016921F49041EB
:10F4500001612068416921F02A0141612068C16889
:10F4600041F40051C1606564202084F8410084F8B3
:10F4700042006563002070BD70B586B0044614215B
:10F480006846FCF7FFFF2B4E226800212A48022322
:10F4900003240725B24222D1274A1432166846F0C7
:10F4A00010061660126802F010020592026842F01F
:10F4B00001020260006802AA00F00100059082E8E3
:10F4C00032006002CDE9000369461C48FEF7F4FAF9
:10F4D000002211462520FEF79DFC252025E0184E30
:10F4E000B24224D1144A1032166846F480261660BF
:10F4F000126802F480220592026842F00202026061
:10F50000006802AA00F00200059082E832004FF481
:10F510004060CDE9000369460A48FEF7CDFA0022B3
:10F5200011462720FEF776FC2720FEF765FC06B083
:10F5300070BD000000100140303802400000024061
:10F54000004800400004024090F84230202B01D0D7
:10F550000220704721B11AB10023036302F080BA80
:10F560000120704710B5124A04469068A0420BD1A2
:10F5700092F83C100E48126A0C3090470C49012258
:10F580003C312046FFF7E0FF0A4A9068A0420DD1C7
:10F5900092F83C100748126A0C3090470549204603
:10F5A0000122BDE810403C31FFF7CEBF10BD000086
:10F5B00084210020F42100202DE9F843044690F82E
:10F5C0004100984616460D46202802D00220BDE88C
:10F5D000F88385B17EB100206064212084F8410069
:10F5E000FEF774FBA6848146E684A0682027B0F568
:10F5F000805F02D003E00120E9E7206910B12E46C8
:10F6000000250EE000260CE08021204602F043FA9F
:10F61000A8B9C6B116F8010B21684860E08C401EFD
:10F62000E084E08C4B464FF00002CDF800800028CB
:10F63000EAD14FF04001204602F02DFA40B184F8A3
:10F6400041700320C3E735F8020BC0F30800E3E77D
:10F6500084F841700020BAE77047FEE72DE9F04FCB
:10F660000024DFF85880DFF85890DFF858A0164FD4
:10F6700087B001264FF4FA7BCDF81090CDE90586CE
:10F680000F211248CDE9001BCDE9026A30F8143091
:10F690000A30A1B250F82420C4EB041007EB80001C
:10F6A000054600F0BDF80848F03040F82450641CCE
:10F6B000042CE1DB07B0BDE8F08F0000D3F60008B2
:10F6C000D1F60008D5F600083C2300207A0000207F
:10F6D000704770477CB50446042827D2144801259A
:10F6E00050F824100A7B72B90D731249B1F8032047
:10F6F000ADF8002049798DF8021050F82400FF225F
:10F700000099036998470C48015D00290ED1055501
:10F7100002210B30FDF7CDFC08490020CDE90001A6
:10F720000146631C0E220648FDF743F87CBD00002D
:10F73000040100203000002065000020C8050020E2
:10F740005C21002008210148FDF7B7BC38010020EA
:10F7500070B502211248FEF7A7FA124900250028C9
:10F76000114C086815D0406A642811D904210F484B
:10F77000FDF7A3FC208800280AD0401E0004000CDE
:10F780002080A57004D1E07E002801D00320E0761F
:10F7900070BD4562201DA16ABDE8704008470000A9
:10F7A000000802407003002064220020380100207D
:10F7B00010B50446008808440004000C208006D0E0
:10F7C0000120E076FEF782FA60610020A07010BD93
:10F7D00010B56AB161B1002308E000BF50F82340C2
:10F7E000944201D1012010BD5B1CDBB28B42F5D3EA
:10F7F000002010BD10B5FFF731FFFCF7F7FE01F058
:10F800008DFD01210448FDF754FCBDE810400221A4
:10F810000248FDF74EBC00003801002070000020B7
:10F820002DE9F0470400DDE90DA5DDE90B96DDE9E2
:10F8300009C7DDF820801BD0218062602381CDB113
:10F840000020A072E072C4E9038CFEF73FFA606109
:10F85000FEF73CFAA0610020E06184F82000FEF78A
:10F8600035FA2434A4E8810264E80C6A84F838503C
:10F87000BDE8F0870120E4E7F8B50546032821D26A
:10F88000022D1FD8104E002406F1200736F8141060
:10F8900057F82400FEF708FA01280BD0641CE4B2E4
:10F8A000032CF3D3002003460146009012220748A0
:10F8B000FCF756FF022000906B1C04220021034835
:10F8C000FCF74EFFF8BD0000740000205C21002012
:10F8D00070472DE9F0410F46050078D00024A0467E
:10F8E00094E055F82400002872D001894068FEF7A2
:10F8F000DBF955F82410C872FEF7E8F9064655F80A
:10F900002400C27A90F838108A4204D1837A8B425C
:10F9100001D0466174E08A423CD0837A8B4239D16F
:10F92000866155F824104869864201D3301A02E0F6
:10F93000C043401C3044C86155F82400C268C16906
:10F94000914224D390F8201011B102290ED057E033
:10F95000012180F8201055F82400C16A09B10088FF
:10F96000884755F8241081F8208007E080F820802F
:10F9700055F82400416B09B10088884755F82400E8
:10F980008169416155F824008169416238E08169EB
:10F99000416135E08A4231D14169711AC16155F83E
:10F9A0002400026991422BD390F8201011B1022952
:10F9B0000FD025E0022180F8201055F82400016BBB
:10F9C00009B10088884755F82400466218E020E015
:10F9D0001AE0816A79B14FF47A72B2FBF1F1426AAE
:10F9E000B21A91420CD8466255F82400016B39B125
:10F9F0000088884704E04FF0FF31F0E780F820806E
:10FA000055F82400C17A8172641CA4B2BC42FFF490
:10FA100068AFBDE8F081000038B50446042811D273
:10FA2000022C07D801200090631C04220021064804
:10FA3000FCF796FE032C05D1BDE8384001210348B0
:10FA4000FDF73BBB38BD00005C21002038010020E1
:10FA50001CB5FEF73BF942F21071884203D904212C
:10FA60001A48FFF736FF04211948FFF732FFFCF769
:10FA70003DFE0C211748FFF72CFF02211648FDF729
:10FA800011FB002820D114490B390A5C1AB1401C23
:10FA9000C0B20428F9D3042816D110490520002348
:10FAA000C8760F49FF20CDE900010E2219460D4806
:10FAB000FCF77FFEFEF70AF90B490860BDE81C4021
:10FAC00002210548FDF7F9BA1CBD00002C240020D6
:10FAD0002C2500200C28002070000020642200202B
:10FAE000C80500205C2100201801002010B5029CF0
:10FAF00001608280C380002184600173014901613B
:10FB000010BD000095FC00082DE9FC410446164696
:10FB10000F46DDE9081094F820200A9D012A0ED135
:10FB2000002284F82020CDE90010324639462046D4
:10FB300001F009F932463946204600F083FF002DD6
:10FB400002D0012084F82000BDE8FC811FB54749A0
:10FB50000323454AA1F160008DE80F002023042211
:10FB6000434900F5F66000F04BFF0220414C009045
:10FB70002346042240494148FCF7E5FC042000905C
:10FB80003E48234608223C491830FCF7DCFC08209C
:10FB900000903A4823460C2237493030FCF7D3FC1A
:10FBA00020200090364C3548234600223549483005
:10FBB000FCF7C9FC4020009030482346042231491C
:10FBC0006030FCF7C0FCA01500902C482E4B0022A2
:10FBD0002E497830FCF7B7FC28490020243901F081
:10FBE00007F92649012001F003F9244901201831C1
:10FBF00001F0FEF821490120303101F0F9F81F49E8
:10FC00000120483101F0F4F81C490120603101F075
:10FC1000EFF81A490120783101F0EAF817491C4C35
:10FC200024390723002201F1B4000094FFF75EFF9E
:10FC300012490F232439082201F1C8000094FFF76C
:10FC400055FF0E4917232439102201F1DC000094DE
:10FC5000FFF74CFF09491F232439182201F1F00056
:10FC60000094FFF743FF1FBDE80000209C28002000
:10FC7000E002002000000240280300201030002095
:10FC800000100240B80300200004024000040020DD
:10FC9000302300207CB50446006815460E46C06936
:10FCA00001F00AFB002812D0A068E9B233460078C0
:10FCB000CDE90001E288A188206801F044F8E288DB
:10FCC000A188206802B0BDE8704000F0BBBE7CBDDA
:10FCD0002DE9FF412448DFF89480254D0078254E1A
:10FCE000002708B302281DD100242A7956F82400E1
:10FCF000FF230021FCF747FC641CE4B2062CF4D37C
:10FD00002878CDE900070297B8F81810ADF80C1064
:10FD100098F81A008DF80E00202200211648039B47
:10FD2000FFF7F2FEBDE8FF812878FF218DE8830010
:10FD3000B8F81510ADF80C1098F817008DF80E00F3
:10FD4000202200210C48039BFFF7DEFE00242A79C5
:10FD500056F82400FF230021FCF715FC641CE4B2D4
:10FD6000062CF4D3DEE70000320100203000002032
:10FD700030230020EC000020EC2F0020F0B50346DB
:10FD80000D46408919891446884201D30220F0BDEE
:10FD90002946184600F062F808B10120F0BD0020A5
:10FDA000024605211E8908E000EB400C1F6801EBAC
:10FDB0008C0C17F80C7027B1401C8642F4DC032031
:10FDC000F0BD00EB40001F6801EB800101267E546E
:10FDD000196811EB8000F2D00571046082605968E7
:10FDE00011B9586004E011468A68002AFBD1886086
:10FDF0005889401C58810020F0BD016000214160FD
:10FE000002814181704710B54489426800230CBBD0
:10FE1000022010BD14798C421AD19168B3B1996057
:10FE20000368D11A0C2291FBF2F1002909DB028947
:10FE30008A4206DD002201EB4101052404EB810129
:10FE40005A544189491E4181002010BD4160E7E7B5
:10FE500013469268002ADDD1012010BD406805E0FC
:10FE600002798A4201D10120704780680028F7D1C9
:10FE700070470000094808B5016841F400110160AD
:10FE80000068002200F40010009011461020FDF7D9
:10FE9000C1FFBDE808401020FDF7AEBF303802407A
:10FEA0002DE9F04786B014216846FCF7EBFA674865
:10FEB0000024016841F010010160016801F01001A7
:10FEC0000591016841F004010160016801F004013D
:10FED0000591016841F080010160016801F0800135
:10FEE0000591016841F001010160016801F0010123
:10FEF0000591016841F002010160016801F0020111
:10FF00000591016841F0080101600068504F00F060
:10FF100008000122059051033846FDF7D2FE002269
:10FF20004FF448413846FDF7CCFEDFF828A1002207
:10FF300010215046FDF7C5FE0122D1035046FDF7C2
:10FF4000C0FEDFF8148140F20246002231464046EE
:10FF5000FDF7B7FEDFF804910022B9144846FDF71B
:10FF6000B0FE012291034846FDF7ABFE4FF4684016
:10FF700000900125CDE90154694638460394FDF708
:10FF80009BFD40F20930CDE90004694638460294F1
:10FF9000FDF792FD062000904FF48810CDE9010492
:10FFA00069463846FDF788FD48F210000090CDE91B
:10FFB0000154694650460394FDF77EFD7E20CDE94D
:10FFC0000004694648460294FDF776FD4FF4C07080
:10FFD000CDE90004694640460294FDF76DFD0096A8
:10FFE000CDE90154694640460394FDF765FD4FF4A1
:10FFF000A0400090CDE90154694648460394FDF7BE
:020000040801F1
:100000005BFD47F6FF70CDE9000469461448029491
:10001000FDF752FD2802CDE90004694650460294DE
:10002000FDF74AFD002202210720FDF7F3FE07201D
:10003000FDF7E2FE002211460820FDF7EBFE082046
:10004000FDF7DAFE06B0BDE8F08700003038024068
:10005000000802400000024000100240000402407C
:10006000000C0240094810B50749016005214160B4
:1000700040F6B8318160FDF72FFE002803D0BDE8BF
:100080001040FDF70DB810BD003000403C010020CD
:100090000F4810B50D4901604FF482714160002195
:1000A0008160C1604FF400720161C0E90512C16155
:1000B0000162416281620A21C162FEF781F9002872
:1000C00003D0BDE81040FCF7EBBF10BD003001408D
:1000D00048010020114810B50F4901604FF48271AA
:1000E00041604FF40041816000210222C0E9031207
:1000F00001224261520282613822C0E90721416235
:1001000081620A21C162FEF75BF9002803D0BDE8D5
:100110001040FCF7C5BF10BD00380040A001002012
:10012000114810B50F4901604FF4827141604FF4DE
:100130000041816000210222C0E9031201224261D4
:10014000520282613822C0E90721416281620A219C
:10015000C162FEF735F9002803D0BDE81040FCF776
:100160009FBF10BD003C0040F801002010B588B0D2
:100170001C216846FCF786F9154814490024C0E99B
:1001800000144FF6FF71C0E90241802104618161D2
:10019000FEF72AFB08B1FCF783FF0D48FEF71BFEB4
:1001A00008B1FCF77DFF6020CDE900040294002235
:1001B000694607480494FEF7A8FD08B1FCF770FFF4
:1001C0000348FEF70DFD08B010BD000000440140DB
:1001D0000004002010B596B000240F9410941194E0
:1001E000129413941C2168461494FCF74BF92021B7
:1001F00007A8FCF747F92C482A49C0E900144FF634
:10020000FF71C0E9024180210461C0E90541FEF7A8
:10021000EBFA08B1FCF744FF4FF480500F900FA9A0
:100220002148FEF7D5FB08B1FCF73AFF1E48FEF760
:10023000D2FD08B1FCF734FF139413A91A481494A3
:10024000FEF78AFA08B1FCF72BFF6020CDE9000425
:10025000029403940494059400226946124806947B
:10026000FEF753FD08B1FCF71BFF042269460E4858
:10027000FEF74BFD08B1FCF713FF079408940994AF
:100280004FF400500A94CDE90B4007A906480E949C
:10029000FEF737FA08B1FCF703FF0348FEF7A0FCAE
:1002A00016B010BD000001405002002010B58EB005
:1002B00000240794089409940A940B941C2168461E
:1002C0000C94FCF7DFF81F484FF08041016040F2CA
:1002D0001F31C0E9011440F63301C0E90314802145
:1002E0008161FEF781FA08B1FCF7DAFE4FF4805025
:1002F000079007A91348FEF76BFB08B1FCF7D0FE87
:100300001048FEF768FD08B1FCF7CAFE0B940BA974
:100310000C480C94FEF720FA08B1FCF7C1FE6020EF
:10032000CDE90004022002900022694604940548A9
:10033000FEF7EBFC08B1FCF7B3FE0248FEF750FCF9
:100340000EB010BD9802002010B58EB000240794A6
:10035000089409940A940B941C2168460C94FCF7A9
:1003600091F81E481C4901600621C0E901140E21C4
:10037000C0E9031480218161FEF736FA08B1FCF769
:100380008FFE4FF48050079007A91448FEF720FB1A
:1003900008B1FCF785FE1148FEF71DFD08B1FCF71A
:1003A0007FFE0B940BA90D480C94FEF7D5F908B10C
:1003B000FCF776FE6020CDE9000402940422694631
:1003C00006480494FEF7A1FC08B1FCF769FE034857
:1003D000FEF706FC0EB010BD00040040E002002055
:1003E00010B58EB000240794089409940A940B94D5
:1003F0001C2168460C94FCF745F826482449C0E9BE
:1004000000144FF6FF71C0E902418021046181614F
:10041000FEF7EAF908B1FCF743FE4FF4805007906D
:1004200007A91C48FEF7D4FA08B1FCF739FE1948B1
:10043000FEF7D1FC08B1FCF733FE0B940BA915486D
:100440000C94FEF789F908B1FCF72AFE6020CDE98B
:1004500000040294042269460E480494FEF755FCF9
:1004600008B1FCF71DFE082269460A48FEF74DFC5C
:1004700008B1FCF715FE0C2269460648FEF745FC5C
:1004800008B1FCF70DFE0348FEF7AAFB0EB010BD45
:10049000000C0040280300201CB500240F480094E5
:1004A0000D49019401605321C0E901144FF6FF7119
:1004B000C16080218161FEF797F908B1FCF7F0FD7A
:1004C0000094694605480194FEF746F9002801D0DA
:1004D000FCF7E6FD1CBD0000001400407003002086
:1004E00010B58CB000240794089409941C21684628
:1004F0000A94FBF7C7FF1E481C49C0E900144FF6D9
:10050000FF71C0E90241802104618161FEF76CF94D
:1005100008B1FCF7C5FD4FF48050079007A91448B7
:10052000FEF756FA08B1FCF7BBFD1148FEF753FC85
:1005300008B1FCF7B5FD6020CDE90004029400226B
:1005400069460B480494FEF7E0FB08B1FCF7A8FDF0
:10055000042269460648FEF7D8FB08B1FCF7A0FD67
:100560000348FEF73DFB0CB010BD00000040014009
:10057000B80300200C4810B50A4901604FF4E1317E
:100580004160002181600C22C160C0E904128161D8
:10059000C161FEF73FFF002803D0BDE81040FCF723
:1005A0007FBD10BD00100140A80400200C4810B50C
:1005B0000A4901604FF4E1314160002181600C2261
:1005C000C160C0E904128161C161FEF723FF002808
:1005D00003D0BDE81040FCF763BD10BD00480040EB
:1005E000F004002010B5FCF7ADF92C48FDF7A3FB93
:1005F00000F0AEF82948FDF79EFBFFF729FA2748DF
:10060000FDF799FBFCF7CAF92448FDF794FBFDF7C9
:100610005DFB234CA168401AB0F5FA7F07D94FF46F
:1006200000512048FDF745FBFDF750FBA0601B483B
:10063000FDF781FBFFF74CFB1848FDF77CFBFDF74E
:1006400045FBE168401A0A2809D91748416A8847DA
:1006500015482838416A8847FDF738FBE0600F48A5
:10066000FDF769FB02211148FCF71CFD60B1FDF7A5
:100670002DFB6168401AB0F57A6F05D90C4901204D
:100680000873FDF723FB60600448FDF754FBFCF79B
:1006900025FEBDE810400148FDF74DBB3C010020A0
:1006A00014010020000802401831002070000020D2
:1006B000D82200201CB5FCF727FEFFF79BF8FCF7BB
:1006C0009FFAFFF743FAFCF7BDFBFCF7ABF80D48C8
:1006D000002400948368042202210B48FCF740F8B0
:1006E00000230322022108480094FCF739F8074848
:1006F0000023CDE90040092219460548FCF759F8C6
:100700001CBD00003023002070210020C8050020FF
:100710005C210020FEE700002DE9F0410B4F7D68D1
:10072000FDF7D4FA064600240AE02868301AFA28B1
:1007300003D929790548FFF766FBAD68641CE4B26C
:100740007889A042F1D8BDE8F0810000D4050020EE
:100750002DE9FC414FF4805529465648FCF7A2FC90
:10076000002450B103230422002153480094FBF7D6
:10077000F7FF29464F48FCF79CFC4FF400652946DB
:100780004C48FCF78FFC50B100230D2219464A4813
:100790000094FBF7E5FF29464648FCF78AFC012157
:1007A0004448FCF77FFC50B100230122194642481F
:1007B0000094FBF7D5FF01213E48FCF77AFC0221AB
:1007C0003C48FCF76FFC50B10023022219463A481E
:1007D0000094FBF7C5FF02213648FCF76AFC0821AC
:1007E0003448FCF75FFC18B108213248FCF761FC83
:1007F00010213048FCF756FC304D314E58B1CDE950
:1008000000453388082200212B48FBF7D2FF102136
:100810002848FCF74EFC04212648FCF743FC58B15D
:10082000284800940522038800212348FBF798FFFD
:1008300004212048FCF73DFC4FF4005739461D4881
:10084000FCF730FC58B101200090338805220021CC
:100850001948FBF785FF39461648FCF72AFC4FF488
:10086000804631461348FCF71DFC58B10022164B58
:1008700011461148CDE90045FBF79BFF31460D4875
:10088000FCF717FC4FF4004529460A48FCF70AFC20
:1008900050B100231122194607480094FBF760FF6E
:1008A00029460448FCF705FC00F0E6FABDE8FC41E7
:1008B000FFF732BF380100205C210020C80500206E
:1008C0009422002064220020D925350110B5046847
:1008D000002061B104290CD008290CD0206463B138
:1008E000042B0DD01168082B0DD0086410BD606377
:1008F000F5E7A063F3E7E063F1E71168486310BD33
:100900001168886310BDC86310BDF0B5C568DDE926
:10091000057C64267D43B5FBF6F500240068BCF138
:10092000000FADB20DD041B3042928D0082928D03A
:10093000046443B3042B29D01068082B29D0056424
:10094000F0BD61B104290CD008290CD0056463B155
:10095000042B0DD01068082B0DD00464F0BD456346
:10096000F5E78563F3E7C563F1E710684463F0BD1D
:1009700010688463F0BDC463F0BD4463D9E7846349
:10098000D7E7C463D5E710684563F0BD1068856399
:10099000F0BDC563F0BD10B5C468006869B1042935
:1009A0000DD008290DD004646BB1042B0FD0116851
:1009B000D068082B0FD0086410BD4463F4E784634B
:1009C000F2E7C463F0E71168D068486310BD1168AE
:1009D000D068886310BDC86310BDFEE770477047DC
:1009E00010B5044608680068C00608D4D4E90001C0
:1009F000FEF766FBE069BDE8104000F054BC10BD96
:100A00002DE9F0410DF11C08044698E86100069FAD
:100A1000C4E900122381C4E903700020A082E082AF
:100A2000208360830121E56184F8201084F821008F
:100A300084F82260284600F036FC2046BDE8F041EC
:100A400000F06BB92DE9F04116460D46044600F062
:100A500064F994F822000A220323012854D00228C2
:100A60007ED004287DD003287CD047E1002105EB0F
:100A70004500E768C1F1070C3F5C27FA0CF7FF0758
:100A8000276901EBC00C02D027F81C2001E027F8F1
:100A90001C30491C89B20829EBD3082110F1010749
:100AA000D4F80CC0C1F10F0E1CF807C02CFA0EFCD4
:100AB0005FEACC7CD4F810C001EBC00E02D02CF859
:100AC0001E2001E02CF81E30491C89B21029E7D302
:100AD0001021871CD4F80CC0C1F1170E1CF807C0F8
:100AE0002CFA0EFC5FEACC7CD4F810C001EBC00EEF
:100AF00002D02CF81E2001E02CF81E30491C89B2CF
:100B00001829E7D36D1CADB2B542AFD9F6E000218C
:100B100005EB4500E768C1F1070C3F5C27FA0CF7CD
:100B2000FF07276901EBC00C02D027F81C2001E069
:100B300027F81C30491C89B20829EBD30821871CEF
:100B4000D4F80CC0C1F10F0E1CF807C02CFA0EFC33
:100B50005FEACC7CD4F810C001EBC00E06D002E0F6
:100B600026E077E0C8E02CF81E2001E02CF81E30CB
:100B7000491C89B21029E3D31021471CD4F80CC0BA
:100B8000C1F1170E1CF807C02CFA0EFC5FEACC7CF2
:100B9000D4F810C001EBC00E02D02CF81E2001E0EA
:100BA0002CF81E30491C89B21829E7D36D1CADB250
:100BB000B542ACD9A2E0002105EB450010F10207D7
:100BC000D4F80CC0C1F1070E1CF807C02CFA0EFCBB
:100BD0005FEACC7CD4F810C001EBC00E02D02CF838
:100BE0001E2001E02CF81E30491C89B20829E7D3E9
:100BF0000821E768C1F10F0C3F5C27FA0CF7FF07EB
:100C0000276901EBC00C02D027F81C2001E027F86F
:100C10001C30491C89B21029EBD3102110F10107B7
:100C2000D4F80CC0C1F1170E1CF807C02CFA0EFC4A
:100C30005FEACC7CD4F810C001EBC00E02D02CF8D7
:100C40001E2001E02CF81E30491C89B21829E7D378
:100C50006D1CADB2B542AED950E0002105EB4500A8
:100C600010F10107D4F80CC0C1F1070E1CF807C041
:100C70002CFA0EFC5FEACC7CD4F810C001EBC00E5D
:100C800002D02CF81E2001E02CF81E30491C89B23D
:100C90000829E7D30821E768C1F10F0C3F5C27FA68
:100CA0000CF7FF07276901EBC00C02D027F81C20C6
:100CB00001E027F81C30491C89B21029EBD3102120
:100CC00010F10207D4F80CC0C1F1170E1CF807C0D0
:100CD0002CFA0EFC5FEACC7CD4F810C001EBC00EFD
:100CE00002D02CF81E2001E02CF81E30491C89B2DD
:100CF0001829E7D36D1CADB2B542AED920894FF6A5
:100D0000FF71C01D00EB400001EAC003D4E90001FF
:100D10002269BDE8F041FEF7F3B801894FF6FF7292
:100D200001EB410102EAC101002304E0026922F85B
:100D30001130491C89B20289D21D02EB4202B1EB8B
:100D4000C20FF3D370472DE9F8431F46DDE908864B
:100D5000154681460C4608E043463A462146484639
:100D6000009600F006F8641CA4B2AC42F4D9BDE8C9
:100D7000F883F0B50589059C8D421AD95C43D5B23C
:100D8000654340F6F613B5FBF3F5C66801EB410188
:100D90007554C2F307256543B5FBF3F5C2F307426B
:100DA0006243C7684E1CB2FBF3F2BD55C068891C94
:100DB0004254F0BD10B50446018940680122FCF799
:100DC00080FF218A0122E068FCF77BFF227E6423FA
:100DD00061692068FDF7CCFB218900226068FCF77F
:100DE00070FF218AE068BDE810400022FCF769BF6F
:100DF00070B50D0007D01F4C38B1012815D002285E
:100E000023D0042070BD012070BD21782A4660687F
:100E1000FEF7DEFCF8B920780C2821D2616841F891
:100E200020502078401C207022E061782A46A0687B
:100E3000FEF7CEFC78B960780C2811D2A16841F891
:100E400020506078401C607012E0A1782A46E0686B
:100E5000FEF7BEFC08B1022070BDA0780C2801D3BB
:100E6000032070BDE16841F82050A078401CA070BC
:100E7000002070BD500000202DE9F047154F7C6820
:100E8000FCF724FF064600254FF47A7807F6781918
:100E90001AE02068301A404513D92079C0EBC00110
:100EA00009EB41010C4801F00FF826602179C1EBF4
:100EB000C10209EB42004078032802D30548FEF73F
:100EC000A2FFA4686D1CEDB27889A842E1D8BDE804
:100ED000F0870000C80500205C21002002480521A1
:100EE000016041608160704730230020002803D0FA
:100EF0000021C18001814181704700280AD0018909
:100F0000C2889142018901D282881144C288891A1B
:100F100041814089704781884089081A80B27047B2
:100F2000002817D0016082800021C18001810A4A17
:100F3000C2600A4A02610A4A42610A4A82610A4A56
:100F4000C2610A4A02620A4A42620A4A82620A4A42
:100F5000C2624181704700007D0F01088B0F0108BC
:100F6000AB100108091001083F1001089D0F01088E
:100F7000170F0108FB0E0108ED0E010818B140899A
:100F800008B1002070470120704718B1418980885E
:100F9000814201D101207047002070472DE9F041C6
:100FA000154688460446FFF7A8FF854200D9054646
:100FB000A088E188401A86B2E1882068AE420144E8
:100FC0000BD32A464046FBF7E6F9E088A18828447F
:100FD000B0FBF1F201FB12000FE032464046FBF796
:100FE000DAF9AA1B174608EB06002168FBF7D3F9CC
:100FF000A08897FBF0F100FB1170E0806089401B36
:1010000060812846BDE8F08170B50D46040003D02C
:1010100015B1FFF7B3FF08B1002070BDE18820686B
:10102000405C2870E088A188401CB0FBF1F201FB15
:101030001200E0806089401E6081012070BD2DE9B2
:10104000F041154688460446FFF765FF854200D902
:101050000546A0882189401A86B221892068AE42BF
:1010600008440BD32A464146FBF795F92089A1880D
:101070002844B0FBF1F201FB12000FE0324641467A
:10108000FBF789F9AA1B174608EB06012068FBF756
:1010900082F9A08897FBF0F100FB11702081608934
:1010A000284460812846BDE8F08170B50D460400F3
:1010B00002D0FFF76AFF08B1002070BD21892068C7
:1010C00045542089A188401CB0FBF1F201FB1200BD
:1010D00020816089401C6081012070BD2DE9F041B4
:1010E000164688460446002500F10C073EE0626A79
:1010F000211D38469047C8B3207810B1012835D15A
:1011000009E020796178884230D104F140016854C7
:101110000120207028E094F8610094F86010884263
:1011200004D204F140012279425400E02570207974
:10113000A178884215D194F86120701E824210DB9C
:10114000257004F140014046521CFBF724F9A26EC1
:101150001AB141462046904718B1E16E09B14046A8
:10116000884794F86100401C84F86100A169384602
:1011700088470028BBD0BDE8F0810000F8B51546CF
:101180000E460B46009204460122022100F02CF884
:10119000A0B9134813490068B0FBF1F04FF47A711D
:1011A000484300906068B0F5827F0DD1334600223D
:1011B00080212046009500F017F870B1606D40F076
:1011C000200060650320F8BD009830B1401E0090FB
:1011D00020688068C0430006F6D50020F8BD0000F6
:1011E0000000002000366E012DE9F8431E469146AE
:1011F00088460446089DFCF769FD401B351AFCF73C
:1012000065FD074626480068C0F3CB3068430AE016
:10121000701C09D0FCF75AFDC01BA8420FD275B153
:101220000098B8B3401E00902068816838EA010039
:1012300033D000214945EBD10020BDE8F883206878
:10124000416821F0E00141606068B0F5827F0BD118
:10125000A068B0F5004F02D0B0F5806F04D12068CF
:10126000016821F040010160A06AB0F5005F09D17A
:101270002068016821F4005101602068016841F490
:1012800000510160012084F85100002084F85000D2
:101290000320D2E7FFE70025C6E70121CAE70000E7
:1012A0000000002070470188012903D0012101803E
:1012B0000846704700207047018819B1002101805D
:1012C000012070470020704710B5C36814245B1CD0
:1012D000B3FBF4F32D3253435A22B3FBF2F200680E
:1012E00092B229B1042905D0082905D0026410BDA5
:1012F000426310BD826310BDC26310BD7CB515464C
:101300000E46C269017ECDE900121C4643692246A1
:1013100029463046FBF776FE7CBD00002DE9F04FF4
:101320000024DFF85490DFF854A0154F87B0A04692
:1013300001264FF4487BCDF81080CDE905960F21AA
:101340001048CDE9001BCDE9026A30F8143030387E
:10135000A1B250F82420C4EB041007EB800005462E
:10136000FEF75EFA084840F82450641C0C2CE2DBBF
:1013700007B0BDE8F08F00008D1301089513010838
:101380003C250020D00000200C2800207047FCF7EE
:1013900098BC00001CB50C2808D2054A0021CDE9F4
:1013A0000012034610220348FBF703FA1CBD00009D
:1013B000C80500205C210020FCF7C4BC30B593B008
:1013C00030216846FBF75EF814210CA8FBF75AF8A9
:1013D0001F480025016841F080510160006800F05D
:1013E000805011901B48016841F480410160006801
:1013F000022400F480401190092000904FF48030C6
:1014000001900120CDE9050480050790192008907E
:101410004FF4A870CDE9090404200B906846FCF74E
:1014200017FE08B172B6FEE70CA90F2081E8310063
:101430004FF4A0500F904FF48050109005210CA84D
:10144000FCF71AFD002801D072B6FEE713B030BDDC
:1014500040380240007000400248016841F47001C9
:101460000160704788ED00E00148FDF721BB0000F6
:10147000E0020020F0B50268274B284D284E294F86
:10148000294C4FF0804C984209D0604507D0A842C3
:1014900005D0B04203D0B84201D0A04204D122F01E
:1014A000700E4A6842EA0E0298421BD0604519D07D
:1014B000A84217D0B04215D0B84213D0A04211D0E4
:1014C0001A4DA8420ED01A4DA8420BD0194DA84271
:1014D00008D0194DA84205D0184DA84202D0184D89
:1014E000A84203D122F44075CA682A434D6922F00C
:1014F00080022A438D68C5620D688562984201D0DA
:10150000A04201D109690163016841F00401016051
:10151000012141610260F0BD000001400004004073
:1015200000080040000C0040000401400040014061
:10153000004401400048014000180040001C0040E9
:101540000020004010B501F01F030121046A9940FA
:101550008C430462016A9A401143016210BD10B5C8
:10156000846B0121626A824205D12177C069F8B992
:1015700084F83E101CE0A26A824206D10222227741
:10158000C069A8B984F83F1012E0E26A824206D12D
:1015900004222277C06958B984F8401008E0226B11
:1015A000824205D108222277C06908B984F8411027
:1015B0002046FDF73EFC0020207710BD10B5846B5F
:1015C000616A814201D101200DE0A16A814201D10D
:1015D000022008E0E16A814201D1042003E0216B8E
:1015E000814201D1082020772046FDF723FC00200E
:1015F000207710BD10B5846B0121626A824203D14D
:10160000217784F83E1019E0A26A824204D10220B8
:10161000207784F83F1011E0E26A824204D104206E
:10162000207784F8401009E0226B824204D1082020
:10163000207784F8411001E084F83D102046FDF742
:1016400035FA0020207710BD10B5846842EA0322E5
:1016500024F47F440A432243826010BD826822F052
:1016600070020A4342F0070181607047F0B5036AD7
:10167000026A22F00102026242688469124E24F07A
:1016800073050C682C4323F002058B682B430D4D2A
:10169000A84201D0B04205D123F00807CB683B43F4
:1016A00023F00403A84201D0B04205D14D6922F4D1
:1016B000407215438A692A434260846149684163E4
:1016C0000362F0BD0000014000040140F0B5026A71
:1016D000036A23F010030362436884690D6824F4ED
:1016E000E64444EA05248D6822F0200242EA05120D
:1016F0000F4D104EA84201D0B04206D1CF6822F063
:10170000800242EA071222F04002A84201D0B04211
:1017100007D14D6923F4406343EA85038D6943EAA9
:10172000850343608461496881630262F0BD000003
:101730000000014000040140F0B5026A036A23F48E
:10174000807303624368C46922F4007224F0730555
:101750000C68124E2C438D6842EA05220E4DA842B9
:1017600001D0B04206D1CF6822F4006242EA0722DB
:1017700022F48062A84201D0B04207D14D6923F41F
:10178000405343EA05138D6943EA05134360C4617E
:101790004968C1630262F0BD0000014000040140DD
:1017A00030B5046A026A22F4805202624268C36958
:1017B0000D6823F4E64343EA05238D6824F40054BE
:1017C00044EA0534084DA84202D0084DA84204D18D
:1017D0004D6922F4804242EA85124260C361496841
:1017E0000164046230BD00000000014000040140BB
:1017F00010B5036A046A24F001040462846924F0C9
:10180000F00444EA021423F00A020A4384610262EB
:1018100010BD10B5036A046A24F0100404628469E0
:1018200023F0A00324F4704444EA023243EA011195
:101830008261016210BD10B5806B0021C185FDF78A
:10184000A8FC10BD01680C3151E8002F22F4907201
:1018500041E80023002BF5D10168143151E8002F35
:1018600022F0010241E80023002BF5D1016B012990
:1018700009D101680C3151E8002F22F0100241E833
:101880000023002BF5D1202180F8421000210163B4
:10189000704708B590F84210222901D0022008BDF7
:1018A00082684FF480539A4201D1016921B1816A63
:1018B0009A421BD04AB10AE00268816A5268C2F3B8
:1018C00008020A80816A891C08E0026972B1026814
:1018D000526802F07F020A70816A491C8162C18DE0
:1018E000491E0904090CC18503D01BE00268526837
:1018F000F1E70168CA6822F02002CA600168CA687C
:1019000022F48072CA6001684A6922F001024A61C9
:10191000202180F8421000214163026B012A03D08C
:10192000FDF720FE002008BD016301680C3151E87D
:10193000002F22F0100241E80023002BF5D10168AE
:101940000A68D20602D50A6849680091818DFDF7C0
:101950001FFCE7E770B5044600680169E26821F4FE
:101960004051114301612169A068E269084361693E
:10197000114308432168CA6849F20C639A43024341
:10198000CA6020684169A26921F440711143416134
:1019900031492068884202D03049884202D1FCF7A0
:1019A00015FB01E0FCF702FBE26900231921642525
:1019B0003226B2F5004F626828D0A0FB0101930FD8
:1019C0009200FAF771FC0146B0FBF5F06FF01802D7
:1019D000504301EB800006EB0010B0FBF5F000F087
:1019E000F002B1FBF5F002EB0012B1FBF5F06FF085
:1019F0001803584301EB800006EB0010B0FBF5F034
:101A000000F00F0021681044886070BDA0FB010148
:101A100092185B41FAF748FC0146B0FBF5F0020171
:101A2000B1FBF5F06FF01803584301EB800006EBB3
:101A3000C000B0FBF5F000F0F80002EB4002B1FB93
:101A4000F5F0584301EB800006EBC000B0FBF5F069
:101A500000F00700D6E7000000100140001401402C
:101A600081628285C28500214164222180F8421072
:101A7000016921B10168CA6842F48072CA600168D4
:101A80004A6942F001024A610068C16841F02001E0
:101A9000C160002070472DE9F843984617460D466F
:101AA0000446089E24E0701C22D0FCF70FF9A0EB3E
:101AB0000800B0421AD8CEB12068C168490717D5CE
:101AC000802D15D0402D13D00168C94309070FD4CC
