:020000040800F2
:10000000481200209D010008D31A00088D1800082E
:10001000D11A0008A902000881260008000000008B
:10002000000000000000000000000000F1210008B6
:100030006903000800000000D51A0008F321000839
:10004000B7010008B7010008B7010008B7010008B0
:10005000B7010008B7010008B7010008B7010008A0
:10006000B7010008B7010008B7010008B701000890
:10007000B7010008C9020008B7010008D50200084E
:10008000E1020008B7010008B7010008B701000845
:10009000B7010008B7010008B7010008B701000860
:1000A000B7010008B7010008B7010008B701000850
:1000B000B7010008B7010008B7010008B701000840
:1000C000B7010008B7010008B7010008B701000830
:1000D000B7010008B7010008B7010008B701000820
:1000E000B7010008B7010008B7010008B701000810
:1000F000B7010008B7010008B7010008B701000800
:10010000B7010008B7010008B7010008B7010008EF
:10011000B7010008B7010008B7010008B7010008DF
:10012000B7010008B7010008B7010008B7010008CF
:10013000B7010008B7010008B7010008B7010008BF
:10014000B7010008B7010008B7010008B7010008AF
:10015000B7010008B7010008B7010008B70100089F
:10016000B7010008B7010008B7010008B70100088F
:10017000B7010008B7010008B7010008000000003F
:10018000B7010008B7010008DFF80CD000F07AF8DA
:1001900000480047C1260008481200200648804752
:1001A00006480047FEE7FEE7FEE7FEE7FEE7FEE75C
:1001B000FEE7FEE7FEE7FEE791220008890100085E
:1001C0002DE9F05F0546002092469B46884606468C
:1001D000814640241BE0284641464746224600F01F
:1001E00041F853465A46C01A914110D31146184659
:1001F000224600F028F82D1A67EB01084F462246E8
:100200000120002100F01FF817EB00094E41201ECD
:10021000A4F10104DFDC484631462A464346BDE8E6
:10022000F09FD2B201E000F8012B491EFBD27047CB
:100230000022F6E710B513460A4604461946FFF7B2
:10024000F0FF204610BD202A04DB203A00FA02F11C
:10025000002070479140C2F1200320FA03F31943B4
:1002600090407047202A04DB203A21FA02F0002156
:10027000704721FA02F3D040C2F1200291400843B6
:1002800019467047064C074D06E0E06840F0010350
:1002900094E8070098471034AC42F6D3FFF778FF94
:1002A0000427000824270008FEE7000010B50122FB
:1002B0001146044800F0C2FABDE81040012000F0E9
:1002C000B3B9000000040240014800F073B8000018
:1002D000D4000020014800F06DB800003401002077
:1002E000014800F067B8000094010020016818235D
:1002F000CAB2103AB2FBF3F2054B6FF30901032ABD
:100300009B5CC36500D9091D8165084670470000E4
:10031000E226000810B5014600208B698A6A4FF07A
:10032000C07453B1B3F5005F15D072B1012A0CD07F
:10033000022A0AD0032A09D104E01AB1012A06D000
:10034000022A03D1C96AC90100D5012010BDC96ABA
:10035000A142FAD010BD002AF7D0012AF2D0022A19
:10036000F3D0032AF3D010BD704772B6FEE7002227
:10037000AFF3008030B50E4B054601205C7A002CAF
:1003800014D1587A1C54587A03EB800045605D7A8A
:1003900003F108002A54587A421C5A72303008700F
:1003A0003A2048702F208870CC70002030BD0000AB
:1003B0003C0200202DE9F84304464FF00009CDF837
:1003C000009063484FF41651A56D0068B0FBF1F73B
:1003D0002E6894F85C10082000FA01F131420FD029
:1003E00021680A6852070BD50A6822F004020A60E5
:1003F00094F85C108840A860606D40F00100606572
:1004000094F85C104FF0010808FA01F0304208D06F
:1004100021684969090604D5A860606D40F00200B2
:10042000606594F85C1004208840304208D0216850
:100430000968890704D5A860606D40F00400606514
:1004400094F85C1010208840304218D02168096868
:10045000090714D5A86020680168490304D500681D
:10046000000308D5A16C07E00168C90503D4016841
:1004700021F008010160216C09B12046884794F8F9
:100480005C1020208840304231D021680968C906BC
:100490002DD5A86094F8350005282068016806D09D
:1004A000490347D5006800031DD4616C1CE021F0AE
:1004B000160101602068416921F080014161206CD2
:1004C00008B9A06C20B12068016821F00801016022
:1004D00094F85C103F208840A86084F8358084F848
:1004E0003490216D1FE0E16B09B120468847606DB3
:1004F00000282BD0606DC00714D0052084F835008B
:100500002068016821F0010101600098401C009002
:10051000B84203D820680068C007F6D184F8358057
:1005200084F83490E16C002910D001B02046BDE879
:10053000F04308470168C905D5D4016821F01001CE
:10054000016084F8358084F83490CCE7BDE8F88306
:10055000280000202DE9F041044600F075F9064618
:100560005CB1022084F83500002584F834502068FE
:10057000016821F0010101600DE00120BDE8F0817A
:1005800000F062F9801B052805D920206065032052
:1005900084F83500F2E720680068C007F0D12268CF
:1005A000116820480140D4E901031843D4E9033617
:1005B0003343184363691843A3691843E369184335
:1005C000236A18430843616A042903D1D4E90B1351
:1005D00019430843106020684069666A20F00701EB
:1005E00030460E43012704280CD1A06A0643E06A76
:1005F00040B12046FFF78EFE20B14020606584F8B0
:100600003570BAE7206846612046FFF76FFE94F820
:100610005C203F2191408160656584F83570002041
:10062000ACE700003F8010F070B5044600F00CF914
:100630000546601C02D004480078044400F004F928
:10064000401BA042FAD370BD1C0000202DE9F84FDA
:10065000DFF8BCA10022012503264FF00F090AF1A3
:10066000040BAAF1040E00BF0B6805FA02F4234044
:10067000A34270D10F7907F00307012F01D0022F99
:1006800016D187684FEA420806FA08FC27EA0C07E9
:10069000D1F80CC00CFA08FC4CEA070CC0F808C0F2
:1006A0004768A7430C79C4F3001494403C4344606A
:1006B0000C79E443A4070AD0C4684FEA420C06FA56
:1006C0000CF7BC438F6807FA0CF72743C7600C7917
:1006D00004F00304022C12D1D40800EB840CDCF8E3
:1006E00020405707FF0E09FA07F824EA0804D1F85A
:1006F000108008FA07F848EA0408CCF8208004685B
:100700004FEA420C06FA0CF7BC430F7907F00307D7
:1007100007FA0CF7274307604C6814F4403F70D089
:100720003C4C276847F480472760246822F0030781
:1007300004F480440094384C07EB040CDCF80848BF
:1007400097074FEA177809FA08F7BC43334FB842C6
:1007500002D1002724E054E0314FB84201D10127F3
:100760001EE0304FB84201D1022719E02E4FB842A7
:1007700001D1032714E02D4FB84201D104270FE027
:100780002B4FB84201D105270AE02A4FB84201D1C8
:10079000062705E0284FB84201D1072700E00827C7
:1007A00007FA08F72743CCF80878DAF800405746EC
:1007B000D1F804C09C435FEACC2C00D51C433C60BC
:1007C000DBF800405F46D1F804C09C435FEA8C2C04
:1007D00000D51C433C60DEF800407746D1F804C0E9
:1007E0009C435FEA8C3C00D51C433C60084F083FAB
:1007F0003C68D1F804C09C435FEACC3C00D51C4364
:100800003C60521C102AFFF42FAFBDE8F88F0000A7
:10081000083C0140443802400030014000000240E2
:100820000004024000080240000C02400010024098
:100830000014024000180240001C02400AB181610D
:1008400070470904FBE7000001488068704700001A
:100850001C000020024881680278114481607047C2
:100860001C0000200B4810B5016841F400710160C4
:10087000016841F480610160016841F480710160A8
:10088000032000F06FF80F2000F006F800F024F8C5
:10089000002010BD003C024070B50D4D04464FF4E1
:1008A0007A712878B1FBF0F00A490968B1FBF0F0E1
:1008B00000F051FD48B9102C07D200222146501EED
:1008C00000F030F800206C6070BD012070BD0000A9
:1008D0001C000020280000200A4808B5016841F4E7
:1008E00080410160006800F4804000900548001FCE
:1008F000016841F080510160006800F08050009074
:1009000008BD000044380240002809DB00F01F0247
:10091000012191404009800000F1E020C0F8001161
:1009200070470000F0B40E4B1B680C46C3F3022363
:10093000C3F10705042D00D90425191D072901D28B
:10094000002300E0DB1E012606FA05F1491E2140C6
:1009500099409E40761E16403143F0BC01F091BE96
:100960000CED00E0064900F0070208684FF6FF03AF
:10097000184040EA0220034A104308607047000014
:100980000CED00E00000FA052DE9F0470E460500E9
:1009900065D0DFF81481D8F80000F7B200F0070046
:1009A000B04207D288F80070D8F8000000F00700C5
:1009B000B04254D128683D4C810712D5400703D579
:1009C000206840F4E05020602878000703D52068B4
:1009D00040F4604020602068A96820F0F0000843DF
:1009E00020602878C0072DD0304968680839012870
:1009F00012D0022813D0032811D0096889070029D2
:100A00002DDA216821F0030101432160FFF71CFF6B
:100A1000814641F2883A0EE009688903EFE70968E8
:100A20008901ECE7FFF710FFA0EB0901514502D95E
:100A30000320BDE8F0872068696800F00C00B0EB87
:100A4000810FEFD1D8F80010404601F00701B14204
:100A500007D90770006800F00700B04201D00120FC
:100A6000E7E72878400705D52068E96820F4E050DA
:100A7000084320602878000706D52068296920F4FB
:100A8000604040EAC100206000F038F82168084A60
:100A9000C1F30311515CC84006490860064800686C
:100AA000FFF7FAFE0020C4E7003C0240083802408D
:100AB000EA260008280000202000002004480549FC
:100AC00000680968044AC1F38221515CC84070473C
:100AD0002800002008380240FA260008044805498A
:100AE00000680968044AC1F34231515CC84070474C
:100AF0002800002008380240FA260008154810B5E2
:100B0000006810F00C02144813D01449042A0FD0C6
:100B1000082A0ED10F4C241F2268236802F03F02DE
:100B20005B0207D52068C0F38810A0FB010106E036
:100B3000084610BD2168C1F38811A1FB0001002304
:100B4000FFF73EFB2168C1F30141491C4900B0FB9E
:100B5000F1F010BD083802400024F40040787D0117
:100B60002DE9F84F040076D02078DFF85C93C007B9
:100B7000A9F104054CD009F104000168C1F3810119
:100B8000012908D00068C0F3810002280AD1D9F8F1
:100B90000000400206D52868800339D56068002827
:100BA000E1D035E06068B0F5803F12D0B0F5A02FFD
:100BB000286812D020F480302860286820F4802033
:100BC0002860606840F2DC56A8B1FFF73DFE07469A
:100BD0000DE0286840F48030F2E740F4802028607F
:100BE000F7E700BFFFF730FEC01BB04273D828689C
:100BF0008003F7D50CE0FFF727FE074605E000BFAE
:100C0000FFF722FEC01BB042F0D828688003F7D45B
:100C10002078DFF8B88280074FF0000A44D5AA4850
:100C2000001D016811F00C0F08D00068C0F38100AE
:100C3000022811D1D9F8000040020DD4286880079D
:100C400002D5E068012806D12868216920F0F80063
:100C500040EAC10018E033E1E068B8B10120C8F80B
:100C60000000FFF7F1FD064605E000BFFFF7ECFDD1
:100C7000801B0228BAD828688007F7D5286820F09A
:100C8000F801206941EAC00028600DE0C8F800A022
:100C9000FFF7DAFD064604E0FFF7D6FD801B0228C9
:100CA00019D828688007F7D42078000722D5864E07
:100CB00087486169703679B101210160FFF7C4FD91
:100CC000074604E0FFF7C0FDC01B022803D83068C8
:100CD0008007F7D50EE088E0C0F800A0FFF7B4FD6C
:100CE000074604E0FFF7B0FDC01B02287DD830683E
:100CF0008007F7D42078400768D5DFF8CCB100270B
:100D00000BF13C0BDBF80000C0000BD4DBF800104B
:100D100041F08051CBF80010DBF80000012700F013
:100D2000805000906B4E3068C00510D4306840F49D
:100D300080703060FFF788FD009005E0FFF784FDCC
:100D40000099401A022850D83068C005F6D55E4E8A
:100D5000A0686C3601280FD00528306810D020F02C
:100D600001003060306820F004003060A068B8B145
:100D7000FFF76AFD00900FE0306840F00100F4E7F3
:100D800040F004003060F7E7FFF75EFD0099411A7C
:100D900041F28830814266D830688007F4D50EE091
:100DA000FFF752FD009007E0FFF74EFD0099411A52
:100DB00041F28830814256D830688007F4D42FB190
:100DC000DBF8001021F08051CBF80010A069C8B307
:100DD0003D49091D0968C1F3810102294AD0022851
:100DE000504607D0C8F8600000E03CE0FFF72CFD5B
:100DF00004463BE04746C8F86000FFF725FD06467D
:100E000005E000BFFFF720FD801B02282BD82868D3
:100E10008001F7D4D4E907010843A16A2E4A4908A2
:100E200002EB0141626A41EA8211084394F82C10F6
:100E300040EA0161C9F8001001203866FFF704FD9F
:100E4000044606E03EE000BFFFF7FEFC001B022860
:100E500009D828688001F7D534E000BFFFF7F4FC1B
:100E6000001B022802D90320BDE8F88F2868800102
:100E7000F4D427E00128F7D0D9F80000E26900F4A3
:100E8000800191421CD1226A00F03F01914217D1AA
:100E900047F6C071626A0140B1EB821F10D1A26AAD
:100EA0004FF0FF3300F4403103EB5202B1EB024F3D
:100EB00006D194F82C1000F07060B0EB016F01D0F7
:100EC0000120D1E70020CFE704380240000047426C
:100ED000800E4742007000400000FFFF70B5040024
:100EE00009D0606A002540B125616561A56294F86A
:100EF000510040B10CE0012070BD6068B0F5827F08
:100F0000F4D0E561F2E784F85050204600F044F850
:100F1000022084F851002068016821F0400101603E
:100F2000A088218900F4827001F404410843A1895A
:100F300001F400610843217C01F002010843217D96
:100F400001F001010843218B01F400710843217F66
:100F500001F03801084394F8201001F080010843A3
:100F6000218D01F40051084321680860A069042123
:100F700001EA104094F8241001F0100108432168A0
:100F800048602068C16921F40061C1616565012084
:100F900084F85100002070BD10B586B004461421BD
:100FA0006846FFF745F913492068884220D1124866
:100FB0000021026842F480520260006800F4805010
:100FC00005900D481438026842F001020260006882
:100FD00000F001000590E02000900220CDE9010121
:100FE000032003900520049069460448FFF72EFB78
:100FF00006B010BD003001404438024000000240FD
:101000002DE9F84F984616468A460446FFF71CFC21
:10101000814694F8510001281ED1BAF1000F73D017
:10102000002E71D094F85000012815D0012784F8C3
:101030005070032084F8510000256565C4F830A085
:10104000A686E686A563A587E58765642564A0680E
:10105000B0F5004F03D00CE00220BDE8F88F206807
:10106000016821F0400101602068016841F480417D
:10107000016020680168490603D4016841F040011D
:101080000160E068B0F5006F606803D048B3012EDE
:1010900027D047E008B1012E1FD1206B21680088BE
:1010A000C86006E020688168890709D5216B098836
:1010B000C160206B801C2063E08E401EE0860CE047
:1010C000FFF7C2FBA0EB0901414503D3B8F1FF3F95
:1010D00003D035E0B8F1000F32D0E08E0028E1D126
:1010E00023E0206B21680078087306E0206881689F
:1010F00089070AD5216B09780173206B401C206396
:10110000E08E401EE0860DE02BE0FFF79DFBA0EB9C
:101110000901414503D3B8F1FF3F03D010E0B8F116
:10112000000F0DD0E08E0028E0D14A46414620460F
:1011300000F096FF08B120206065A06830B109E09A
:1011400084F8517084F85050032086E72068C16805
:101150008068009084F8517004F8505F606800283F
:10116000F3D0012079E72DE9FF4F81B01D4693466A
:1011700004464FF001090E9EFFF766FB074694F800
:1011800051006168012806D0B1F5827F3CD1A16889
:10119000C9BB042838D10298002871D0BBF1000FD8
:1011A000FBD0002DF9D094F8500001282CD04FF03E
:1011B000010A84F850A094F85100042802D00520B8
:1011C00084F851004FF00008C4F85480C4F838B0D7
:1011D000E587A58702992163E586A586C4F8408046
:1011E000C4F8448020680168490603D4016841F0CE
:1011F00040010160E068B0F5006F606808D0F0B3AE
:10120000012D49D081E0FFE7022005B0BDE8F08F55
:1012100008B1012D39D1206B21680088C860206B8E
:10122000801C2063E08E401EE0862EE020688168EE
:1012300089070FD5E18E69B1B9F1010F0AD1216B90
:101240000988C160206B801C2063E08E401EE08610
:101250004FF0000920688168C9070CD0E18F51B1B7
:10126000C068A16B0880A06B801CA063E08F401E4B
:10127000E0874FF00109FFF7E7FAC01B01E00BE040
:1012800067E0B04201D3701C50D1E08E0028CDD170
:10129000E08F0028CAD13EE0206B216800780873F7
:1012A000206B401C2063E08E401EE0862DE020680D
:1012B000816889070FD5E18E69B1B9F1010F0AD1B3
:1012C000216B09780173206B401C2063E08E401E67
:1012D000E0864FF0000920688168C9070CD0E18FD3
:1012E00051B1C068A16B0870A06B401CA063E08F77
:1012F000401EE0874FF00109FFF7A6FAC01BB0427D
:1013000002D3701C01D011E086B1E08E0028CED14E
:10131000E08F0028CBD13A463146204600F0A0FEAF
:1013200050B12020606584F8508012E084F851A00C
:1013300084F85080032068E7A06818B92068C16865
:101340008068009084F851A084F85080606D002877
:10135000F1D0012059E710B5401EB0F1807F01D3D4
:10136000012010BD4FF0E02460610F21601701F0F3
:1013700088F90020A06107202061002010BD000036
:1013800070B590F83C20012A32D0012480F83C400E
:10139000022280F83D2003685A689D6822F070069A
:1013A0000A6832435A60134B02689A4214D0B2F171
:1013B000804F11D0104B9A420ED0104B9A420BD056
:1013C0000F4B9A4208D00F4B9A4205D00E4B9A42CF
:1013D00002D00E4B9A4204D1496825F0800319438C
:1013E000916080F83D40002180F83C10084670BDB7
:1013F000022070BD000001400004004000080040D1
:10140000000C004000040140004001400018004072
:1014100010B5040003D094F83D0010B107E001209E
:1014200010BD002084F83C00204600F01FF8022088
:1014300084F83D00211D206800F032FF012084F86F
:10144000460084F83E0084F83F0084F8400084F8A9
:10145000410084F8420084F8430084F8440084F892
:10146000450084F83D00002010BD00002DE9F84F34
:10147000044600682D49884255D12D4900200A684C
:1014800042F002020A6009682B4D01F0020100914E
:1014900005F10C024FF480684FF400694FF4005AD4
:1014A00082E80107E8612862224968624FF02066FD
:1014B000402785E8C2002846FFF74CF808B1FEF740
:1014C00054FF25632562AC631B4DB346603505F1BF
:1014D0000C010026AF6081E840071648EE612E62DD
:1014E00030306E62C5E9000B2846FFF733F808B1CB
:1014F000FEF73BFF6562A563AC630F4D0D48C03539
:1015000005F10C01AF6081E84007EE612E624830C2
:101510006E62C5E9000B2846FFF71CF808B1FEF71C
:1015200024FFA562AC63BDE8F88F00000004004012
:101530004038024040600240D400002070B50446AC
:1015400090F83C000025012817D0012684F83C6063
:10155000022084F83D002068826822F0770222F49D
:101560007F4282600868502838D00DDC20284FD098
:1015700005DC90B3102811D14AE0022070BD30285C
:1015800046D040280AD13BE060282FD070280DD0EB
:10159000B0F5805F03D0B0F5005F12D0012584F86C
:1015A0003D60002084F83C00284670BDCB68D1E93E
:1015B0000121206800F0DCFE2068816841F077019D
:1015C00009E0CB68D1E90121206800F0D1FE206854
:1015D000816841F480418160E1E719E0CA684968A7
:1015E000206800F099FF5021206806E0CA68496829
:1015F000206800F0A2FF6021206800F0C3FECEE763
:10160000CA684968206800F087FF40212068F4E735
:10161000226801461046F0E730B587B00446142131
:101620006846FEF705FE17492068884227D116480C
:101630000024016841F004010160016801F0040127
:101640000591016841F0020101600068022500F087
:10165000020005904FF420700090CDE901546946D6
:101660000A48CDE90345FEF7F1FF10200090CDE9CF
:10167000015469460648CDE90345FEF7E7FF07B088
:1016800030BD000000040040303802400008024035
:101690000004024070B5044690F83C0000260D4658
:1016A00001280FD0012084F83C006AB1042A1DD023
:1016B000082A2FD00C2A3FD00126002084F83C00B5
:1016C000304670BD022070BD206800F063FE2068C7
:1016D000816941F0080181612068816921F004017C
:1016E0008161206881692A69114311E0206800F056
:1016F00081FE2068816941F400618161206881690F
:1017000021F480618161206881692A6941EA0221AE
:101710008161D2E7206800F0A3FE2068C16941F032
:101720000801C1612068C16921F00401C16120681C
:10173000C1692A69114311E0206800F0C5FE2068E4
:10174000C16941F40061C1612068C16921F480610F
:10175000C1612068C1692A6941EA0221C161ACE71F
:1017600010B5040003D094F83D0010B107E001204B
:1017700010BD002084F83C00204600F01EF8022036
:1017800084F83D00211D206800F08AFD012084F8C6
:10179000460084F83E0084F83F0084F8400084F856
:1017A000410084F8420084F8430084F8440084F83F
:1017B000450084F83D00002010BD704770B504005E
:1017C00004D094F84100002510B106E0012070BD5E
:1017D00084F84050204600F023F8242084F841008B
:1017E0002068C16821F40051C160204600F0B8FEB5
:1017F0002068016921F4904101612068416921F06C
:101800002A0141612068C16841F40051C1606564EA
:10181000202084F8410084F842006563002070BDF8
:1018200010B586B0044614216846FEF701FD144940
:101830002068884221D113480021026842F010023A
:101840000260006800F0100005900E48143802682D
:1018500042F001020260006800F0010005904FF4C0
:10186000C06000900220CDE9010103200390072011
:10187000049069460448FEF7E9FE06B010BD00007A
:10188000001001404438024000000240FEE7000022
:10189000114808B5016841F4001101600068002298
:1018A00000F40010009011460D20FFF73BF80D20CA
:1018B000FFF72AF8002211460F20FFF733F80F2018
:1018C000FFF722F8002211461020FFF72BF8BDE8A1
:1018D00008401020FFF718B83038024010B504490E
:1018E0000448FEF744FD0249491E087010BD00007F
:1018F0001500002000000020F0B587B014216846D4
:10190000FEF796FC21480024016841F004010160C3
:10191000016801F004010591016841F08001016056
:10192000016801F080010591016841F00101016049
:10193000016801F001010591016841F002010160B7
:101940000068134E00F002004FF40055059000228D
:1019500029463046FEF772FF0E4F0022102138460E
:10196000FEF76CFF00950125CDE90154694630462C
:101970000394FEF76BFE10200090CDE901546946F8
:1019800038460394FEF762FE07B0F0BD30380240DF
:101990000008024000000240104810B50E490160E6
:1019A0004FF48271416000218160C1604FF4007288
:1019B0000161C0E905121022C0E90721416281627C
:1019C0000A21C162FFF78AFA002803D0BDE810405F
:1019D000FEF7CBBC10BD00000030014034000020F9
:1019E00010B58EB000240794089409940A940B94BF
:1019F0001C2168460C94FEF71BFC26482449016014
:101A00000521C0E901140E21C0E903148021816180
:101A1000FFF7FEFC08B1FEF7A8FC4FF480500790DA
:101A200007A91C48FFF78AFD08B1FEF79EFC19487C
:101A3000FFF796FE08B1FEF798FC0B940BA915482A
:101A40000C94FFF79DFC08B1FEF78FFC6020CDE9F8
:101A500000040294002269460E480494FFF71AFE1F
:101A600008B1FEF782FC042269460A48FFF712FE1D
:101A700008B1FEF77AFC0C2269460648FFF70AFE19
:101A800008B1FEF772FC0348FFF7C6FD0EB010BDAB
:101A9000000400408C0000200C4810B50A49016089
:101AA0004FF4E1314160002181600C22C160C0E946
:101AB00004128161C161FFF781FE002803D0BDE8F7
:101AC0001040FEF752BC10BD00100140F401002090
:101AD000FEE7FEE7704700007CB541F6FF74FEF7B5
:101AE000E5FB0025FF2000F015FB6D1C0A2DF9DB3E
:101AF00000F0A8FA40208DF8000000208DF80100C9
:101B00008DF802008DF803008DF8040095208DF803
:101B100005000621684600F0EFFA00F0D7FA012828
:101B200006D0641E00F0D2FA012801D0002CF8D1B2
:101B3000FEF7BCFBFF2000F0EDFA024901204870DF
:101B40007CBD00002C00002010B5064C4FF4FA704C
:101B5000A4F8060000F0BAFAFF2802D0E1880029B4
:101B6000F8D110BD2C00002070B50F4C0546C820E0
:101B70000E46A08000F0AAFAFF2803D0FE2805D068
:101B8000002070BDA0880028F4D1F9E72C466D1C18
:101B900000F09CFA2070761EF8D200F097FA00F060
:101BA00095FA012070BD00002C00002070B50C4695
:101BB0000546FFF7C9FFFF2801D0FF2070BD28466A
:101BC00000F0A8FA200E00F0A5FAC4F3074000F0D8
:101BD000A1FAC4F3072000F09DFAE0B200F09AFAEF
:101BE000402D07D0482D07D0012000F093FA4C2D4E
:101BF00006D007E0952000E0872000F08BFA01E096
:101C000000F064FA5FF00A0400F060FA0106D5D52E
:101C1000641E14F0FF04F7D170BD70B50E46054682
:101C20000024FFF791FFFF2820D1304600F072FA20
:101C3000FD2E17D04FF40071284600F05DFA00F039
:101C400045FA00F043FA00F041FA054600F01F00A3
:101C5000052803D0641CE4B2402CF4D900F036FA15
:101C60000028FBD005F01F00052801D0002070BD22
:101C7000012070BDF8B508B10120F8BD484C2078AE
:101C8000800772D4FFF728FF00F0DCF90025294611
:101C90004020FFF78BFF012872D14FF47A70A080AB
:101CA0004FF4D5714820FFF781FF01280DD00021A6
:101CB0007720FFF77BFF012841D800216920FFF73B
:101CC00075FF01283BD8022540E000264FEA0D07AA
:101CD00000F0FCF9B855761CF6B2042EF8D39DF846
:101CE000020001284CD19DF80300AA2848D14607DC
:101CF00000217720FFF75AFF012804D831466920D8
:101D0000FFF754FF18B1A0880028F1D138E0A0886F
:101D100060B300217A20FFF749FF38BB5FF0000570
:101D200000F0D4F978556D1CEDB2042DF8D39DF870
:101D30000000400601D50C2522E0042520E0012505
:101D400001E0022D02D00021412007E00021772090
:101D5000FFF72CFF012804D800216920FFF726FF98
:101D600028B1A0880028ECD109E016E008E0A0889E
:101D700028B14FF400715020FFF718FF00B1002583
:101D8000A570FEF793FA00F0A1F925B1207820F0B4
:101D90000100207001E0002060702078F8BD000094
:101DA0002C0000207FB515460E4610B1042004B06B
:101DB00070BD01244A48052E04D00078C00713D016
:101DC0000320F4E7297829B1012906D0022907D098
:101DD000042482E00021417004E0FFF77DFE01E071
:101DE00040785070002478E000F02CF90B2E51D090
:101DF00005DCEEB3012E07D0022E69D141E00C2E96
:101E00004BD00D2E64D154E000214920FFF7CEFEC7
:101E100078BB10216846FFF7A7FE50B39DF800106D
:101E20000120B0EB911F09D19DF808209DF8091001
:101E300000EB022008440004800920E09DF8050022
:101E40009DF80A1000F00F0000EBD1109DF809106A
:101E50009DF8072001F0030100EB41019DF8080007
:101E6000800900EB82009DF8062002F0030201E0E9
:101E70000BE02EE000EB8220401CC91F8840286048
:101E800015E04FF40070288011E0FFF75DFEFF2899
:101E90000DD01EE00021492001E000214A20FFF77B
:101EA00085FEB0B910212846FFF75EFE88B10024F8
:101EB0000FE000217A20FFF779FE48B95FF00004B7
:101EC00000F004F9641CE4B205F8010B042CF7D30C
:101ED0000424FEF7EBF900F0F9F8204667E700006C
:101EE0002C0000202DE9F0411C4615460E4638B95D
:101EF00034B121480178C90704D00320BDE8F0813E
:101F00000420FBE78078400700D4550200F09AF8DF
:101F10004FF40077012C294604D05220FFF746FEEB
:101F200070B11AE05120FFF741FEE0B93946304662
:101F3000FFF71AFEB8B1FEF7B9F900F0C7F818E0DC
:101F400039463046FFF710FE18B1641E06F50076DC
:101F5000F6D100214C20FFF729FEFEF7A7F900F08B
:101F6000B5F824B905E0FEF7A1F900F0AFF80120BB
:101F7000C4E70020C2E700002C00002008B10120C7
:101F800070470148007870472C0000202DE9F0418F
:101F90001C4616460F4638B934B1294D2878C0077B
:101FA00004D00320BDE8F0810420FBE72878400737
:101FB00001D50220F6E7A878400700D4560200F0C9
:101FC00041F8012C10D0A878800707D50021772090
:101FD000FFF7ECFD21465720FFF7E8FD3146592079
:101FE000FFF7E4FD78B11CE031465820FFF7DEFD35
:101FF000F0B9FE213846FFF710FEC8B1FEF756F9DA
:1020000000F064F819E0FC213846FFF706FE18B12D
:10201000641E07F50077F6D1FD210020FFF7FDFDD6
:1020200030B1FEF743F900F051F834B10120B9E7BF
:10203000FEF73CF900F04AF8F8E70020B2E70000AC
:102040002C00002010B5002201210448FEF7F6FB09
:10205000BDE810400120FEF7E7BA0000000402408E
:10206000F8B515460E460B460092044601220221A1
:1020700000F060F8A0B9134813490068B0FBF1F014
:102080004FF47A71484300906068B0F5827F0DD1BB
:102090003346002280212046009500F04BF870B1B5
:1020A000606D40F0200060650320F8BD009830B1FD
:1020B000401E009020688068C0430006F6D50020CE
:1020C000F8BD00002800002000366E010EB5FF208C
:1020D0008DF804000748006881688907FCD56420F2
:1020E0000090012302AA01A90248FFF73CF89DF8DD
:1020F00008000EBD34000020054A126893689B0753
:10210000FCD50A46014664230148FEF779BF00006A
:102110003400002001B50648006881688907FCD5B5
:102120006423012269460248FEF76AFF08BD0000E9
:10213000340000202DE9F8431E46914688460446A7
:10214000089DFEF781FB401B351AFEF77DFB074615
:1021500026480068C0F3CB3068430AE0701C09D001
:10216000FEF772FBC01BA8420FD275B10098B8B33E
:10217000401E00902068816838EA010033D00021B9
:102180004945EBD10020BDE8F8832068416821F083
:10219000E00141606068B0F5827F0BD1A068B0F5C6
:1021A000004F02D0B0F5806F04D12068016821F0A3
:1021B00040010160A06AB0F5005F09D120680168A4
:1021C00021F4005101602068016841F40051016070
:1021D000012084F85100002084F850000320D2E749
:1021E000FFE70025C6E70121CAE70000280000201C
:1021F0007047FEF72FBB000030B593B03021684622
:10220000FEF716F814210CA8FEF712F81E48002558
:10221000016841F080510160006800F08050119029
:102220001A48016841F4804101600068022400F40A
:102230008040119001200090000401908001CDE9C0
:102240000640192008904FF4A870CDE90904042035
:102250000B906846FEF784FC08B172B6FEE70CA945
:102260000F2081E831004FF4A0500F904FF48050C0
:10227000109005210CA8FEF787FB002801D072B64C
:10228000FEE713B030BD000040380240007000404F
:102290000248016841F470010160704788ED00E078
:1022A000F0B50268274B284D284E294F294C4FF096
:1022B000804C984209D0604507D0A84205D0B04272
:1022C00003D0B84201D0A04204D122F0700E4A6877
:1022D00042EA0E0298421BD0604519D0A84217D09E
:1022E000B04215D0B84213D0A04211D01A4DA84226
:1022F0000ED01A4DA8420BD0194DA84208D0194D46
:10230000A84205D0184DA84202D0184DA84203D1CA
:1023100022F44075CA682A434D6922F080022A439C
:102320008D68C5620D688562984201D0A04201D1D6
:1023300009690163016841F0040101600121416103
:102340000260F0BD000001400004004000080040B1
:10235000000C0040000401400040014000440140E6
:102360000048014000180040001C004000200040D0
:1023700010B5846842EA032224F47F440A432243CE
:10238000826010BD826822F070020A4342F00701A9
:1023900081607047F0B5036A026A22F001020262AE
:1023A00042688469124E24F073050C682C4323F0B4
:1023B00002058B682B430D4DA84201D0B04205D1D8
:1023C00023F00807CB683B4323F00403A84201D065
:1023D000B04205D14D6922F4407215438A692A43FF
:1023E00042608461496841630362F0BD00000140BE
:1023F00000040140F0B5026A036A23F0100303628F
:10240000436884690D6824F4E64444EA05248D6831
:1024100022F0200242EA05120F4D104EA84201D0D0
:10242000B04206D1CF6822F0800242EA071222F0C1
:102430004002A84201D0B04207D14D6923F4406365
:1024400043EA85038D6943EA8503436084614968F3
:1024500081630262F0BD0000000001400004014001
:10246000F0B5026A036A23F4807303624368C469A7
:1024700022F4007224F073050C68124E2C438D6810
:1024800042EA05220E4DA84201D0B04206D1CF68E3
:1024900022F4006242EA072222F48062A84201D0BC
:1024A000B04207D14D6923F4405343EA05138D69C7
:1024B00043EA05134360C4614968C1630262F0BD29
:1024C000000001400004014030B5046A026A22F4B1
:1024D000805202624268C3690D6823F4E64343EA0E
:1024E00005238D6824F4005444EA0534084DA842BD
:1024F00002D0084DA84204D14D6922F4804242EA3C
:1025000085124260C36149680164046230BD000005
:10251000000001400004014010B5036A046A24F081
:1025200001040462846924F0F00444EA021423F0F4
:102530000A020A438461026210BD10B5036A046A8C
:1025400024F010040462846923F0A00324F470448E
:1025500044EA023243EA01118261016210BD0000C7
:1025600070B5044600680169E26821F440511143E6
:1025700001612169A068E269084361691143084368
:102580002168CA6849F20C639A430243CA60206812
:102590004169A26921F440711143416131492068C8
:1025A000884202D03049884202D1FEF797FA01E012
:1025B000FEF784FAE2690023192164253226B2F578
:1025C000004F626828D0A0FB0101930F9200FDF735
:1025D000F7FD0146B0FBF5F06FF01802504301EB38
:1025E000800006EB0010B0FBF5F000F0F002B1FB4C
:1025F000F5F002EB0012B1FBF5F06FF01803584351
:1026000001EB800006EB0010B0FBF5F000F00F00CE
:1026100021681044886070BDA0FB010192185B41E5
:10262000FDF7CEFD0146B0FBF5F00201B1FBF5F080
:102630006FF01803584301EB800006EBC000B0FBBD
:10264000F5F000F0F80002EB4002B1FBF5F0584362
:1026500001EB800006EBC000B0FBF5F000F00700D6
:10266000D6E700000010014000140140FFF702BB54
:10267000FFF798BBFFF736BCFFF780BCFFF786BCBF
:10268000FEE70907090E002804DB00F1E02080F8CE
:102690000014704700F00F0000F1E02080F8141DD6
:1026A000704702E008C8121F08C1002AFAD170471B
:1026B0007047002001E001C1121F002AFBD17047C2
:1026C000FEF7D0F8FFF798FDFFF716F9FFF7E0F8EF
:1026D000FFF762F9FFF702F9FFF7DEF9FFF780F97C
:1026E000FEE70006101600061016000000000000AD
:1026F00000000102030406070809000000000102AF
:10270000030400002427000800000020340000001B
:10271000A2260008582700083400002014120000E8
:10272000B22600086D2600087926000875260008E4
:102730007D2600087126000800000000000000004F
:102740000100000010000000000000000024F40060
:08275000010000000000000080
:040000050800018965
:00000001FF
